{
	"contracts/sharing_digital_assets.sol": {
		"Exchange": {
			"abi": [
				{
					"inputs": [
						{
							"internalType": "uint256",
							"name": "",
							"type": "uint256"
						}
					],
					"name": "assets",
					"outputs": [
						{
							"internalType": "string",
							"name": "symbol",
							"type": "string"
						},
						{
							"internalType": "uint256",
							"name": "totalSupply",
							"type": "uint256"
						}
					],
					"stateMutability": "view",
					"type": "function"
				},
				{
					"inputs": [
						{
							"internalType": "string",
							"name": "symbol",
							"type": "string"
						},
						{
							"internalType": "uint256",
							"name": "totalSupply",
							"type": "uint256"
						}
					],
					"name": "createAsset",
					"outputs": [],
					"stateMutability": "nonpayable",
					"type": "function"
				},
				{
					"inputs": [
						{
							"internalType": "string",
							"name": "symbol",
							"type": "string"
						}
					],
					"name": "findAssetIndex",
					"outputs": [
						{
							"internalType": "uint256",
							"name": "",
							"type": "uint256"
						}
					],
					"stateMutability": "view",
					"type": "function"
				},
				{
					"inputs": [
						{
							"internalType": "string",
							"name": "symbol",
							"type": "string"
						}
					],
					"name": "matchOrders",
					"outputs": [],
					"stateMutability": "nonpayable",
					"type": "function"
				},
				{
					"inputs": [
						{
							"internalType": "string",
							"name": "",
							"type": "string"
						},
						{
							"internalType": "uint256",
							"name": "",
							"type": "uint256"
						}
					],
					"name": "orders",
					"outputs": [
						{
							"internalType": "uint256",
							"name": "price",
							"type": "uint256"
						},
						{
							"internalType": "uint256",
							"name": "amount",
							"type": "uint256"
						},
						{
							"internalType": "address",
							"name": "maker",
							"type": "address"
						},
						{
							"internalType": "address",
							"name": "taker",
							"type": "address"
						}
					],
					"stateMutability": "view",
					"type": "function"
				},
				{
					"inputs": [
						{
							"internalType": "string",
							"name": "symbol",
							"type": "string"
						},
						{
							"internalType": "uint256",
							"name": "price",
							"type": "uint256"
						},
						{
							"internalType": "uint256",
							"name": "amount",
							"type": "uint256"
						}
					],
					"name": "placeOrder",
					"outputs": [],
					"stateMutability": "nonpayable",
					"type": "function"
				}
			],
			"devdoc": {
				"kind": "dev",
				"methods": {},
				"version": 1
			},
			"evm": {
				"assembly": "    /* \"contracts/sharing_digital_assets.sol\":64:1938  contract Exchange {\r... */\n  mstore(0x40, 0x80)\n  callvalue\n  dup1\n  iszero\n  tag_1\n  jumpi\n  0x00\n  dup1\n  revert\ntag_1:\n  pop\n  dataSize(sub_0)\n  dup1\n  dataOffset(sub_0)\n  0x00\n  codecopy\n  0x00\n  return\nstop\n\nsub_0: assembly {\n        /* \"contracts/sharing_digital_assets.sol\":64:1938  contract Exchange {\r... */\n      mstore(0x40, 0x80)\n      callvalue\n      dup1\n      iszero\n      tag_1\n      jumpi\n      0x00\n      dup1\n      revert\n    tag_1:\n      pop\n      jumpi(tag_2, lt(calldatasize, 0x04))\n      shr(0xe0, calldataload(0x00))\n      dup1\n      0x03da27ca\n      eq\n      tag_3\n      jumpi\n      dup1\n      0x51154567\n      eq\n      tag_4\n      jumpi\n      dup1\n      0x88b922d5\n      eq\n      tag_5\n      jumpi\n      dup1\n      0xb1058c47\n      eq\n      tag_6\n      jumpi\n      dup1\n      0xcf35bdd0\n      eq\n      tag_7\n      jumpi\n      dup1\n      0xdb9cc410\n      eq\n      tag_8\n      jumpi\n    tag_2:\n      0x00\n      dup1\n      revert\n        /* \"contracts/sharing_digital_assets.sol\":292:332  mapping(string => Order[]) public orders */\n    tag_3:\n      tag_9\n      0x04\n      dup1\n      calldatasize\n      sub\n      dup2\n      add\n      swap1\n      tag_10\n      swap2\n      swap1\n      tag_11\n      jump\t// in\n    tag_10:\n      tag_12\n      jump\t// in\n    tag_9:\n      mload(0x40)\n      tag_13\n      swap5\n      swap4\n      swap3\n      swap2\n      swap1\n      tag_14\n      jump\t// in\n    tag_13:\n      mload(0x40)\n      dup1\n      swap2\n      sub\n      swap1\n      return\n        /* \"contracts/sharing_digital_assets.sol\":1166:1935  function matchOrders(string memory symbol) public {\r... */\n    tag_4:\n      tag_15\n      0x04\n      dup1\n      calldatasize\n      sub\n      dup2\n      add\n      swap1\n      tag_16\n      swap2\n      swap1\n      tag_17\n      jump\t// in\n    tag_16:\n      tag_18\n      jump\t// in\n    tag_15:\n      stop\n        /* \"contracts/sharing_digital_assets.sol\":799:1160  function placeOrder(string memory symbol, uint256 price, uint256 amount) public {\r... */\n    tag_5:\n      tag_19\n      0x04\n      dup1\n      calldatasize\n      sub\n      dup2\n      add\n      swap1\n      tag_20\n      swap2\n      swap1\n      tag_21\n      jump\t// in\n    tag_20:\n      tag_22\n      jump\t// in\n    tag_19:\n      stop\n        /* \"contracts/sharing_digital_assets.sol\":468:793  function findAssetIndex(string memory symbol) public view returns (uint256) {\r... */\n    tag_6:\n      tag_23\n      0x04\n      dup1\n      calldatasize\n      sub\n      dup2\n      add\n      swap1\n      tag_24\n      swap2\n      swap1\n      tag_17\n      jump\t// in\n    tag_24:\n      tag_25\n      jump\t// in\n    tag_23:\n      mload(0x40)\n      tag_26\n      swap2\n      swap1\n      tag_27\n      jump\t// in\n    tag_26:\n      mload(0x40)\n      dup1\n      swap2\n      sub\n      swap1\n      return\n        /* \"contracts/sharing_digital_assets.sol\":266:287  Asset[] public assets */\n    tag_7:\n      tag_28\n      0x04\n      dup1\n      calldatasize\n      sub\n      dup2\n      add\n      swap1\n      tag_29\n      swap2\n      swap1\n      tag_30\n      jump\t// in\n    tag_29:\n      tag_31\n      jump\t// in\n    tag_28:\n      mload(0x40)\n      tag_32\n      swap3\n      swap2\n      swap1\n      tag_33\n      jump\t// in\n    tag_32:\n      mload(0x40)\n      dup1\n      swap2\n      sub\n      swap1\n      return\n        /* \"contracts/sharing_digital_assets.sol\":339:462  function createAsset(string memory symbol, uint256 totalSupply) public {\r... */\n    tag_8:\n      tag_34\n      0x04\n      dup1\n      calldatasize\n      sub\n      dup2\n      add\n      swap1\n      tag_35\n      swap2\n      swap1\n      tag_11\n      jump\t// in\n    tag_35:\n      tag_36\n      jump\t// in\n    tag_34:\n      stop\n        /* \"contracts/sharing_digital_assets.sol\":292:332  mapping(string => Order[]) public orders */\n    tag_12:\n      0x01\n      dup3\n      dup1\n      mload\n      0x20\n      dup2\n      add\n      dup3\n      add\n      dup1\n      mload\n      dup5\n      dup3\n      mstore\n      0x20\n      dup4\n      add\n      0x20\n      dup6\n      add\n      keccak256\n      dup2\n      dup4\n      mstore\n      dup1\n      swap6\n      pop\n      pop\n      pop\n      pop\n      pop\n      pop\n      dup2\n      dup2\n      sload\n      dup2\n      lt\n      tag_37\n      jumpi\n      0x00\n      dup1\n      revert\n    tag_37:\n      swap1\n      0x00\n      mstore\n      keccak256(0x00, 0x20)\n      swap1\n      0x04\n      mul\n      add\n      0x00\n      swap2\n      pop\n      swap2\n      pop\n      pop\n      dup1\n      0x00\n      add\n      sload\n      swap1\n      dup1\n      0x01\n      add\n      sload\n      swap1\n      dup1\n      0x02\n      add\n      0x00\n      swap1\n      sload\n      swap1\n      0x0100\n      exp\n      swap1\n      div\n      0xffffffffffffffffffffffffffffffffffffffff\n      and\n      swap1\n      dup1\n      0x03\n      add\n      0x00\n      swap1\n      sload\n      swap1\n      0x0100\n      exp\n      swap1\n      div\n      0xffffffffffffffffffffffffffffffffffffffff\n      and\n      swap1\n      pop\n      dup5\n      jump\t// out\n        /* \"contracts/sharing_digital_assets.sol\":1166:1935  function matchOrders(string memory symbol) public {\r... */\n    tag_18:\n        /* \"contracts/sharing_digital_assets.sol\":1228:1237  uint256 i */\n      0x00\n        /* \"contracts/sharing_digital_assets.sol\":1223:1930  for (uint256 i = 0; i < orders[symbol].length; i++) {\r... */\n    tag_40:\n        /* \"contracts/sharing_digital_assets.sol\":1247:1253  orders */\n      0x01\n        /* \"contracts/sharing_digital_assets.sol\":1254:1260  symbol */\n      dup3\n        /* \"contracts/sharing_digital_assets.sol\":1247:1261  orders[symbol] */\n      mload(0x40)\n      tag_43\n      swap2\n      swap1\n      tag_44\n      jump\t// in\n    tag_43:\n      swap1\n      dup2\n      mstore\n      0x20\n      add\n      mload(0x40)\n      dup1\n      swap2\n      sub\n      swap1\n      keccak256\n        /* \"contracts/sharing_digital_assets.sol\":1247:1268  orders[symbol].length */\n      dup1\n      sload\n      swap1\n      pop\n        /* \"contracts/sharing_digital_assets.sol\":1243:1244  i */\n      dup2\n        /* \"contracts/sharing_digital_assets.sol\":1243:1268  i < orders[symbol].length */\n      lt\n        /* \"contracts/sharing_digital_assets.sol\":1223:1930  for (uint256 i = 0; i < orders[symbol].length; i++) {\r... */\n      iszero\n      tag_41\n      jumpi\n        /* \"contracts/sharing_digital_assets.sol\":1284:1307  Order memory makerOrder */\n      0x00\n        /* \"contracts/sharing_digital_assets.sol\":1310:1316  orders */\n      0x01\n        /* \"contracts/sharing_digital_assets.sol\":1317:1323  symbol */\n      dup4\n        /* \"contracts/sharing_digital_assets.sol\":1310:1324  orders[symbol] */\n      mload(0x40)\n      tag_45\n      swap2\n      swap1\n      tag_44\n      jump\t// in\n    tag_45:\n      swap1\n      dup2\n      mstore\n      0x20\n      add\n      mload(0x40)\n      dup1\n      swap2\n      sub\n      swap1\n      keccak256\n        /* \"contracts/sharing_digital_assets.sol\":1325:1326  i */\n      dup3\n        /* \"contracts/sharing_digital_assets.sol\":1310:1327  orders[symbol][i] */\n      dup2\n      sload\n      dup2\n      lt\n      tag_46\n      jumpi\n      mstore(0x00, 0x4e487b7100000000000000000000000000000000000000000000000000000000)\n      mstore(0x04, 0x32)\n      revert(0x00, 0x24)\n    tag_46:\n      swap1\n      0x00\n      mstore\n      keccak256(0x00, 0x20)\n      swap1\n      0x04\n      mul\n      add\n        /* \"contracts/sharing_digital_assets.sol\":1284:1327  Order memory makerOrder = orders[symbol][i] */\n      mload(0x40)\n      dup1\n      0x80\n      add\n      0x40\n      mstore\n      swap1\n      dup2\n      0x00\n      dup3\n      add\n      sload\n      dup2\n      mstore\n      0x20\n      add\n      0x01\n      dup3\n      add\n      sload\n      dup2\n      mstore\n      0x20\n      add\n      0x02\n      dup3\n      add\n      0x00\n      swap1\n      sload\n      swap1\n      0x0100\n      exp\n      swap1\n      div\n      0xffffffffffffffffffffffffffffffffffffffff\n      and\n      0xffffffffffffffffffffffffffffffffffffffff\n      and\n      0xffffffffffffffffffffffffffffffffffffffff\n      and\n      dup2\n      mstore\n      0x20\n      add\n      0x03\n      dup3\n      add\n      0x00\n      swap1\n      sload\n      swap1\n      0x0100\n      exp\n      swap1\n      div\n      0xffffffffffffffffffffffffffffffffffffffff\n      and\n      0xffffffffffffffffffffffffffffffffffffffff\n      and\n      0xffffffffffffffffffffffffffffffffffffffff\n      and\n      dup2\n      mstore\n      pop\n      pop\n      swap1\n      pop\n        /* \"contracts/sharing_digital_assets.sol\":1343:1352  uint256 j */\n      0x00\n        /* \"contracts/sharing_digital_assets.sol\":1359:1360  1 */\n      0x01\n        /* \"contracts/sharing_digital_assets.sol\":1355:1356  i */\n      dup4\n        /* \"contracts/sharing_digital_assets.sol\":1355:1360  i + 1 */\n      tag_51\n      swap2\n      swap1\n      tag_52\n      jump\t// in\n    tag_51:\n        /* \"contracts/sharing_digital_assets.sol\":1343:1360  uint256 j = i + 1 */\n      swap1\n      pop\n        /* \"contracts/sharing_digital_assets.sol\":1338:1923  for (uint256 j = i + 1; j < orders[symbol].length; j++) {\r... */\n    tag_48:\n        /* \"contracts/sharing_digital_assets.sol\":1366:1372  orders */\n      0x01\n        /* \"contracts/sharing_digital_assets.sol\":1373:1379  symbol */\n      dup5\n        /* \"contracts/sharing_digital_assets.sol\":1366:1380  orders[symbol] */\n      mload(0x40)\n      tag_53\n      swap2\n      swap1\n      tag_44\n      jump\t// in\n    tag_53:\n      swap1\n      dup2\n      mstore\n      0x20\n      add\n      mload(0x40)\n      dup1\n      swap2\n      sub\n      swap1\n      keccak256\n        /* \"contracts/sharing_digital_assets.sol\":1366:1387  orders[symbol].length */\n      dup1\n      sload\n      swap1\n      pop\n        /* \"contracts/sharing_digital_assets.sol\":1362:1363  j */\n      dup2\n        /* \"contracts/sharing_digital_assets.sol\":1362:1387  j < orders[symbol].length */\n      lt\n        /* \"contracts/sharing_digital_assets.sol\":1338:1923  for (uint256 j = i + 1; j < orders[symbol].length; j++) {\r... */\n      iszero\n      tag_49\n      jumpi\n        /* \"contracts/sharing_digital_assets.sol\":1405:1428  Order memory takerOrder */\n      0x00\n        /* \"contracts/sharing_digital_assets.sol\":1431:1437  orders */\n      0x01\n        /* \"contracts/sharing_digital_assets.sol\":1438:1444  symbol */\n      dup6\n        /* \"contracts/sharing_digital_assets.sol\":1431:1445  orders[symbol] */\n      mload(0x40)\n      tag_54\n      swap2\n      swap1\n      tag_44\n      jump\t// in\n    tag_54:\n      swap1\n      dup2\n      mstore\n      0x20\n      add\n      mload(0x40)\n      dup1\n      swap2\n      sub\n      swap1\n      keccak256\n        /* \"contracts/sharing_digital_assets.sol\":1446:1447  j */\n      dup3\n        /* \"contracts/sharing_digital_assets.sol\":1431:1448  orders[symbol][j] */\n      dup2\n      sload\n      dup2\n      lt\n      tag_55\n      jumpi\n      mstore(0x00, 0x4e487b7100000000000000000000000000000000000000000000000000000000)\n      mstore(0x04, 0x32)\n      revert(0x00, 0x24)\n    tag_55:\n      swap1\n      0x00\n      mstore\n      keccak256(0x00, 0x20)\n      swap1\n      0x04\n      mul\n      add\n        /* \"contracts/sharing_digital_assets.sol\":1405:1448  Order memory takerOrder = orders[symbol][j] */\n      mload(0x40)\n      dup1\n      0x80\n      add\n      0x40\n      mstore\n      swap1\n      dup2\n      0x00\n      dup3\n      add\n      sload\n      dup2\n      mstore\n      0x20\n      add\n      0x01\n      dup3\n      add\n      sload\n      dup2\n      mstore\n      0x20\n      add\n      0x02\n      dup3\n      add\n      0x00\n      swap1\n      sload\n      swap1\n      0x0100\n      exp\n      swap1\n      div\n      0xffffffffffffffffffffffffffffffffffffffff\n      and\n      0xffffffffffffffffffffffffffffffffffffffff\n      and\n      0xffffffffffffffffffffffffffffffffffffffff\n      and\n      dup2\n      mstore\n      0x20\n      add\n      0x03\n      dup3\n      add\n      0x00\n      swap1\n      sload\n      swap1\n      0x0100\n      exp\n      swap1\n      div\n      0xffffffffffffffffffffffffffffffffffffffff\n      and\n      0xffffffffffffffffffffffffffffffffffffffff\n      and\n      0xffffffffffffffffffffffffffffffffffffffff\n      and\n      dup2\n      mstore\n      pop\n      pop\n      swap1\n      pop\n        /* \"contracts/sharing_digital_assets.sol\":1485:1495  takerOrder */\n      dup1\n        /* \"contracts/sharing_digital_assets.sol\":1485:1501  takerOrder.price */\n      0x00\n      add\n      mload\n        /* \"contracts/sharing_digital_assets.sol\":1465:1475  makerOrder */\n      dup4\n        /* \"contracts/sharing_digital_assets.sol\":1465:1481  makerOrder.price */\n      0x00\n      add\n      mload\n        /* \"contracts/sharing_digital_assets.sol\":1465:1501  makerOrder.price == takerOrder.price */\n      eq\n        /* \"contracts/sharing_digital_assets.sol\":1465:1543  makerOrder.price == takerOrder.price && makerOrder.amount <= takerOrder.amount */\n      dup1\n      iszero\n      tag_57\n      jumpi\n      pop\n        /* \"contracts/sharing_digital_assets.sol\":1526:1536  takerOrder */\n      dup1\n        /* \"contracts/sharing_digital_assets.sol\":1526:1543  takerOrder.amount */\n      0x20\n      add\n      mload\n        /* \"contracts/sharing_digital_assets.sol\":1505:1515  makerOrder */\n      dup4\n        /* \"contracts/sharing_digital_assets.sol\":1505:1522  makerOrder.amount */\n      0x20\n      add\n      mload\n        /* \"contracts/sharing_digital_assets.sol\":1505:1543  makerOrder.amount <= takerOrder.amount */\n      gt\n      iszero\n        /* \"contracts/sharing_digital_assets.sol\":1465:1543  makerOrder.price == takerOrder.price && makerOrder.amount <= takerOrder.amount */\n    tag_57:\n        /* \"contracts/sharing_digital_assets.sol\":1461:1914  if (makerOrder.price == takerOrder.price && makerOrder.amount <= takerOrder.amount) {\r... */\n      iszero\n      tag_58\n      jumpi\n        /* \"contracts/sharing_digital_assets.sol\":1578:1579  0 */\n      0x00\n        /* \"contracts/sharing_digital_assets.sol\":1558:1568  makerOrder */\n      dup4\n        /* \"contracts/sharing_digital_assets.sol\":1558:1575  makerOrder.amount */\n      0x20\n      add\n        /* \"contracts/sharing_digital_assets.sol\":1558:1579  makerOrder.amount = 0 */\n      dup2\n      dup2\n      mstore\n      pop\n      pop\n        /* \"contracts/sharing_digital_assets.sol\":1613:1623  makerOrder */\n      dup3\n        /* \"contracts/sharing_digital_assets.sol\":1613:1630  makerOrder.amount */\n      0x20\n      add\n      mload\n        /* \"contracts/sharing_digital_assets.sol\":1592:1602  takerOrder */\n      dup2\n        /* \"contracts/sharing_digital_assets.sol\":1592:1609  takerOrder.amount */\n      0x20\n      add\n        /* \"contracts/sharing_digital_assets.sol\":1592:1630  takerOrder.amount -= makerOrder.amount */\n      dup2\n      dup2\n      mload\n      tag_59\n      swap2\n      swap1\n      tag_60\n      jump\t// in\n    tag_59:\n      swap2\n      pop\n      dup2\n      dup2\n      mstore\n      pop\n      pop\n        /* \"contracts/sharing_digital_assets.sol\":1645:1663  uint256 assetIndex */\n      0x00\n        /* \"contracts/sharing_digital_assets.sol\":1666:1688  findAssetIndex(symbol) */\n      tag_61\n        /* \"contracts/sharing_digital_assets.sol\":1681:1687  symbol */\n      dup7\n        /* \"contracts/sharing_digital_assets.sol\":1666:1680  findAssetIndex */\n      tag_25\n        /* \"contracts/sharing_digital_assets.sol\":1666:1688  findAssetIndex(symbol) */\n      jump\t// in\n    tag_61:\n        /* \"contracts/sharing_digital_assets.sol\":1645:1688  uint256 assetIndex = findAssetIndex(symbol) */\n      swap1\n      pop\n        /* \"contracts/sharing_digital_assets.sol\":1735:1745  makerOrder */\n      dup4\n        /* \"contracts/sharing_digital_assets.sol\":1735:1752  makerOrder.amount */\n      0x20\n      add\n      mload\n        /* \"contracts/sharing_digital_assets.sol\":1701:1707  assets */\n      0x00\n        /* \"contracts/sharing_digital_assets.sol\":1708:1718  assetIndex */\n      dup3\n        /* \"contracts/sharing_digital_assets.sol\":1701:1719  assets[assetIndex] */\n      dup2\n      sload\n      dup2\n      lt\n      tag_62\n      jumpi\n      mstore(0x00, 0x4e487b7100000000000000000000000000000000000000000000000000000000)\n      mstore(0x04, 0x32)\n      revert(0x00, 0x24)\n    tag_62:\n      swap1\n      0x00\n      mstore\n      keccak256(0x00, 0x20)\n      swap1\n      0x02\n      mul\n      add\n        /* \"contracts/sharing_digital_assets.sol\":1701:1731  assets[assetIndex].totalSupply */\n      0x01\n      add\n      0x00\n        /* \"contracts/sharing_digital_assets.sol\":1701:1752  assets[assetIndex].totalSupply -= makerOrder.amount */\n      dup3\n      dup3\n      sload\n      tag_64\n      swap2\n      swap1\n      tag_60\n      jump\t// in\n    tag_64:\n      swap3\n      pop\n      pop\n      dup2\n      swap1\n      sstore\n      pop\n        /* \"contracts/sharing_digital_assets.sol\":1799:1809  takerOrder */\n      dup2\n        /* \"contracts/sharing_digital_assets.sol\":1799:1816  takerOrder.amount */\n      0x20\n      add\n      mload\n        /* \"contracts/sharing_digital_assets.sol\":1765:1771  assets */\n      0x00\n        /* \"contracts/sharing_digital_assets.sol\":1772:1782  assetIndex */\n      dup3\n        /* \"contracts/sharing_digital_assets.sol\":1765:1783  assets[assetIndex] */\n      dup2\n      sload\n      dup2\n      lt\n      tag_65\n      jumpi\n      mstore(0x00, 0x4e487b7100000000000000000000000000000000000000000000000000000000)\n      mstore(0x04, 0x32)\n      revert(0x00, 0x24)\n    tag_65:\n      swap1\n      0x00\n      mstore\n      keccak256(0x00, 0x20)\n      swap1\n      0x02\n      mul\n      add\n        /* \"contracts/sharing_digital_assets.sol\":1765:1795  assets[assetIndex].totalSupply */\n      0x01\n      add\n      0x00\n        /* \"contracts/sharing_digital_assets.sol\":1765:1816  assets[assetIndex].totalSupply += takerOrder.amount */\n      dup3\n      dup3\n      sload\n      tag_67\n      swap2\n      swap1\n      tag_52\n      jump\t// in\n    tag_67:\n      swap3\n      pop\n      pop\n      dup2\n      swap1\n      sstore\n      pop\n        /* \"contracts/sharing_digital_assets.sol\":1850:1860  msg.sender */\n      caller\n        /* \"contracts/sharing_digital_assets.sol\":1831:1841  makerOrder */\n      dup5\n        /* \"contracts/sharing_digital_assets.sol\":1831:1847  makerOrder.maker */\n      0x40\n      add\n        /* \"contracts/sharing_digital_assets.sol\":1831:1860  makerOrder.maker = msg.sender */\n      swap1\n      0xffffffffffffffffffffffffffffffffffffffff\n      and\n      swap1\n      dup2\n      0xffffffffffffffffffffffffffffffffffffffff\n      and\n      dup2\n      mstore\n      pop\n      pop\n        /* \"contracts/sharing_digital_assets.sol\":1892:1902  msg.sender */\n      caller\n        /* \"contracts/sharing_digital_assets.sol\":1873:1883  takerOrder */\n      dup3\n        /* \"contracts/sharing_digital_assets.sol\":1873:1889  takerOrder.taker */\n      0x60\n      add\n        /* \"contracts/sharing_digital_assets.sol\":1873:1902  takerOrder.taker = msg.sender */\n      swap1\n      0xffffffffffffffffffffffffffffffffffffffff\n      and\n      swap1\n      dup2\n      0xffffffffffffffffffffffffffffffffffffffff\n      and\n      dup2\n      mstore\n      pop\n      pop\n        /* \"contracts/sharing_digital_assets.sol\":1461:1914  if (makerOrder.price == takerOrder.price && makerOrder.amount <= takerOrder.amount) {\r... */\n      pop\n    tag_58:\n        /* \"contracts/sharing_digital_assets.sol\":1338:1923  for (uint256 j = i + 1; j < orders[symbol].length; j++) {\r... */\n      pop\n        /* \"contracts/sharing_digital_assets.sol\":1389:1392  j++ */\n      dup1\n      dup1\n      tag_68\n      swap1\n      tag_69\n      jump\t// in\n    tag_68:\n      swap2\n      pop\n      pop\n        /* \"contracts/sharing_digital_assets.sol\":1338:1923  for (uint256 j = i + 1; j < orders[symbol].length; j++) {\r... */\n      jump(tag_48)\n    tag_49:\n      pop\n        /* \"contracts/sharing_digital_assets.sol\":1223:1930  for (uint256 i = 0; i < orders[symbol].length; i++) {\r... */\n      pop\n        /* \"contracts/sharing_digital_assets.sol\":1270:1273  i++ */\n      dup1\n      dup1\n      tag_70\n      swap1\n      tag_69\n      jump\t// in\n    tag_70:\n      swap2\n      pop\n      pop\n        /* \"contracts/sharing_digital_assets.sol\":1223:1930  for (uint256 i = 0; i < orders[symbol].length; i++) {\r... */\n      jump(tag_40)\n    tag_41:\n      pop\n        /* \"contracts/sharing_digital_assets.sol\":1166:1935  function matchOrders(string memory symbol) public {\r... */\n      pop\n      jump\t// out\n        /* \"contracts/sharing_digital_assets.sol\":799:1160  function placeOrder(string memory symbol, uint256 price, uint256 amount) public {\r... */\n    tag_22:\n        /* \"contracts/sharing_digital_assets.sol\":886:904  uint256 assetIndex */\n      0x00\n        /* \"contracts/sharing_digital_assets.sol\":907:929  findAssetIndex(symbol) */\n      tag_72\n        /* \"contracts/sharing_digital_assets.sol\":922:928  symbol */\n      dup5\n        /* \"contracts/sharing_digital_assets.sol\":907:921  findAssetIndex */\n      tag_25\n        /* \"contracts/sharing_digital_assets.sol\":907:929  findAssetIndex(symbol) */\n      jump\t// in\n    tag_72:\n        /* \"contracts/sharing_digital_assets.sol\":886:929  uint256 assetIndex = findAssetIndex(symbol) */\n      swap1\n      pop\n        /* \"contracts/sharing_digital_assets.sol\":958:975  type(uint256).max */\n      0xffffffffffffffffffffffffffffffffffffffffffffffffffffffffffffffff\n        /* \"contracts/sharing_digital_assets.sol\":944:954  assetIndex */\n      dup2\n        /* \"contracts/sharing_digital_assets.sol\":944:975  assetIndex != type(uint256).max */\n      eq\n      iszero\n        /* \"contracts/sharing_digital_assets.sol\":936:995  require(assetIndex != type(uint256).max, \"Asset not found\") */\n      tag_73\n      jumpi\n      mload(0x40)\n      0x08c379a000000000000000000000000000000000000000000000000000000000\n      dup2\n      mstore\n      0x04\n      add\n      tag_74\n      swap1\n      tag_75\n      jump\t// in\n    tag_74:\n      mload(0x40)\n      dup1\n      swap2\n      sub\n      swap1\n      revert\n    tag_73:\n        /* \"contracts/sharing_digital_assets.sol\":1044:1050  amount */\n      dup2\n        /* \"contracts/sharing_digital_assets.sol\":1010:1016  assets */\n      0x00\n        /* \"contracts/sharing_digital_assets.sol\":1017:1027  assetIndex */\n      dup3\n        /* \"contracts/sharing_digital_assets.sol\":1010:1028  assets[assetIndex] */\n      dup2\n      sload\n      dup2\n      lt\n      tag_76\n      jumpi\n      mstore(0x00, 0x4e487b7100000000000000000000000000000000000000000000000000000000)\n      mstore(0x04, 0x32)\n      revert(0x00, 0x24)\n    tag_76:\n      swap1\n      0x00\n      mstore\n      keccak256(0x00, 0x20)\n      swap1\n      0x02\n      mul\n      add\n        /* \"contracts/sharing_digital_assets.sol\":1010:1040  assets[assetIndex].totalSupply */\n      0x01\n      add\n      sload\n        /* \"contracts/sharing_digital_assets.sol\":1010:1050  assets[assetIndex].totalSupply >= amount */\n      lt\n      iszero\n        /* \"contracts/sharing_digital_assets.sol\":1002:1080  require(assets[assetIndex].totalSupply >= amount, \"Insufficient asset supply\") */\n      tag_78\n      jumpi\n      mload(0x40)\n      0x08c379a000000000000000000000000000000000000000000000000000000000\n      dup2\n      mstore\n      0x04\n      add\n      tag_79\n      swap1\n      tag_80\n      jump\t// in\n    tag_79:\n      mload(0x40)\n      dup1\n      swap2\n      sub\n      swap1\n      revert\n    tag_78:\n        /* \"contracts/sharing_digital_assets.sol\":1089:1095  orders */\n      0x01\n        /* \"contracts/sharing_digital_assets.sol\":1096:1102  symbol */\n      dup5\n        /* \"contracts/sharing_digital_assets.sol\":1089:1103  orders[symbol] */\n      mload(0x40)\n      tag_81\n      swap2\n      swap1\n      tag_44\n      jump\t// in\n    tag_81:\n      swap1\n      dup2\n      mstore\n      0x20\n      add\n      mload(0x40)\n      dup1\n      swap2\n      sub\n      swap1\n      keccak256\n        /* \"contracts/sharing_digital_assets.sol\":1109:1153  Order(price, amount, msg.sender, address(0)) */\n      mload(0x40)\n      dup1\n      0x80\n      add\n      0x40\n      mstore\n      dup1\n        /* \"contracts/sharing_digital_assets.sol\":1115:1120  price */\n      dup6\n        /* \"contracts/sharing_digital_assets.sol\":1109:1153  Order(price, amount, msg.sender, address(0)) */\n      dup2\n      mstore\n      0x20\n      add\n        /* \"contracts/sharing_digital_assets.sol\":1122:1128  amount */\n      dup5\n        /* \"contracts/sharing_digital_assets.sol\":1109:1153  Order(price, amount, msg.sender, address(0)) */\n      dup2\n      mstore\n      0x20\n      add\n        /* \"contracts/sharing_digital_assets.sol\":1130:1140  msg.sender */\n      caller\n        /* \"contracts/sharing_digital_assets.sol\":1109:1153  Order(price, amount, msg.sender, address(0)) */\n      0xffffffffffffffffffffffffffffffffffffffff\n      and\n      dup2\n      mstore\n      0x20\n      add\n        /* \"contracts/sharing_digital_assets.sol\":1150:1151  0 */\n      0x00\n        /* \"contracts/sharing_digital_assets.sol\":1109:1153  Order(price, amount, msg.sender, address(0)) */\n      0xffffffffffffffffffffffffffffffffffffffff\n      and\n      dup2\n      mstore\n      pop\n        /* \"contracts/sharing_digital_assets.sol\":1089:1154  orders[symbol].push(Order(price, amount, msg.sender, address(0))) */\n      swap1\n      dup1\n      0x01\n      dup2\n      sload\n      add\n      dup1\n      dup3\n      sstore\n      dup1\n      swap2\n      pop\n      pop\n      0x01\n      swap1\n      sub\n      swap1\n      0x00\n      mstore\n      keccak256(0x00, 0x20)\n      swap1\n      0x04\n      mul\n      add\n      0x00\n      swap1\n      swap2\n      swap1\n      swap2\n      swap1\n      swap2\n      pop\n      0x00\n      dup3\n      add\n      mload\n      dup2\n      0x00\n      add\n      sstore\n      0x20\n      dup3\n      add\n      mload\n      dup2\n      0x01\n      add\n      sstore\n      0x40\n      dup3\n      add\n      mload\n      dup2\n      0x02\n      add\n      exp(0x0100, 0x00)\n      dup2\n      sload\n      dup2\n      0xffffffffffffffffffffffffffffffffffffffff\n      mul\n      not\n      and\n      swap1\n      dup4\n      0xffffffffffffffffffffffffffffffffffffffff\n      and\n      mul\n      or\n      swap1\n      sstore\n      pop\n      0x60\n      dup3\n      add\n      mload\n      dup2\n      0x03\n      add\n      exp(0x0100, 0x00)\n      dup2\n      sload\n      dup2\n      0xffffffffffffffffffffffffffffffffffffffff\n      mul\n      not\n      and\n      swap1\n      dup4\n      0xffffffffffffffffffffffffffffffffffffffff\n      and\n      mul\n      or\n      swap1\n      sstore\n      pop\n      pop\n      pop\n        /* \"contracts/sharing_digital_assets.sol\":799:1160  function placeOrder(string memory symbol, uint256 price, uint256 amount) public {\r... */\n      pop\n      pop\n      pop\n      pop\n      jump\t// out\n        /* \"contracts/sharing_digital_assets.sol\":468:793  function findAssetIndex(string memory symbol) public view returns (uint256) {\r... */\n    tag_25:\n        /* \"contracts/sharing_digital_assets.sol\":535:542  uint256 */\n      0x00\n        /* \"contracts/sharing_digital_assets.sol\":556:565  uint256 i */\n      dup1\n        /* \"contracts/sharing_digital_assets.sol\":568:569  0 */\n      0x00\n        /* \"contracts/sharing_digital_assets.sol\":556:569  uint256 i = 0 */\n      swap1\n      pop\n        /* \"contracts/sharing_digital_assets.sol\":551:730  for (uint256 i = 0; i < assets.length; i++) {\r... */\n    tag_84:\n        /* \"contracts/sharing_digital_assets.sol\":575:581  assets */\n      0x00\n        /* \"contracts/sharing_digital_assets.sol\":575:588  assets.length */\n      dup1\n      sload\n      swap1\n      pop\n        /* \"contracts/sharing_digital_assets.sol\":571:572  i */\n      dup2\n        /* \"contracts/sharing_digital_assets.sol\":571:588  i < assets.length */\n      lt\n        /* \"contracts/sharing_digital_assets.sol\":551:730  for (uint256 i = 0; i < assets.length; i++) {\r... */\n      iszero\n      tag_85\n      jumpi\n        /* \"contracts/sharing_digital_assets.sol\":684:690  symbol */\n      dup3\n        /* \"contracts/sharing_digital_assets.sol\":667:691  abi.encodePacked(symbol) */\n      add(0x20, mload(0x40))\n      tag_87\n      swap2\n      swap1\n      tag_44\n      jump\t// in\n    tag_87:\n      mload(0x40)\n      0x20\n      dup2\n      dup4\n      sub\n      sub\n      dup2\n      mstore\n      swap1\n      0x40\n      mstore\n        /* \"contracts/sharing_digital_assets.sol\":657:692  keccak256(abi.encodePacked(symbol)) */\n      dup1\n      mload\n      swap1\n      0x20\n      add\n      keccak256\n        /* \"contracts/sharing_digital_assets.sol\":635:641  assets */\n      0x00\n        /* \"contracts/sharing_digital_assets.sol\":642:643  i */\n      dup3\n        /* \"contracts/sharing_digital_assets.sol\":635:644  assets[i] */\n      dup2\n      sload\n      dup2\n      lt\n      tag_88\n      jumpi\n      mstore(0x00, 0x4e487b7100000000000000000000000000000000000000000000000000000000)\n      mstore(0x04, 0x32)\n      revert(0x00, 0x24)\n    tag_88:\n      swap1\n      0x00\n      mstore\n      keccak256(0x00, 0x20)\n      swap1\n      0x02\n      mul\n      add\n        /* \"contracts/sharing_digital_assets.sol\":635:651  assets[i].symbol */\n      0x00\n      add\n        /* \"contracts/sharing_digital_assets.sol\":618:652  abi.encodePacked(assets[i].symbol) */\n      add(0x20, mload(0x40))\n      tag_90\n      swap2\n      swap1\n      tag_91\n      jump\t// in\n    tag_90:\n      mload(0x40)\n      0x20\n      dup2\n      dup4\n      sub\n      sub\n      dup2\n      mstore\n      swap1\n      0x40\n      mstore\n        /* \"contracts/sharing_digital_assets.sol\":608:653  keccak256(abi.encodePacked(assets[i].symbol)) */\n      dup1\n      mload\n      swap1\n      0x20\n      add\n      keccak256\n        /* \"contracts/sharing_digital_assets.sol\":608:692  keccak256(abi.encodePacked(assets[i].symbol)) == keccak256(abi.encodePacked(symbol)) */\n      eq\n        /* \"contracts/sharing_digital_assets.sol\":604:723  if (keccak256(abi.encodePacked(assets[i].symbol)) == keccak256(abi.encodePacked(symbol))) {\r... */\n      iszero\n      tag_92\n      jumpi\n        /* \"contracts/sharing_digital_assets.sol\":712:713  i */\n      dup1\n        /* \"contracts/sharing_digital_assets.sol\":705:713  return i */\n      swap2\n      pop\n      pop\n      jump(tag_83)\n        /* \"contracts/sharing_digital_assets.sol\":604:723  if (keccak256(abi.encodePacked(assets[i].symbol)) == keccak256(abi.encodePacked(symbol))) {\r... */\n    tag_92:\n        /* \"contracts/sharing_digital_assets.sol\":590:593  i++ */\n      dup1\n      dup1\n      tag_93\n      swap1\n      tag_69\n      jump\t// in\n    tag_93:\n      swap2\n      pop\n      pop\n        /* \"contracts/sharing_digital_assets.sol\":551:730  for (uint256 i = 0; i < assets.length; i++) {\r... */\n      jump(tag_84)\n    tag_85:\n      pop\n        /* \"contracts/sharing_digital_assets.sol\":745:762  type(uint256).max */\n      0xffffffffffffffffffffffffffffffffffffffffffffffffffffffffffffffff\n        /* \"contracts/sharing_digital_assets.sol\":738:762  return type(uint256).max */\n      swap1\n      pop\n        /* \"contracts/sharing_digital_assets.sol\":468:793  function findAssetIndex(string memory symbol) public view returns (uint256) {\r... */\n    tag_83:\n      swap2\n      swap1\n      pop\n      jump\t// out\n        /* \"contracts/sharing_digital_assets.sol\":266:287  Asset[] public assets */\n    tag_31:\n      0x00\n      dup2\n      dup2\n      sload\n      dup2\n      lt\n      tag_94\n      jumpi\n      0x00\n      dup1\n      revert\n    tag_94:\n      swap1\n      0x00\n      mstore\n      keccak256(0x00, 0x20)\n      swap1\n      0x02\n      mul\n      add\n      0x00\n      swap2\n      pop\n      swap1\n      pop\n      dup1\n      0x00\n      add\n      dup1\n      sload\n      tag_96\n      swap1\n      tag_97\n      jump\t// in\n    tag_96:\n      dup1\n      0x1f\n      add\n      0x20\n      dup1\n      swap2\n      div\n      mul\n      0x20\n      add\n      mload(0x40)\n      swap1\n      dup2\n      add\n      0x40\n      mstore\n      dup1\n      swap3\n      swap2\n      swap1\n      dup2\n      dup2\n      mstore\n      0x20\n      add\n      dup3\n      dup1\n      sload\n      tag_98\n      swap1\n      tag_97\n      jump\t// in\n    tag_98:\n      dup1\n      iszero\n      tag_99\n      jumpi\n      dup1\n      0x1f\n      lt\n      tag_100\n      jumpi\n      0x0100\n      dup1\n      dup4\n      sload\n      div\n      mul\n      dup4\n      mstore\n      swap2\n      0x20\n      add\n      swap2\n      jump(tag_99)\n    tag_100:\n      dup3\n      add\n      swap2\n      swap1\n      0x00\n      mstore\n      keccak256(0x00, 0x20)\n      swap1\n    tag_101:\n      dup2\n      sload\n      dup2\n      mstore\n      swap1\n      0x01\n      add\n      swap1\n      0x20\n      add\n      dup1\n      dup4\n      gt\n      tag_101\n      jumpi\n      dup3\n      swap1\n      sub\n      0x1f\n      and\n      dup3\n      add\n      swap2\n    tag_99:\n      pop\n      pop\n      pop\n      pop\n      pop\n      swap1\n      dup1\n      0x01\n      add\n      sload\n      swap1\n      pop\n      dup3\n      jump\t// out\n        /* \"contracts/sharing_digital_assets.sol\":339:462  function createAsset(string memory symbol, uint256 totalSupply) public {\r... */\n    tag_36:\n        /* \"contracts/sharing_digital_assets.sol\":417:423  assets */\n      0x00\n        /* \"contracts/sharing_digital_assets.sol\":429:455  Asset(symbol, totalSupply) */\n      mload(0x40)\n      dup1\n      0x40\n      add\n      0x40\n      mstore\n      dup1\n        /* \"contracts/sharing_digital_assets.sol\":435:441  symbol */\n      dup5\n        /* \"contracts/sharing_digital_assets.sol\":429:455  Asset(symbol, totalSupply) */\n      dup2\n      mstore\n      0x20\n      add\n        /* \"contracts/sharing_digital_assets.sol\":443:454  totalSupply */\n      dup4\n        /* \"contracts/sharing_digital_assets.sol\":429:455  Asset(symbol, totalSupply) */\n      dup2\n      mstore\n      pop\n        /* \"contracts/sharing_digital_assets.sol\":417:456  assets.push(Asset(symbol, totalSupply)) */\n      swap1\n      dup1\n      0x01\n      dup2\n      sload\n      add\n      dup1\n      dup3\n      sstore\n      dup1\n      swap2\n      pop\n      pop\n      0x01\n      swap1\n      sub\n      swap1\n      0x00\n      mstore\n      keccak256(0x00, 0x20)\n      swap1\n      0x02\n      mul\n      add\n      0x00\n      swap1\n      swap2\n      swap1\n      swap2\n      swap1\n      swap2\n      pop\n      0x00\n      dup3\n      add\n      mload\n      dup2\n      0x00\n      add\n      swap1\n      dup1\n      mload\n      swap1\n      0x20\n      add\n      swap1\n      tag_104\n      swap3\n      swap2\n      swap1\n      tag_105\n      jump\t// in\n    tag_104:\n      pop\n      0x20\n      dup3\n      add\n      mload\n      dup2\n      0x01\n      add\n      sstore\n      pop\n      pop\n        /* \"contracts/sharing_digital_assets.sol\":339:462  function createAsset(string memory symbol, uint256 totalSupply) public {\r... */\n      pop\n      pop\n      jump\t// out\n    tag_105:\n      dup3\n      dup1\n      sload\n      tag_106\n      swap1\n      tag_97\n      jump\t// in\n    tag_106:\n      swap1\n      0x00\n      mstore\n      keccak256(0x00, 0x20)\n      swap1\n      0x1f\n      add\n      0x20\n      swap1\n      div\n      dup2\n      add\n      swap3\n      dup3\n      tag_108\n      jumpi\n      0x00\n      dup6\n      sstore\n      jump(tag_107)\n    tag_108:\n      dup3\n      0x1f\n      lt\n      tag_109\n      jumpi\n      dup1\n      mload\n      not(0xff)\n      and\n      dup4\n      dup1\n      add\n      or\n      dup6\n      sstore\n      jump(tag_107)\n    tag_109:\n      dup3\n      dup1\n      add\n      0x01\n      add\n      dup6\n      sstore\n      dup3\n      iszero\n      tag_107\n      jumpi\n      swap2\n      dup3\n      add\n    tag_110:\n      dup3\n      dup2\n      gt\n      iszero\n      tag_111\n      jumpi\n      dup3\n      mload\n      dup3\n      sstore\n      swap2\n      0x20\n      add\n      swap2\n      swap1\n      0x01\n      add\n      swap1\n      jump(tag_110)\n    tag_111:\n    tag_107:\n      pop\n      swap1\n      pop\n      tag_112\n      swap2\n      swap1\n      tag_113\n      jump\t// in\n    tag_112:\n      pop\n      swap1\n      jump\t// out\n    tag_113:\n    tag_114:\n      dup1\n      dup3\n      gt\n      iszero\n      tag_115\n      jumpi\n      0x00\n      dup2\n      0x00\n      swap1\n      sstore\n      pop\n      0x01\n      add\n      jump(tag_114)\n    tag_115:\n      pop\n      swap1\n      jump\t// out\n        /* \"#utility.yul\":7:351   */\n    tag_117:\n      0x00\n        /* \"#utility.yul\":110:175   */\n      tag_119\n        /* \"#utility.yul\":125:174   */\n      tag_120\n        /* \"#utility.yul\":167:173   */\n      dup5\n        /* \"#utility.yul\":125:174   */\n      tag_121\n      jump\t// in\n    tag_120:\n        /* \"#utility.yul\":110:175   */\n      tag_122\n      jump\t// in\n    tag_119:\n        /* \"#utility.yul\":101:175   */\n      swap1\n      pop\n        /* \"#utility.yul\":198:204   */\n      dup3\n        /* \"#utility.yul\":191:196   */\n      dup2\n        /* \"#utility.yul\":184:205   */\n      mstore\n        /* \"#utility.yul\":236:240   */\n      0x20\n        /* \"#utility.yul\":229:234   */\n      dup2\n        /* \"#utility.yul\":225:241   */\n      add\n        /* \"#utility.yul\":274:277   */\n      dup5\n        /* \"#utility.yul\":265:271   */\n      dup5\n        /* \"#utility.yul\":260:263   */\n      dup5\n        /* \"#utility.yul\":256:272   */\n      add\n        /* \"#utility.yul\":253:278   */\n      gt\n        /* \"#utility.yul\":250:252   */\n      iszero\n      tag_123\n      jumpi\n        /* \"#utility.yul\":291:292   */\n      0x00\n        /* \"#utility.yul\":288:289   */\n      dup1\n        /* \"#utility.yul\":281:293   */\n      revert\n        /* \"#utility.yul\":250:252   */\n    tag_123:\n        /* \"#utility.yul\":304:345   */\n      tag_124\n        /* \"#utility.yul\":338:344   */\n      dup5\n        /* \"#utility.yul\":333:336   */\n      dup3\n        /* \"#utility.yul\":328:331   */\n      dup6\n        /* \"#utility.yul\":304:345   */\n      tag_125\n      jump\t// in\n    tag_124:\n        /* \"#utility.yul\":91:351   */\n      pop\n      swap4\n      swap3\n      pop\n      pop\n      pop\n      jump\t// out\n        /* \"#utility.yul\":371:644   */\n    tag_126:\n      0x00\n        /* \"#utility.yul\":476:479   */\n      dup3\n        /* \"#utility.yul\":469:473   */\n      0x1f\n        /* \"#utility.yul\":461:467   */\n      dup4\n        /* \"#utility.yul\":457:474   */\n      add\n        /* \"#utility.yul\":453:480   */\n      slt\n        /* \"#utility.yul\":443:445   */\n      tag_128\n      jumpi\n        /* \"#utility.yul\":494:495   */\n      0x00\n        /* \"#utility.yul\":491:492   */\n      dup1\n        /* \"#utility.yul\":484:496   */\n      revert\n        /* \"#utility.yul\":443:445   */\n    tag_128:\n        /* \"#utility.yul\":534:540   */\n      dup2\n        /* \"#utility.yul\":521:541   */\n      calldataload\n        /* \"#utility.yul\":559:638   */\n      tag_129\n        /* \"#utility.yul\":634:637   */\n      dup5\n        /* \"#utility.yul\":626:632   */\n      dup3\n        /* \"#utility.yul\":619:623   */\n      0x20\n        /* \"#utility.yul\":611:617   */\n      dup7\n        /* \"#utility.yul\":607:624   */\n      add\n        /* \"#utility.yul\":559:638   */\n      tag_117\n      jump\t// in\n    tag_129:\n        /* \"#utility.yul\":550:638   */\n      swap2\n      pop\n        /* \"#utility.yul\":433:644   */\n      pop\n      swap3\n      swap2\n      pop\n      pop\n      jump\t// out\n        /* \"#utility.yul\":650:789   */\n    tag_130:\n      0x00\n        /* \"#utility.yul\":734:740   */\n      dup2\n        /* \"#utility.yul\":721:741   */\n      calldataload\n        /* \"#utility.yul\":712:741   */\n      swap1\n      pop\n        /* \"#utility.yul\":750:783   */\n      tag_132\n        /* \"#utility.yul\":777:782   */\n      dup2\n        /* \"#utility.yul\":750:783   */\n      tag_133\n      jump\t// in\n    tag_132:\n        /* \"#utility.yul\":702:789   */\n      swap3\n      swap2\n      pop\n      pop\n      jump\t// out\n        /* \"#utility.yul\":795:1170   */\n    tag_17:\n      0x00\n        /* \"#utility.yul\":913:915   */\n      0x20\n        /* \"#utility.yul\":901:910   */\n      dup3\n        /* \"#utility.yul\":892:899   */\n      dup5\n        /* \"#utility.yul\":888:911   */\n      sub\n        /* \"#utility.yul\":884:916   */\n      slt\n        /* \"#utility.yul\":881:883   */\n      iszero\n      tag_135\n      jumpi\n        /* \"#utility.yul\":929:930   */\n      0x00\n        /* \"#utility.yul\":926:927   */\n      dup1\n        /* \"#utility.yul\":919:931   */\n      revert\n        /* \"#utility.yul\":881:883   */\n    tag_135:\n        /* \"#utility.yul\":1000:1001   */\n      0x00\n        /* \"#utility.yul\":989:998   */\n      dup3\n        /* \"#utility.yul\":985:1002   */\n      add\n        /* \"#utility.yul\":972:1003   */\n      calldataload\n        /* \"#utility.yul\":1030:1048   */\n      0xffffffffffffffff\n        /* \"#utility.yul\":1022:1028   */\n      dup2\n        /* \"#utility.yul\":1019:1049   */\n      gt\n        /* \"#utility.yul\":1016:1018   */\n      iszero\n      tag_136\n      jumpi\n        /* \"#utility.yul\":1062:1063   */\n      0x00\n        /* \"#utility.yul\":1059:1060   */\n      dup1\n        /* \"#utility.yul\":1052:1064   */\n      revert\n        /* \"#utility.yul\":1016:1018   */\n    tag_136:\n        /* \"#utility.yul\":1090:1153   */\n      tag_137\n        /* \"#utility.yul\":1145:1152   */\n      dup5\n        /* \"#utility.yul\":1136:1142   */\n      dup3\n        /* \"#utility.yul\":1125:1134   */\n      dup6\n        /* \"#utility.yul\":1121:1143   */\n      add\n        /* \"#utility.yul\":1090:1153   */\n      tag_126\n      jump\t// in\n    tag_137:\n        /* \"#utility.yul\":1080:1153   */\n      swap2\n      pop\n        /* \"#utility.yul\":943:1163   */\n      pop\n        /* \"#utility.yul\":871:1170   */\n      swap3\n      swap2\n      pop\n      pop\n      jump\t// out\n        /* \"#utility.yul\":1176:1696   */\n    tag_11:\n      0x00\n      dup1\n        /* \"#utility.yul\":1311:1313   */\n      0x40\n        /* \"#utility.yul\":1299:1308   */\n      dup4\n        /* \"#utility.yul\":1290:1297   */\n      dup6\n        /* \"#utility.yul\":1286:1309   */\n      sub\n        /* \"#utility.yul\":1282:1314   */\n      slt\n        /* \"#utility.yul\":1279:1281   */\n      iszero\n      tag_139\n      jumpi\n        /* \"#utility.yul\":1327:1328   */\n      0x00\n        /* \"#utility.yul\":1324:1325   */\n      dup1\n        /* \"#utility.yul\":1317:1329   */\n      revert\n        /* \"#utility.yul\":1279:1281   */\n    tag_139:\n        /* \"#utility.yul\":1398:1399   */\n      0x00\n        /* \"#utility.yul\":1387:1396   */\n      dup4\n        /* \"#utility.yul\":1383:1400   */\n      add\n        /* \"#utility.yul\":1370:1401   */\n      calldataload\n        /* \"#utility.yul\":1428:1446   */\n      0xffffffffffffffff\n        /* \"#utility.yul\":1420:1426   */\n      dup2\n        /* \"#utility.yul\":1417:1447   */\n      gt\n        /* \"#utility.yul\":1414:1416   */\n      iszero\n      tag_140\n      jumpi\n        /* \"#utility.yul\":1460:1461   */\n      0x00\n        /* \"#utility.yul\":1457:1458   */\n      dup1\n        /* \"#utility.yul\":1450:1462   */\n      revert\n        /* \"#utility.yul\":1414:1416   */\n    tag_140:\n        /* \"#utility.yul\":1488:1551   */\n      tag_141\n        /* \"#utility.yul\":1543:1550   */\n      dup6\n        /* \"#utility.yul\":1534:1540   */\n      dup3\n        /* \"#utility.yul\":1523:1532   */\n      dup7\n        /* \"#utility.yul\":1519:1541   */\n      add\n        /* \"#utility.yul\":1488:1551   */\n      tag_126\n      jump\t// in\n    tag_141:\n        /* \"#utility.yul\":1478:1551   */\n      swap3\n      pop\n        /* \"#utility.yul\":1341:1561   */\n      pop\n        /* \"#utility.yul\":1600:1602   */\n      0x20\n        /* \"#utility.yul\":1626:1679   */\n      tag_142\n        /* \"#utility.yul\":1671:1678   */\n      dup6\n        /* \"#utility.yul\":1662:1668   */\n      dup3\n        /* \"#utility.yul\":1651:1660   */\n      dup7\n        /* \"#utility.yul\":1647:1669   */\n      add\n        /* \"#utility.yul\":1626:1679   */\n      tag_130\n      jump\t// in\n    tag_142:\n        /* \"#utility.yul\":1616:1679   */\n      swap2\n      pop\n        /* \"#utility.yul\":1571:1689   */\n      pop\n        /* \"#utility.yul\":1269:1696   */\n      swap3\n      pop\n      swap3\n      swap1\n      pop\n      jump\t// out\n        /* \"#utility.yul\":1702:2367   */\n    tag_21:\n      0x00\n      dup1\n      0x00\n        /* \"#utility.yul\":1854:1856   */\n      0x60\n        /* \"#utility.yul\":1842:1851   */\n      dup5\n        /* \"#utility.yul\":1833:1840   */\n      dup7\n        /* \"#utility.yul\":1829:1852   */\n      sub\n        /* \"#utility.yul\":1825:1857   */\n      slt\n        /* \"#utility.yul\":1822:1824   */\n      iszero\n      tag_144\n      jumpi\n        /* \"#utility.yul\":1870:1871   */\n      0x00\n        /* \"#utility.yul\":1867:1868   */\n      dup1\n        /* \"#utility.yul\":1860:1872   */\n      revert\n        /* \"#utility.yul\":1822:1824   */\n    tag_144:\n        /* \"#utility.yul\":1941:1942   */\n      0x00\n        /* \"#utility.yul\":1930:1939   */\n      dup5\n        /* \"#utility.yul\":1926:1943   */\n      add\n        /* \"#utility.yul\":1913:1944   */\n      calldataload\n        /* \"#utility.yul\":1971:1989   */\n      0xffffffffffffffff\n        /* \"#utility.yul\":1963:1969   */\n      dup2\n        /* \"#utility.yul\":1960:1990   */\n      gt\n        /* \"#utility.yul\":1957:1959   */\n      iszero\n      tag_145\n      jumpi\n        /* \"#utility.yul\":2003:2004   */\n      0x00\n        /* \"#utility.yul\":2000:2001   */\n      dup1\n        /* \"#utility.yul\":1993:2005   */\n      revert\n        /* \"#utility.yul\":1957:1959   */\n    tag_145:\n        /* \"#utility.yul\":2031:2094   */\n      tag_146\n        /* \"#utility.yul\":2086:2093   */\n      dup7\n        /* \"#utility.yul\":2077:2083   */\n      dup3\n        /* \"#utility.yul\":2066:2075   */\n      dup8\n        /* \"#utility.yul\":2062:2084   */\n      add\n        /* \"#utility.yul\":2031:2094   */\n      tag_126\n      jump\t// in\n    tag_146:\n        /* \"#utility.yul\":2021:2094   */\n      swap4\n      pop\n        /* \"#utility.yul\":1884:2104   */\n      pop\n        /* \"#utility.yul\":2143:2145   */\n      0x20\n        /* \"#utility.yul\":2169:2222   */\n      tag_147\n        /* \"#utility.yul\":2214:2221   */\n      dup7\n        /* \"#utility.yul\":2205:2211   */\n      dup3\n        /* \"#utility.yul\":2194:2203   */\n      dup8\n        /* \"#utility.yul\":2190:2212   */\n      add\n        /* \"#utility.yul\":2169:2222   */\n      tag_130\n      jump\t// in\n    tag_147:\n        /* \"#utility.yul\":2159:2222   */\n      swap3\n      pop\n        /* \"#utility.yul\":2114:2232   */\n      pop\n        /* \"#utility.yul\":2271:2273   */\n      0x40\n        /* \"#utility.yul\":2297:2350   */\n      tag_148\n        /* \"#utility.yul\":2342:2349   */\n      dup7\n        /* \"#utility.yul\":2333:2339   */\n      dup3\n        /* \"#utility.yul\":2322:2331   */\n      dup8\n        /* \"#utility.yul\":2318:2340   */\n      add\n        /* \"#utility.yul\":2297:2350   */\n      tag_130\n      jump\t// in\n    tag_148:\n        /* \"#utility.yul\":2287:2350   */\n      swap2\n      pop\n        /* \"#utility.yul\":2242:2360   */\n      pop\n        /* \"#utility.yul\":1812:2367   */\n      swap3\n      pop\n      swap3\n      pop\n      swap3\n      jump\t// out\n        /* \"#utility.yul\":2373:2635   */\n    tag_30:\n      0x00\n        /* \"#utility.yul\":2481:2483   */\n      0x20\n        /* \"#utility.yul\":2469:2478   */\n      dup3\n        /* \"#utility.yul\":2460:2467   */\n      dup5\n        /* \"#utility.yul\":2456:2479   */\n      sub\n        /* \"#utility.yul\":2452:2484   */\n      slt\n        /* \"#utility.yul\":2449:2451   */\n      iszero\n      tag_150\n      jumpi\n        /* \"#utility.yul\":2497:2498   */\n      0x00\n        /* \"#utility.yul\":2494:2495   */\n      dup1\n        /* \"#utility.yul\":2487:2499   */\n      revert\n        /* \"#utility.yul\":2449:2451   */\n    tag_150:\n        /* \"#utility.yul\":2540:2541   */\n      0x00\n        /* \"#utility.yul\":2565:2618   */\n      tag_151\n        /* \"#utility.yul\":2610:2617   */\n      dup5\n        /* \"#utility.yul\":2601:2607   */\n      dup3\n        /* \"#utility.yul\":2590:2599   */\n      dup6\n        /* \"#utility.yul\":2586:2608   */\n      add\n        /* \"#utility.yul\":2565:2618   */\n      tag_130\n      jump\t// in\n    tag_151:\n        /* \"#utility.yul\":2555:2618   */\n      swap2\n      pop\n        /* \"#utility.yul\":2511:2628   */\n      pop\n        /* \"#utility.yul\":2439:2635   */\n      swap3\n      swap2\n      pop\n      pop\n      jump\t// out\n        /* \"#utility.yul\":2641:2759   */\n    tag_152:\n        /* \"#utility.yul\":2728:2752   */\n      tag_154\n        /* \"#utility.yul\":2746:2751   */\n      dup2\n        /* \"#utility.yul\":2728:2752   */\n      tag_155\n      jump\t// in\n    tag_154:\n        /* \"#utility.yul\":2723:2726   */\n      dup3\n        /* \"#utility.yul\":2716:2753   */\n      mstore\n        /* \"#utility.yul\":2706:2759   */\n      pop\n      pop\n      jump\t// out\n        /* \"#utility.yul\":2765:3129   */\n    tag_156:\n      0x00\n        /* \"#utility.yul\":2881:2920   */\n      tag_158\n        /* \"#utility.yul\":2914:2919   */\n      dup3\n        /* \"#utility.yul\":2881:2920   */\n      tag_159\n      jump\t// in\n    tag_158:\n        /* \"#utility.yul\":2936:3007   */\n      tag_160\n        /* \"#utility.yul\":3000:3006   */\n      dup2\n        /* \"#utility.yul\":2995:2998   */\n      dup6\n        /* \"#utility.yul\":2936:3007   */\n      tag_161\n      jump\t// in\n    tag_160:\n        /* \"#utility.yul\":2929:3007   */\n      swap4\n      pop\n        /* \"#utility.yul\":3016:3068   */\n      tag_162\n        /* \"#utility.yul\":3061:3067   */\n      dup2\n        /* \"#utility.yul\":3056:3059   */\n      dup6\n        /* \"#utility.yul\":3049:3053   */\n      0x20\n        /* \"#utility.yul\":3042:3047   */\n      dup7\n        /* \"#utility.yul\":3038:3054   */\n      add\n        /* \"#utility.yul\":3016:3068   */\n      tag_163\n      jump\t// in\n    tag_162:\n        /* \"#utility.yul\":3093:3122   */\n      tag_164\n        /* \"#utility.yul\":3115:3121   */\n      dup2\n        /* \"#utility.yul\":3093:3122   */\n      tag_165\n      jump\t// in\n    tag_164:\n        /* \"#utility.yul\":3088:3091   */\n      dup5\n        /* \"#utility.yul\":3084:3123   */\n      add\n        /* \"#utility.yul\":3077:3123   */\n      swap2\n      pop\n        /* \"#utility.yul\":2857:3129   */\n      pop\n      swap3\n      swap2\n      pop\n      pop\n      jump\t// out\n        /* \"#utility.yul\":3135:3512   */\n    tag_166:\n      0x00\n        /* \"#utility.yul\":3269:3308   */\n      tag_168\n        /* \"#utility.yul\":3302:3307   */\n      dup3\n        /* \"#utility.yul\":3269:3308   */\n      tag_159\n      jump\t// in\n    tag_168:\n        /* \"#utility.yul\":3324:3413   */\n      tag_169\n        /* \"#utility.yul\":3406:3412   */\n      dup2\n        /* \"#utility.yul\":3401:3404   */\n      dup6\n        /* \"#utility.yul\":3324:3413   */\n      tag_170\n      jump\t// in\n    tag_169:\n        /* \"#utility.yul\":3317:3413   */\n      swap4\n      pop\n        /* \"#utility.yul\":3422:3474   */\n      tag_171\n        /* \"#utility.yul\":3467:3473   */\n      dup2\n        /* \"#utility.yul\":3462:3465   */\n      dup6\n        /* \"#utility.yul\":3455:3459   */\n      0x20\n        /* \"#utility.yul\":3448:3453   */\n      dup7\n        /* \"#utility.yul\":3444:3460   */\n      add\n        /* \"#utility.yul\":3422:3474   */\n      tag_163\n      jump\t// in\n    tag_171:\n        /* \"#utility.yul\":3499:3505   */\n      dup1\n        /* \"#utility.yul\":3494:3497   */\n      dup5\n        /* \"#utility.yul\":3490:3506   */\n      add\n        /* \"#utility.yul\":3483:3506   */\n      swap2\n      pop\n        /* \"#utility.yul\":3245:3512   */\n      pop\n      swap3\n      swap2\n      pop\n      pop\n      jump\t// out\n        /* \"#utility.yul\":3542:4387   */\n    tag_172:\n      0x00\n        /* \"#utility.yul\":3682:3687   */\n      dup2\n        /* \"#utility.yul\":3676:3688   */\n      sload\n        /* \"#utility.yul\":3711:3747   */\n      tag_174\n        /* \"#utility.yul\":3737:3746   */\n      dup2\n        /* \"#utility.yul\":3711:3747   */\n      tag_97\n      jump\t// in\n    tag_174:\n        /* \"#utility.yul\":3763:3852   */\n      tag_175\n        /* \"#utility.yul\":3845:3851   */\n      dup2\n        /* \"#utility.yul\":3840:3843   */\n      dup7\n        /* \"#utility.yul\":3763:3852   */\n      tag_170\n      jump\t// in\n    tag_175:\n        /* \"#utility.yul\":3756:3852   */\n      swap5\n      pop\n        /* \"#utility.yul\":3883:3884   */\n      0x01\n        /* \"#utility.yul\":3872:3881   */\n      dup3\n        /* \"#utility.yul\":3868:3885   */\n      and\n        /* \"#utility.yul\":3899:3900   */\n      0x00\n        /* \"#utility.yul\":3894:4031   */\n      dup2\n      eq\n      tag_177\n      jumpi\n        /* \"#utility.yul\":4045:4046   */\n      0x01\n        /* \"#utility.yul\":4040:4381   */\n      dup2\n      eq\n      tag_178\n      jumpi\n        /* \"#utility.yul\":3861:4381   */\n      jump(tag_176)\n        /* \"#utility.yul\":3894:4031   */\n    tag_177:\n        /* \"#utility.yul\":3978:3982   */\n      0xff\n        /* \"#utility.yul\":3974:3983   */\n      not\n        /* \"#utility.yul\":3963:3972   */\n      dup4\n        /* \"#utility.yul\":3959:3984   */\n      and\n        /* \"#utility.yul\":3954:3957   */\n      dup7\n        /* \"#utility.yul\":3947:3985   */\n      mstore\n        /* \"#utility.yul\":4014:4020   */\n      dup2\n        /* \"#utility.yul\":4009:4012   */\n      dup7\n        /* \"#utility.yul\":4005:4021   */\n      add\n        /* \"#utility.yul\":3998:4021   */\n      swap4\n      pop\n        /* \"#utility.yul\":3894:4031   */\n      jump(tag_176)\n        /* \"#utility.yul\":4040:4381   */\n    tag_178:\n        /* \"#utility.yul\":4107:4145   */\n      tag_179\n        /* \"#utility.yul\":4139:4144   */\n      dup6\n        /* \"#utility.yul\":4107:4145   */\n      tag_180\n      jump\t// in\n    tag_179:\n        /* \"#utility.yul\":4167:4168   */\n      0x00\n        /* \"#utility.yul\":4181:4335   */\n    tag_181:\n        /* \"#utility.yul\":4195:4201   */\n      dup4\n        /* \"#utility.yul\":4192:4193   */\n      dup2\n        /* \"#utility.yul\":4189:4202   */\n      lt\n        /* \"#utility.yul\":4181:4335   */\n      iszero\n      tag_183\n      jumpi\n        /* \"#utility.yul\":4269:4276   */\n      dup2\n        /* \"#utility.yul\":4263:4277   */\n      sload\n        /* \"#utility.yul\":4259:4260   */\n      dup2\n        /* \"#utility.yul\":4254:4257   */\n      dup10\n        /* \"#utility.yul\":4250:4261   */\n      add\n        /* \"#utility.yul\":4243:4278   */\n      mstore\n        /* \"#utility.yul\":4319:4320   */\n      0x01\n        /* \"#utility.yul\":4310:4317   */\n      dup3\n        /* \"#utility.yul\":4306:4321   */\n      add\n        /* \"#utility.yul\":4295:4321   */\n      swap2\n      pop\n        /* \"#utility.yul\":4217:4221   */\n      0x20\n        /* \"#utility.yul\":4214:4215   */\n      dup2\n        /* \"#utility.yul\":4210:4222   */\n      add\n        /* \"#utility.yul\":4205:4222   */\n      swap1\n      pop\n        /* \"#utility.yul\":4181:4335   */\n      jump(tag_181)\n    tag_183:\n        /* \"#utility.yul\":4364:4370   */\n      dup4\n        /* \"#utility.yul\":4359:4362   */\n      dup9\n        /* \"#utility.yul\":4355:4371   */\n      add\n        /* \"#utility.yul\":4348:4371   */\n      swap6\n      pop\n        /* \"#utility.yul\":4047:4381   */\n      pop\n      pop\n        /* \"#utility.yul\":3861:4381   */\n    tag_176:\n      pop\n        /* \"#utility.yul\":3649:4387   */\n      pop\n      pop\n      swap3\n      swap2\n      pop\n      pop\n      jump\t// out\n        /* \"#utility.yul\":4393:4706   */\n    tag_184:\n      0x00\n        /* \"#utility.yul\":4556:4623   */\n      tag_186\n        /* \"#utility.yul\":4620:4622   */\n      0x0f\n        /* \"#utility.yul\":4615:4618   */\n      dup4\n        /* \"#utility.yul\":4556:4623   */\n      tag_161\n      jump\t// in\n    tag_186:\n        /* \"#utility.yul\":4549:4623   */\n      swap2\n      pop\n        /* \"#utility.yul\":4653:4670   */\n      0x4173736574206e6f7420666f756e640000000000000000000000000000000000\n        /* \"#utility.yul\":4649:4650   */\n      0x00\n        /* \"#utility.yul\":4644:4647   */\n      dup4\n        /* \"#utility.yul\":4640:4651   */\n      add\n        /* \"#utility.yul\":4633:4671   */\n      mstore\n        /* \"#utility.yul\":4697:4699   */\n      0x20\n        /* \"#utility.yul\":4692:4695   */\n      dup3\n        /* \"#utility.yul\":4688:4700   */\n      add\n        /* \"#utility.yul\":4681:4700   */\n      swap1\n      pop\n        /* \"#utility.yul\":4539:4706   */\n      swap2\n      swap1\n      pop\n      jump\t// out\n        /* \"#utility.yul\":4712:5035   */\n    tag_187:\n      0x00\n        /* \"#utility.yul\":4875:4942   */\n      tag_189\n        /* \"#utility.yul\":4939:4941   */\n      0x19\n        /* \"#utility.yul\":4934:4937   */\n      dup4\n        /* \"#utility.yul\":4875:4942   */\n      tag_161\n      jump\t// in\n    tag_189:\n        /* \"#utility.yul\":4868:4942   */\n      swap2\n      pop\n        /* \"#utility.yul\":4972:4999   */\n      0x496e73756666696369656e7420617373657420737570706c7900000000000000\n        /* \"#utility.yul\":4968:4969   */\n      0x00\n        /* \"#utility.yul\":4963:4966   */\n      dup4\n        /* \"#utility.yul\":4959:4970   */\n      add\n        /* \"#utility.yul\":4952:5000   */\n      mstore\n        /* \"#utility.yul\":5026:5028   */\n      0x20\n        /* \"#utility.yul\":5021:5024   */\n      dup3\n        /* \"#utility.yul\":5017:5029   */\n      add\n        /* \"#utility.yul\":5010:5029   */\n      swap1\n      pop\n        /* \"#utility.yul\":4858:5035   */\n      swap2\n      swap1\n      pop\n      jump\t// out\n        /* \"#utility.yul\":5041:5159   */\n    tag_190:\n        /* \"#utility.yul\":5128:5152   */\n      tag_192\n        /* \"#utility.yul\":5146:5151   */\n      dup2\n        /* \"#utility.yul\":5128:5152   */\n      tag_193\n      jump\t// in\n    tag_192:\n        /* \"#utility.yul\":5123:5126   */\n      dup3\n        /* \"#utility.yul\":5116:5153   */\n      mstore\n        /* \"#utility.yul\":5106:5159   */\n      pop\n      pop\n      jump\t// out\n        /* \"#utility.yul\":5165:5440   */\n    tag_44:\n      0x00\n        /* \"#utility.yul\":5319:5414   */\n      tag_195\n        /* \"#utility.yul\":5410:5413   */\n      dup3\n        /* \"#utility.yul\":5401:5407   */\n      dup5\n        /* \"#utility.yul\":5319:5414   */\n      tag_166\n      jump\t// in\n    tag_195:\n        /* \"#utility.yul\":5312:5414   */\n      swap2\n      pop\n        /* \"#utility.yul\":5431:5434   */\n      dup2\n        /* \"#utility.yul\":5424:5434   */\n      swap1\n      pop\n        /* \"#utility.yul\":5301:5440   */\n      swap3\n      swap2\n      pop\n      pop\n      jump\t// out\n        /* \"#utility.yul\":5446:5715   */\n    tag_91:\n      0x00\n        /* \"#utility.yul\":5597:5689   */\n      tag_197\n        /* \"#utility.yul\":5685:5688   */\n      dup3\n        /* \"#utility.yul\":5676:5682   */\n      dup5\n        /* \"#utility.yul\":5597:5689   */\n      tag_172\n      jump\t// in\n    tag_197:\n        /* \"#utility.yul\":5590:5689   */\n      swap2\n      pop\n        /* \"#utility.yul\":5706:5709   */\n      dup2\n        /* \"#utility.yul\":5699:5709   */\n      swap1\n      pop\n        /* \"#utility.yul\":5579:5715   */\n      swap3\n      swap2\n      pop\n      pop\n      jump\t// out\n        /* \"#utility.yul\":5721:6144   */\n    tag_33:\n      0x00\n        /* \"#utility.yul\":5900:5902   */\n      0x40\n        /* \"#utility.yul\":5889:5898   */\n      dup3\n        /* \"#utility.yul\":5885:5903   */\n      add\n        /* \"#utility.yul\":5877:5903   */\n      swap1\n      pop\n        /* \"#utility.yul\":5949:5958   */\n      dup2\n        /* \"#utility.yul\":5943:5947   */\n      dup2\n        /* \"#utility.yul\":5939:5959   */\n      sub\n        /* \"#utility.yul\":5935:5936   */\n      0x00\n        /* \"#utility.yul\":5924:5933   */\n      dup4\n        /* \"#utility.yul\":5920:5937   */\n      add\n        /* \"#utility.yul\":5913:5960   */\n      mstore\n        /* \"#utility.yul\":5977:6055   */\n      tag_199\n        /* \"#utility.yul\":6050:6054   */\n      dup2\n        /* \"#utility.yul\":6041:6047   */\n      dup6\n        /* \"#utility.yul\":5977:6055   */\n      tag_156\n      jump\t// in\n    tag_199:\n        /* \"#utility.yul\":5969:6055   */\n      swap1\n      pop\n        /* \"#utility.yul\":6065:6137   */\n      tag_200\n        /* \"#utility.yul\":6133:6135   */\n      0x20\n        /* \"#utility.yul\":6122:6131   */\n      dup4\n        /* \"#utility.yul\":6118:6136   */\n      add\n        /* \"#utility.yul\":6109:6115   */\n      dup5\n        /* \"#utility.yul\":6065:6137   */\n      tag_190\n      jump\t// in\n    tag_200:\n        /* \"#utility.yul\":5867:6144   */\n      swap4\n      swap3\n      pop\n      pop\n      pop\n      jump\t// out\n        /* \"#utility.yul\":6150:6569   */\n    tag_75:\n      0x00\n        /* \"#utility.yul\":6354:6356   */\n      0x20\n        /* \"#utility.yul\":6343:6352   */\n      dup3\n        /* \"#utility.yul\":6339:6357   */\n      add\n        /* \"#utility.yul\":6331:6357   */\n      swap1\n      pop\n        /* \"#utility.yul\":6403:6412   */\n      dup2\n        /* \"#utility.yul\":6397:6401   */\n      dup2\n        /* \"#utility.yul\":6393:6413   */\n      sub\n        /* \"#utility.yul\":6389:6390   */\n      0x00\n        /* \"#utility.yul\":6378:6387   */\n      dup4\n        /* \"#utility.yul\":6374:6391   */\n      add\n        /* \"#utility.yul\":6367:6414   */\n      mstore\n        /* \"#utility.yul\":6431:6562   */\n      tag_202\n        /* \"#utility.yul\":6557:6561   */\n      dup2\n        /* \"#utility.yul\":6431:6562   */\n      tag_184\n      jump\t// in\n    tag_202:\n        /* \"#utility.yul\":6423:6562   */\n      swap1\n      pop\n        /* \"#utility.yul\":6321:6569   */\n      swap2\n      swap1\n      pop\n      jump\t// out\n        /* \"#utility.yul\":6575:6994   */\n    tag_80:\n      0x00\n        /* \"#utility.yul\":6779:6781   */\n      0x20\n        /* \"#utility.yul\":6768:6777   */\n      dup3\n        /* \"#utility.yul\":6764:6782   */\n      add\n        /* \"#utility.yul\":6756:6782   */\n      swap1\n      pop\n        /* \"#utility.yul\":6828:6837   */\n      dup2\n        /* \"#utility.yul\":6822:6826   */\n      dup2\n        /* \"#utility.yul\":6818:6838   */\n      sub\n        /* \"#utility.yul\":6814:6815   */\n      0x00\n        /* \"#utility.yul\":6803:6812   */\n      dup4\n        /* \"#utility.yul\":6799:6816   */\n      add\n        /* \"#utility.yul\":6792:6839   */\n      mstore\n        /* \"#utility.yul\":6856:6987   */\n      tag_204\n        /* \"#utility.yul\":6982:6986   */\n      dup2\n        /* \"#utility.yul\":6856:6987   */\n      tag_187\n      jump\t// in\n    tag_204:\n        /* \"#utility.yul\":6848:6987   */\n      swap1\n      pop\n        /* \"#utility.yul\":6746:6994   */\n      swap2\n      swap1\n      pop\n      jump\t// out\n        /* \"#utility.yul\":7000:7222   */\n    tag_27:\n      0x00\n        /* \"#utility.yul\":7131:7133   */\n      0x20\n        /* \"#utility.yul\":7120:7129   */\n      dup3\n        /* \"#utility.yul\":7116:7134   */\n      add\n        /* \"#utility.yul\":7108:7134   */\n      swap1\n      pop\n        /* \"#utility.yul\":7144:7215   */\n      tag_206\n        /* \"#utility.yul\":7212:7213   */\n      0x00\n        /* \"#utility.yul\":7201:7210   */\n      dup4\n        /* \"#utility.yul\":7197:7214   */\n      add\n        /* \"#utility.yul\":7188:7194   */\n      dup5\n        /* \"#utility.yul\":7144:7215   */\n      tag_190\n      jump\t// in\n    tag_206:\n        /* \"#utility.yul\":7098:7222   */\n      swap3\n      swap2\n      pop\n      pop\n      jump\t// out\n        /* \"#utility.yul\":7228:7781   */\n    tag_14:\n      0x00\n        /* \"#utility.yul\":7443:7446   */\n      0x80\n        /* \"#utility.yul\":7432:7441   */\n      dup3\n        /* \"#utility.yul\":7428:7447   */\n      add\n        /* \"#utility.yul\":7420:7447   */\n      swap1\n      pop\n        /* \"#utility.yul\":7457:7528   */\n      tag_208\n        /* \"#utility.yul\":7525:7526   */\n      0x00\n        /* \"#utility.yul\":7514:7523   */\n      dup4\n        /* \"#utility.yul\":7510:7527   */\n      add\n        /* \"#utility.yul\":7501:7507   */\n      dup8\n        /* \"#utility.yul\":7457:7528   */\n      tag_190\n      jump\t// in\n    tag_208:\n        /* \"#utility.yul\":7538:7610   */\n      tag_209\n        /* \"#utility.yul\":7606:7608   */\n      0x20\n        /* \"#utility.yul\":7595:7604   */\n      dup4\n        /* \"#utility.yul\":7591:7609   */\n      add\n        /* \"#utility.yul\":7582:7588   */\n      dup7\n        /* \"#utility.yul\":7538:7610   */\n      tag_190\n      jump\t// in\n    tag_209:\n        /* \"#utility.yul\":7620:7692   */\n      tag_210\n        /* \"#utility.yul\":7688:7690   */\n      0x40\n        /* \"#utility.yul\":7677:7686   */\n      dup4\n        /* \"#utility.yul\":7673:7691   */\n      add\n        /* \"#utility.yul\":7664:7670   */\n      dup6\n        /* \"#utility.yul\":7620:7692   */\n      tag_152\n      jump\t// in\n    tag_210:\n        /* \"#utility.yul\":7702:7774   */\n      tag_211\n        /* \"#utility.yul\":7770:7772   */\n      0x60\n        /* \"#utility.yul\":7759:7768   */\n      dup4\n        /* \"#utility.yul\":7755:7773   */\n      add\n        /* \"#utility.yul\":7746:7752   */\n      dup5\n        /* \"#utility.yul\":7702:7774   */\n      tag_152\n      jump\t// in\n    tag_211:\n        /* \"#utility.yul\":7410:7781   */\n      swap6\n      swap5\n      pop\n      pop\n      pop\n      pop\n      pop\n      jump\t// out\n        /* \"#utility.yul\":7787:8070   */\n    tag_122:\n      0x00\n        /* \"#utility.yul\":7853:7855   */\n      0x40\n        /* \"#utility.yul\":7847:7856   */\n      mload\n        /* \"#utility.yul\":7837:7856   */\n      swap1\n      pop\n        /* \"#utility.yul\":7895:7899   */\n      dup2\n        /* \"#utility.yul\":7887:7893   */\n      dup2\n        /* \"#utility.yul\":7883:7900   */\n      add\n        /* \"#utility.yul\":8002:8008   */\n      dup2\n        /* \"#utility.yul\":7990:8000   */\n      dup2\n        /* \"#utility.yul\":7987:8009   */\n      lt\n        /* \"#utility.yul\":7966:7984   */\n      0xffffffffffffffff\n        /* \"#utility.yul\":7954:7964   */\n      dup3\n        /* \"#utility.yul\":7951:7985   */\n      gt\n        /* \"#utility.yul\":7948:8010   */\n      or\n        /* \"#utility.yul\":7945:7947   */\n      iszero\n      tag_213\n      jumpi\n        /* \"#utility.yul\":8013:8031   */\n      tag_214\n      tag_215\n      jump\t// in\n    tag_214:\n        /* \"#utility.yul\":7945:7947   */\n    tag_213:\n        /* \"#utility.yul\":8053:8063   */\n      dup1\n        /* \"#utility.yul\":8049:8051   */\n      0x40\n        /* \"#utility.yul\":8042:8064   */\n      mstore\n        /* \"#utility.yul\":7827:8070   */\n      pop\n      swap2\n      swap1\n      pop\n      jump\t// out\n        /* \"#utility.yul\":8076:8408   */\n    tag_121:\n      0x00\n        /* \"#utility.yul\":8228:8246   */\n      0xffffffffffffffff\n        /* \"#utility.yul\":8220:8226   */\n      dup3\n        /* \"#utility.yul\":8217:8247   */\n      gt\n        /* \"#utility.yul\":8214:8216   */\n      iszero\n      tag_217\n      jumpi\n        /* \"#utility.yul\":8250:8268   */\n      tag_218\n      tag_215\n      jump\t// in\n    tag_218:\n        /* \"#utility.yul\":8214:8216   */\n    tag_217:\n        /* \"#utility.yul\":8335:8339   */\n      0x1f\n        /* \"#utility.yul\":8331:8340   */\n      not\n        /* \"#utility.yul\":8324:8328   */\n      0x1f\n        /* \"#utility.yul\":8316:8322   */\n      dup4\n        /* \"#utility.yul\":8312:8329   */\n      add\n        /* \"#utility.yul\":8308:8341   */\n      and\n        /* \"#utility.yul\":8300:8341   */\n      swap1\n      pop\n        /* \"#utility.yul\":8396:8400   */\n      0x20\n        /* \"#utility.yul\":8390:8394   */\n      dup2\n        /* \"#utility.yul\":8386:8401   */\n      add\n        /* \"#utility.yul\":8378:8401   */\n      swap1\n      pop\n        /* \"#utility.yul\":8143:8408   */\n      swap2\n      swap1\n      pop\n      jump\t// out\n        /* \"#utility.yul\":8414:8555   */\n    tag_180:\n      0x00\n        /* \"#utility.yul\":8486:8489   */\n      dup2\n        /* \"#utility.yul\":8478:8489   */\n      swap1\n      pop\n        /* \"#utility.yul\":8509:8512   */\n      dup2\n        /* \"#utility.yul\":8506:8507   */\n      0x00\n        /* \"#utility.yul\":8499:8513   */\n      mstore\n        /* \"#utility.yul\":8543:8547   */\n      0x20\n        /* \"#utility.yul\":8540:8541   */\n      0x00\n        /* \"#utility.yul\":8530:8548   */\n      keccak256\n        /* \"#utility.yul\":8522:8548   */\n      swap1\n      pop\n        /* \"#utility.yul\":8468:8555   */\n      swap2\n      swap1\n      pop\n      jump\t// out\n        /* \"#utility.yul\":8561:8660   */\n    tag_159:\n      0x00\n        /* \"#utility.yul\":8647:8652   */\n      dup2\n        /* \"#utility.yul\":8641:8653   */\n      mload\n        /* \"#utility.yul\":8631:8653   */\n      swap1\n      pop\n        /* \"#utility.yul\":8620:8660   */\n      swap2\n      swap1\n      pop\n      jump\t// out\n        /* \"#utility.yul\":8666:8835   */\n    tag_161:\n      0x00\n        /* \"#utility.yul\":8784:8790   */\n      dup3\n        /* \"#utility.yul\":8779:8782   */\n      dup3\n        /* \"#utility.yul\":8772:8791   */\n      mstore\n        /* \"#utility.yul\":8824:8828   */\n      0x20\n        /* \"#utility.yul\":8819:8822   */\n      dup3\n        /* \"#utility.yul\":8815:8829   */\n      add\n        /* \"#utility.yul\":8800:8829   */\n      swap1\n      pop\n        /* \"#utility.yul\":8762:8835   */\n      swap3\n      swap2\n      pop\n      pop\n      jump\t// out\n        /* \"#utility.yul\":8841:8989   */\n    tag_170:\n      0x00\n        /* \"#utility.yul\":8980:8983   */\n      dup2\n        /* \"#utility.yul\":8965:8983   */\n      swap1\n      pop\n        /* \"#utility.yul\":8955:8989   */\n      swap3\n      swap2\n      pop\n      pop\n      jump\t// out\n        /* \"#utility.yul\":8995:9300   */\n    tag_52:\n      0x00\n        /* \"#utility.yul\":9054:9074   */\n      tag_224\n        /* \"#utility.yul\":9072:9073   */\n      dup3\n        /* \"#utility.yul\":9054:9074   */\n      tag_193\n      jump\t// in\n    tag_224:\n        /* \"#utility.yul\":9049:9074   */\n      swap2\n      pop\n        /* \"#utility.yul\":9088:9108   */\n      tag_225\n        /* \"#utility.yul\":9106:9107   */\n      dup4\n        /* \"#utility.yul\":9088:9108   */\n      tag_193\n      jump\t// in\n    tag_225:\n        /* \"#utility.yul\":9083:9108   */\n      swap3\n      pop\n        /* \"#utility.yul\":9242:9243   */\n      dup3\n        /* \"#utility.yul\":9174:9240   */\n      0xffffffffffffffffffffffffffffffffffffffffffffffffffffffffffffffff\n        /* \"#utility.yul\":9170:9244   */\n      sub\n        /* \"#utility.yul\":9167:9168   */\n      dup3\n        /* \"#utility.yul\":9164:9245   */\n      gt\n        /* \"#utility.yul\":9161:9163   */\n      iszero\n      tag_226\n      jumpi\n        /* \"#utility.yul\":9248:9266   */\n      tag_227\n      tag_228\n      jump\t// in\n    tag_227:\n        /* \"#utility.yul\":9161:9163   */\n    tag_226:\n        /* \"#utility.yul\":9292:9293   */\n      dup3\n        /* \"#utility.yul\":9289:9290   */\n      dup3\n        /* \"#utility.yul\":9285:9294   */\n      add\n        /* \"#utility.yul\":9278:9294   */\n      swap1\n      pop\n        /* \"#utility.yul\":9039:9300   */\n      swap3\n      swap2\n      pop\n      pop\n      jump\t// out\n        /* \"#utility.yul\":9306:9497   */\n    tag_60:\n      0x00\n        /* \"#utility.yul\":9366:9386   */\n      tag_230\n        /* \"#utility.yul\":9384:9385   */\n      dup3\n        /* \"#utility.yul\":9366:9386   */\n      tag_193\n      jump\t// in\n    tag_230:\n        /* \"#utility.yul\":9361:9386   */\n      swap2\n      pop\n        /* \"#utility.yul\":9400:9420   */\n      tag_231\n        /* \"#utility.yul\":9418:9419   */\n      dup4\n        /* \"#utility.yul\":9400:9420   */\n      tag_193\n      jump\t// in\n    tag_231:\n        /* \"#utility.yul\":9395:9420   */\n      swap3\n      pop\n        /* \"#utility.yul\":9439:9440   */\n      dup3\n        /* \"#utility.yul\":9436:9437   */\n      dup3\n        /* \"#utility.yul\":9433:9441   */\n      lt\n        /* \"#utility.yul\":9430:9432   */\n      iszero\n      tag_232\n      jumpi\n        /* \"#utility.yul\":9444:9462   */\n      tag_233\n      tag_228\n      jump\t// in\n    tag_233:\n        /* \"#utility.yul\":9430:9432   */\n    tag_232:\n        /* \"#utility.yul\":9489:9490   */\n      dup3\n        /* \"#utility.yul\":9486:9487   */\n      dup3\n        /* \"#utility.yul\":9482:9491   */\n      sub\n        /* \"#utility.yul\":9474:9491   */\n      swap1\n      pop\n        /* \"#utility.yul\":9351:9497   */\n      swap3\n      swap2\n      pop\n      pop\n      jump\t// out\n        /* \"#utility.yul\":9503:9599   */\n    tag_155:\n      0x00\n        /* \"#utility.yul\":9569:9593   */\n      tag_235\n        /* \"#utility.yul\":9587:9592   */\n      dup3\n        /* \"#utility.yul\":9569:9593   */\n      tag_236\n      jump\t// in\n    tag_235:\n        /* \"#utility.yul\":9558:9593   */\n      swap1\n      pop\n        /* \"#utility.yul\":9548:9599   */\n      swap2\n      swap1\n      pop\n      jump\t// out\n        /* \"#utility.yul\":9605:9731   */\n    tag_236:\n      0x00\n        /* \"#utility.yul\":9682:9724   */\n      0xffffffffffffffffffffffffffffffffffffffff\n        /* \"#utility.yul\":9675:9680   */\n      dup3\n        /* \"#utility.yul\":9671:9725   */\n      and\n        /* \"#utility.yul\":9660:9725   */\n      swap1\n      pop\n        /* \"#utility.yul\":9650:9731   */\n      swap2\n      swap1\n      pop\n      jump\t// out\n        /* \"#utility.yul\":9737:9814   */\n    tag_193:\n      0x00\n        /* \"#utility.yul\":9803:9808   */\n      dup2\n        /* \"#utility.yul\":9792:9808   */\n      swap1\n      pop\n        /* \"#utility.yul\":9782:9814   */\n      swap2\n      swap1\n      pop\n      jump\t// out\n        /* \"#utility.yul\":9820:9974   */\n    tag_125:\n        /* \"#utility.yul\":9904:9910   */\n      dup3\n        /* \"#utility.yul\":9899:9902   */\n      dup2\n        /* \"#utility.yul\":9894:9897   */\n      dup4\n        /* \"#utility.yul\":9881:9911   */\n      calldatacopy\n        /* \"#utility.yul\":9966:9967   */\n      0x00\n        /* \"#utility.yul\":9957:9963   */\n      dup4\n        /* \"#utility.yul\":9952:9955   */\n      dup4\n        /* \"#utility.yul\":9948:9964   */\n      add\n        /* \"#utility.yul\":9941:9968   */\n      mstore\n        /* \"#utility.yul\":9871:9974   */\n      pop\n      pop\n      pop\n      jump\t// out\n        /* \"#utility.yul\":9980:10287   */\n    tag_163:\n        /* \"#utility.yul\":10048:10049   */\n      0x00\n        /* \"#utility.yul\":10058:10171   */\n    tag_241:\n        /* \"#utility.yul\":10072:10078   */\n      dup4\n        /* \"#utility.yul\":10069:10070   */\n      dup2\n        /* \"#utility.yul\":10066:10079   */\n      lt\n        /* \"#utility.yul\":10058:10171   */\n      iszero\n      tag_243\n      jumpi\n        /* \"#utility.yul\":10157:10158   */\n      dup1\n        /* \"#utility.yul\":10152:10155   */\n      dup3\n        /* \"#utility.yul\":10148:10159   */\n      add\n        /* \"#utility.yul\":10142:10160   */\n      mload\n        /* \"#utility.yul\":10138:10139   */\n      dup2\n        /* \"#utility.yul\":10133:10136   */\n      dup5\n        /* \"#utility.yul\":10129:10140   */\n      add\n        /* \"#utility.yul\":10122:10161   */\n      mstore\n        /* \"#utility.yul\":10094:10096   */\n      0x20\n        /* \"#utility.yul\":10091:10092   */\n      dup2\n        /* \"#utility.yul\":10087:10097   */\n      add\n        /* \"#utility.yul\":10082:10097   */\n      swap1\n      pop\n        /* \"#utility.yul\":10058:10171   */\n      jump(tag_241)\n    tag_243:\n        /* \"#utility.yul\":10189:10195   */\n      dup4\n        /* \"#utility.yul\":10186:10187   */\n      dup2\n        /* \"#utility.yul\":10183:10196   */\n      gt\n        /* \"#utility.yul\":10180:10182   */\n      iszero\n      tag_244\n      jumpi\n        /* \"#utility.yul\":10269:10270   */\n      0x00\n        /* \"#utility.yul\":10260:10266   */\n      dup5\n        /* \"#utility.yul\":10255:10258   */\n      dup5\n        /* \"#utility.yul\":10251:10267   */\n      add\n        /* \"#utility.yul\":10244:10271   */\n      mstore\n        /* \"#utility.yul\":10180:10182   */\n    tag_244:\n        /* \"#utility.yul\":10029:10287   */\n      pop\n      pop\n      pop\n      pop\n      jump\t// out\n        /* \"#utility.yul\":10293:10613   */\n    tag_97:\n      0x00\n        /* \"#utility.yul\":10374:10375   */\n      0x02\n        /* \"#utility.yul\":10368:10372   */\n      dup3\n        /* \"#utility.yul\":10364:10376   */\n      div\n        /* \"#utility.yul\":10354:10376   */\n      swap1\n      pop\n        /* \"#utility.yul\":10421:10422   */\n      0x01\n        /* \"#utility.yul\":10415:10419   */\n      dup3\n        /* \"#utility.yul\":10411:10423   */\n      and\n        /* \"#utility.yul\":10442:10460   */\n      dup1\n        /* \"#utility.yul\":10432:10434   */\n      tag_246\n      jumpi\n        /* \"#utility.yul\":10498:10502   */\n      0x7f\n        /* \"#utility.yul\":10490:10496   */\n      dup3\n        /* \"#utility.yul\":10486:10503   */\n      and\n        /* \"#utility.yul\":10476:10503   */\n      swap2\n      pop\n        /* \"#utility.yul\":10432:10434   */\n    tag_246:\n        /* \"#utility.yul\":10560:10562   */\n      0x20\n        /* \"#utility.yul\":10552:10558   */\n      dup3\n        /* \"#utility.yul\":10549:10563   */\n      lt\n        /* \"#utility.yul\":10529:10547   */\n      dup2\n        /* \"#utility.yul\":10526:10564   */\n      eq\n        /* \"#utility.yul\":10523:10525   */\n      iszero\n      tag_247\n      jumpi\n        /* \"#utility.yul\":10579:10597   */\n      tag_248\n      tag_249\n      jump\t// in\n    tag_248:\n        /* \"#utility.yul\":10523:10525   */\n    tag_247:\n        /* \"#utility.yul\":10344:10613   */\n      pop\n      swap2\n      swap1\n      pop\n      jump\t// out\n        /* \"#utility.yul\":10619:10852   */\n    tag_69:\n      0x00\n        /* \"#utility.yul\":10681:10705   */\n      tag_251\n        /* \"#utility.yul\":10699:10704   */\n      dup3\n        /* \"#utility.yul\":10681:10705   */\n      tag_193\n      jump\t// in\n    tag_251:\n        /* \"#utility.yul\":10672:10705   */\n      swap2\n      pop\n        /* \"#utility.yul\":10727:10793   */\n      0xffffffffffffffffffffffffffffffffffffffffffffffffffffffffffffffff\n        /* \"#utility.yul\":10720:10725   */\n      dup3\n        /* \"#utility.yul\":10717:10794   */\n      eq\n        /* \"#utility.yul\":10714:10716   */\n      iszero\n      tag_252\n      jumpi\n        /* \"#utility.yul\":10797:10815   */\n      tag_253\n      tag_228\n      jump\t// in\n    tag_253:\n        /* \"#utility.yul\":10714:10716   */\n    tag_252:\n        /* \"#utility.yul\":10844:10845   */\n      0x01\n        /* \"#utility.yul\":10837:10842   */\n      dup3\n        /* \"#utility.yul\":10833:10846   */\n      add\n        /* \"#utility.yul\":10826:10846   */\n      swap1\n      pop\n        /* \"#utility.yul\":10662:10852   */\n      swap2\n      swap1\n      pop\n      jump\t// out\n        /* \"#utility.yul\":10858:11038   */\n    tag_228:\n        /* \"#utility.yul\":10906:10983   */\n      0x4e487b7100000000000000000000000000000000000000000000000000000000\n        /* \"#utility.yul\":10903:10904   */\n      0x00\n        /* \"#utility.yul\":10896:10984   */\n      mstore\n        /* \"#utility.yul\":11003:11007   */\n      0x11\n        /* \"#utility.yul\":11000:11001   */\n      0x04\n        /* \"#utility.yul\":10993:11008   */\n      mstore\n        /* \"#utility.yul\":11027:11031   */\n      0x24\n        /* \"#utility.yul\":11024:11025   */\n      0x00\n        /* \"#utility.yul\":11017:11032   */\n      revert\n        /* \"#utility.yul\":11044:11224   */\n    tag_249:\n        /* \"#utility.yul\":11092:11169   */\n      0x4e487b7100000000000000000000000000000000000000000000000000000000\n        /* \"#utility.yul\":11089:11090   */\n      0x00\n        /* \"#utility.yul\":11082:11170   */\n      mstore\n        /* \"#utility.yul\":11189:11193   */\n      0x22\n        /* \"#utility.yul\":11186:11187   */\n      0x04\n        /* \"#utility.yul\":11179:11194   */\n      mstore\n        /* \"#utility.yul\":11213:11217   */\n      0x24\n        /* \"#utility.yul\":11210:11211   */\n      0x00\n        /* \"#utility.yul\":11203:11218   */\n      revert\n        /* \"#utility.yul\":11230:11410   */\n    tag_215:\n        /* \"#utility.yul\":11278:11355   */\n      0x4e487b7100000000000000000000000000000000000000000000000000000000\n        /* \"#utility.yul\":11275:11276   */\n      0x00\n        /* \"#utility.yul\":11268:11356   */\n      mstore\n        /* \"#utility.yul\":11375:11379   */\n      0x41\n        /* \"#utility.yul\":11372:11373   */\n      0x04\n        /* \"#utility.yul\":11365:11380   */\n      mstore\n        /* \"#utility.yul\":11399:11403   */\n      0x24\n        /* \"#utility.yul\":11396:11397   */\n      0x00\n        /* \"#utility.yul\":11389:11404   */\n      revert\n        /* \"#utility.yul\":11416:11518   */\n    tag_165:\n      0x00\n        /* \"#utility.yul\":11508:11510   */\n      0x1f\n        /* \"#utility.yul\":11504:11511   */\n      not\n        /* \"#utility.yul\":11499:11501   */\n      0x1f\n        /* \"#utility.yul\":11492:11497   */\n      dup4\n        /* \"#utility.yul\":11488:11502   */\n      add\n        /* \"#utility.yul\":11484:11512   */\n      and\n        /* \"#utility.yul\":11474:11512   */\n      swap1\n      pop\n        /* \"#utility.yul\":11464:11518   */\n      swap2\n      swap1\n      pop\n      jump\t// out\n        /* \"#utility.yul\":11524:11646   */\n    tag_133:\n        /* \"#utility.yul\":11597:11621   */\n      tag_259\n        /* \"#utility.yul\":11615:11620   */\n      dup2\n        /* \"#utility.yul\":11597:11621   */\n      tag_193\n      jump\t// in\n    tag_259:\n        /* \"#utility.yul\":11590:11595   */\n      dup2\n        /* \"#utility.yul\":11587:11622   */\n      eq\n        /* \"#utility.yul\":11577:11579   */\n      tag_260\n      jumpi\n        /* \"#utility.yul\":11636:11637   */\n      0x00\n        /* \"#utility.yul\":11633:11634   */\n      dup1\n        /* \"#utility.yul\":11626:11638   */\n      revert\n        /* \"#utility.yul\":11577:11579   */\n    tag_260:\n        /* \"#utility.yul\":11567:11646   */\n      pop\n      jump\t// out\n\n    auxdata: 0xa26469706673582212205bb04f258020f62c4cf197e057f19ae79e37fc96dc3ecc68c21ecee4192660c864736f6c63430008000033\n}\n",
				"bytecode": {
					"linkReferences": {},
					"object": "608060405234801561001057600080fd5b506112b7806100206000396000f3fe608060405234801561001057600080fd5b50600436106100625760003560e01c806303da27ca14610067578063511545671461009a57806388b922d5146100b6578063b1058c47146100d2578063cf35bdd014610102578063db9cc41014610133575b600080fd5b610081600480360381019061007c9190610c43565b61014f565b6040516100919493929190610f67565b60405180910390f35b6100b460048036038101906100af9190610c02565b6101f2565b005b6100d060048036038101906100cb9190610c97565b610683565b005b6100ec60048036038101906100e79190610c02565b6108c0565b6040516100f99190610f4c565b60405180910390f35b61011c60048036038101906101179190610cfe565b6109b9565b60405161012a929190610edc565b60405180910390f35b61014d60048036038101906101489190610c43565b610a75565b005b600182805160208101820180518482526020830160208501208183528095505050505050818154811061018157600080fd5b9060005260206000209060040201600091509150508060000154908060010154908060020160009054906101000a900473ffffffffffffffffffffffffffffffffffffffff16908060030160009054906101000a900473ffffffffffffffffffffffffffffffffffffffff16905084565b60005b6001826040516102059190610eae565b90815260200160405180910390208054905081101561067f5760006001836040516102309190610eae565b90815260200160405180910390208281548110610276577f4e487b7100000000000000000000000000000000000000000000000000000000600052603260045260246000fd5b906000526020600020906004020160405180608001604052908160008201548152602001600182015481526020016002820160009054906101000a900473ffffffffffffffffffffffffffffffffffffffff1673ffffffffffffffffffffffffffffffffffffffff1673ffffffffffffffffffffffffffffffffffffffff1681526020016003820160009054906101000a900473ffffffffffffffffffffffffffffffffffffffff1673ffffffffffffffffffffffffffffffffffffffff1673ffffffffffffffffffffffffffffffffffffffff1681525050905060006001836103609190611049565b90505b6001846040516103739190610eae565b90815260200160405180910390208054905081101561066a57600060018560405161039e9190610eae565b908152602001604051809103902082815481106103e4577f4e487b7100000000000000000000000000000000000000000000000000000000600052603260045260246000fd5b906000526020600020906004020160405180608001604052908160008201548152602001600182015481526020016002820160009054906101000a900473ffffffffffffffffffffffffffffffffffffffff1673ffffffffffffffffffffffffffffffffffffffff1673ffffffffffffffffffffffffffffffffffffffff1681526020016003820160009054906101000a900473ffffffffffffffffffffffffffffffffffffffff1673ffffffffffffffffffffffffffffffffffffffff1673ffffffffffffffffffffffffffffffffffffffff16815250509050806000015183600001511480156104de57508060200151836020015111155b15610656576000836020018181525050826020015181602001818151610504919061109f565b915081815250506000610516866108c0565b9050836020015160008281548110610557577f4e487b7100000000000000000000000000000000000000000000000000000000600052603260045260246000fd5b90600052602060002090600202016001016000828254610577919061109f565b925050819055508160200151600082815481106105bd577f4e487b7100000000000000000000000000000000000000000000000000000000600052603260045260246000fd5b906000526020600020906002020160010160008282546105dd9190611049565b9250508190555033846040019073ffffffffffffffffffffffffffffffffffffffff16908173ffffffffffffffffffffffffffffffffffffffff168152505033826060019073ffffffffffffffffffffffffffffffffffffffff16908173ffffffffffffffffffffffffffffffffffffffff1681525050505b50808061066290611183565b915050610363565b5050808061067790611183565b9150506101f5565b5050565b600061068e846108c0565b90507fffffffffffffffffffffffffffffffffffffffffffffffffffffffffffffffff8114156106f3576040517f08c379a00000000000000000000000000000000000000000000000000000000081526004016106ea90610f0c565b60405180910390fd5b816000828154811061072e577f4e487b7100000000000000000000000000000000000000000000000000000000600052603260045260246000fd5b9060005260206000209060020201600101541015610781576040517f08c379a000000000000000000000000000000000000000000000000000000000815260040161077890610f2c565b60405180910390fd5b6001846040516107919190610eae565b908152602001604051809103902060405180608001604052808581526020018481526020013373ffffffffffffffffffffffffffffffffffffffff168152602001600073ffffffffffffffffffffffffffffffffffffffff168152509080600181540180825580915050600190039060005260206000209060040201600090919091909150600082015181600001556020820151816001015560408201518160020160006101000a81548173ffffffffffffffffffffffffffffffffffffffff021916908373ffffffffffffffffffffffffffffffffffffffff16021790555060608201518160030160006101000a81548173ffffffffffffffffffffffffffffffffffffffff021916908373ffffffffffffffffffffffffffffffffffffffff160217905550505050505050565b600080600090505b60008054905081101561098f57826040516020016108e69190610eae565b6040516020818303038152906040528051906020012060008281548110610936577f4e487b7100000000000000000000000000000000000000000000000000000000600052603260045260246000fd5b90600052602060002090600202016000016040516020016109579190610ec5565b60405160208183030381529060405280519060200120141561097c57809150506109b4565b808061098790611183565b9150506108c8565b507fffffffffffffffffffffffffffffffffffffffffffffffffffffffffffffffff90505b919050565b600081815481106109c957600080fd5b90600052602060002090600202016000915090508060000180546109ec90611151565b80601f0160208091040260200160405190810160405280929190818152602001828054610a1890611151565b8015610a655780601f10610a3a57610100808354040283529160200191610a65565b820191906000526020600020905b815481529060010190602001808311610a4857829003601f168201915b5050505050908060010154905082565b600060405180604001604052808481526020018381525090806001815401808255809150506001900390600052602060002090600202016000909190919091506000820151816000019080519060200190610ad1929190610ae2565b506020820151816001015550505050565b828054610aee90611151565b90600052602060002090601f016020900481019282610b105760008555610b57565b82601f10610b2957805160ff1916838001178555610b57565b82800160010185558215610b57579182015b82811115610b56578251825591602001919060010190610b3b565b5b509050610b649190610b68565b5090565b5b80821115610b81576000816000905550600101610b69565b5090565b6000610b98610b9384610fdd565b610fac565b905082815260208101848484011115610bb057600080fd5b610bbb84828561110f565b509392505050565b600082601f830112610bd457600080fd5b8135610be4848260208601610b85565b91505092915050565b600081359050610bfc8161126a565b92915050565b600060208284031215610c1457600080fd5b600082013567ffffffffffffffff811115610c2e57600080fd5b610c3a84828501610bc3565b91505092915050565b60008060408385031215610c5657600080fd5b600083013567ffffffffffffffff811115610c7057600080fd5b610c7c85828601610bc3565b9250506020610c8d85828601610bed565b9150509250929050565b600080600060608486031215610cac57600080fd5b600084013567ffffffffffffffff811115610cc657600080fd5b610cd286828701610bc3565b9350506020610ce386828701610bed565b9250506040610cf486828701610bed565b9150509250925092565b600060208284031215610d1057600080fd5b6000610d1e84828501610bed565b91505092915050565b610d30816110d3565b82525050565b6000610d4182611022565b610d4b818561102d565b9350610d5b81856020860161111e565b610d6481611259565b840191505092915050565b6000610d7a82611022565b610d84818561103e565b9350610d9481856020860161111e565b80840191505092915050565b60008154610dad81611151565b610db7818661103e565b94506001821660008114610dd25760018114610de357610e16565b60ff19831686528186019350610e16565b610dec8561100d565b60005b83811015610e0e57815481890152600182019150602081019050610def565b838801955050505b50505092915050565b6000610e2c600f8361102d565b91507f4173736574206e6f7420666f756e6400000000000000000000000000000000006000830152602082019050919050565b6000610e6c60198361102d565b91507f496e73756666696369656e7420617373657420737570706c79000000000000006000830152602082019050919050565b610ea881611105565b82525050565b6000610eba8284610d6f565b915081905092915050565b6000610ed18284610da0565b915081905092915050565b60006040820190508181036000830152610ef68185610d36565b9050610f056020830184610e9f565b9392505050565b60006020820190508181036000830152610f2581610e1f565b9050919050565b60006020820190508181036000830152610f4581610e5f565b9050919050565b6000602082019050610f616000830184610e9f565b92915050565b6000608082019050610f7c6000830187610e9f565b610f896020830186610e9f565b610f966040830185610d27565b610fa36060830184610d27565b95945050505050565b6000604051905081810181811067ffffffffffffffff82111715610fd357610fd261122a565b5b8060405250919050565b600067ffffffffffffffff821115610ff857610ff761122a565b5b601f19601f8301169050602081019050919050565b60008190508160005260206000209050919050565b600081519050919050565b600082825260208201905092915050565b600081905092915050565b600061105482611105565b915061105f83611105565b9250827fffffffffffffffffffffffffffffffffffffffffffffffffffffffffffffffff03821115611094576110936111cc565b5b828201905092915050565b60006110aa82611105565b91506110b583611105565b9250828210156110c8576110c76111cc565b5b828203905092915050565b60006110de826110e5565b9050919050565b600073ffffffffffffffffffffffffffffffffffffffff82169050919050565b6000819050919050565b82818337600083830152505050565b60005b8381101561113c578082015181840152602081019050611121565b8381111561114b576000848401525b50505050565b6000600282049050600182168061116957607f821691505b6020821081141561117d5761117c6111fb565b5b50919050565b600061118e82611105565b91507fffffffffffffffffffffffffffffffffffffffffffffffffffffffffffffffff8214156111c1576111c06111cc565b5b600182019050919050565b7f4e487b7100000000000000000000000000000000000000000000000000000000600052601160045260246000fd5b7f4e487b7100000000000000000000000000000000000000000000000000000000600052602260045260246000fd5b7f4e487b7100000000000000000000000000000000000000000000000000000000600052604160045260246000fd5b6000601f19601f8301169050919050565b61127381611105565b811461127e57600080fd5b5056fea26469706673582212205bb04f258020f62c4cf197e057f19ae79e37fc96dc3ecc68c21ecee4192660c864736f6c63430008000033",
					"opcodes": "PUSH1 0x80 PUSH1 0x40 MSTORE CALLVALUE DUP1 ISZERO PUSH2 0x10 JUMPI PUSH1 0x0 DUP1 REVERT JUMPDEST POP PUSH2 0x12B7 DUP1 PUSH2 0x20 PUSH1 0x0 CODECOPY PUSH1 0x0 RETURN INVALID PUSH1 0x80 PUSH1 0x40 MSTORE CALLVALUE DUP1 ISZERO PUSH2 0x10 JUMPI PUSH1 0x0 DUP1 REVERT JUMPDEST POP PUSH1 0x4 CALLDATASIZE LT PUSH2 0x62 JUMPI PUSH1 0x0 CALLDATALOAD PUSH1 0xE0 SHR DUP1 PUSH4 0x3DA27CA EQ PUSH2 0x67 JUMPI DUP1 PUSH4 0x51154567 EQ PUSH2 0x9A JUMPI DUP1 PUSH4 0x88B922D5 EQ PUSH2 0xB6 JUMPI DUP1 PUSH4 0xB1058C47 EQ PUSH2 0xD2 JUMPI DUP1 PUSH4 0xCF35BDD0 EQ PUSH2 0x102 JUMPI DUP1 PUSH4 0xDB9CC410 EQ PUSH2 0x133 JUMPI JUMPDEST PUSH1 0x0 DUP1 REVERT JUMPDEST PUSH2 0x81 PUSH1 0x4 DUP1 CALLDATASIZE SUB DUP2 ADD SWAP1 PUSH2 0x7C SWAP2 SWAP1 PUSH2 0xC43 JUMP JUMPDEST PUSH2 0x14F JUMP JUMPDEST PUSH1 0x40 MLOAD PUSH2 0x91 SWAP5 SWAP4 SWAP3 SWAP2 SWAP1 PUSH2 0xF67 JUMP JUMPDEST PUSH1 0x40 MLOAD DUP1 SWAP2 SUB SWAP1 RETURN JUMPDEST PUSH2 0xB4 PUSH1 0x4 DUP1 CALLDATASIZE SUB DUP2 ADD SWAP1 PUSH2 0xAF SWAP2 SWAP1 PUSH2 0xC02 JUMP JUMPDEST PUSH2 0x1F2 JUMP JUMPDEST STOP JUMPDEST PUSH2 0xD0 PUSH1 0x4 DUP1 CALLDATASIZE SUB DUP2 ADD SWAP1 PUSH2 0xCB SWAP2 SWAP1 PUSH2 0xC97 JUMP JUMPDEST PUSH2 0x683 JUMP JUMPDEST STOP JUMPDEST PUSH2 0xEC PUSH1 0x4 DUP1 CALLDATASIZE SUB DUP2 ADD SWAP1 PUSH2 0xE7 SWAP2 SWAP1 PUSH2 0xC02 JUMP JUMPDEST PUSH2 0x8C0 JUMP JUMPDEST PUSH1 0x40 MLOAD PUSH2 0xF9 SWAP2 SWAP1 PUSH2 0xF4C JUMP JUMPDEST PUSH1 0x40 MLOAD DUP1 SWAP2 SUB SWAP1 RETURN JUMPDEST PUSH2 0x11C PUSH1 0x4 DUP1 CALLDATASIZE SUB DUP2 ADD SWAP1 PUSH2 0x117 SWAP2 SWAP1 PUSH2 0xCFE JUMP JUMPDEST PUSH2 0x9B9 JUMP JUMPDEST PUSH1 0x40 MLOAD PUSH2 0x12A SWAP3 SWAP2 SWAP1 PUSH2 0xEDC JUMP JUMPDEST PUSH1 0x40 MLOAD DUP1 SWAP2 SUB SWAP1 RETURN JUMPDEST PUSH2 0x14D PUSH1 0x4 DUP1 CALLDATASIZE SUB DUP2 ADD SWAP1 PUSH2 0x148 SWAP2 SWAP1 PUSH2 0xC43 JUMP JUMPDEST PUSH2 0xA75 JUMP JUMPDEST STOP JUMPDEST PUSH1 0x1 DUP3 DUP1 MLOAD PUSH1 0x20 DUP2 ADD DUP3 ADD DUP1 MLOAD DUP5 DUP3 MSTORE PUSH1 0x20 DUP4 ADD PUSH1 0x20 DUP6 ADD KECCAK256 DUP2 DUP4 MSTORE DUP1 SWAP6 POP POP POP POP POP POP DUP2 DUP2 SLOAD DUP2 LT PUSH2 0x181 JUMPI PUSH1 0x0 DUP1 REVERT JUMPDEST SWAP1 PUSH1 0x0 MSTORE PUSH1 0x20 PUSH1 0x0 KECCAK256 SWAP1 PUSH1 0x4 MUL ADD PUSH1 0x0 SWAP2 POP SWAP2 POP POP DUP1 PUSH1 0x0 ADD SLOAD SWAP1 DUP1 PUSH1 0x1 ADD SLOAD SWAP1 DUP1 PUSH1 0x2 ADD PUSH1 0x0 SWAP1 SLOAD SWAP1 PUSH2 0x100 EXP SWAP1 DIV PUSH20 0xFFFFFFFFFFFFFFFFFFFFFFFFFFFFFFFFFFFFFFFF AND SWAP1 DUP1 PUSH1 0x3 ADD PUSH1 0x0 SWAP1 SLOAD SWAP1 PUSH2 0x100 EXP SWAP1 DIV PUSH20 0xFFFFFFFFFFFFFFFFFFFFFFFFFFFFFFFFFFFFFFFF AND SWAP1 POP DUP5 JUMP JUMPDEST PUSH1 0x0 JUMPDEST PUSH1 0x1 DUP3 PUSH1 0x40 MLOAD PUSH2 0x205 SWAP2 SWAP1 PUSH2 0xEAE JUMP JUMPDEST SWAP1 DUP2 MSTORE PUSH1 0x20 ADD PUSH1 0x40 MLOAD DUP1 SWAP2 SUB SWAP1 KECCAK256 DUP1 SLOAD SWAP1 POP DUP2 LT ISZERO PUSH2 0x67F JUMPI PUSH1 0x0 PUSH1 0x1 DUP4 PUSH1 0x40 MLOAD PUSH2 0x230 SWAP2 SWAP1 PUSH2 0xEAE JUMP JUMPDEST SWAP1 DUP2 MSTORE PUSH1 0x20 ADD PUSH1 0x40 MLOAD DUP1 SWAP2 SUB SWAP1 KECCAK256 DUP3 DUP2 SLOAD DUP2 LT PUSH2 0x276 JUMPI PUSH32 0x4E487B7100000000000000000000000000000000000000000000000000000000 PUSH1 0x0 MSTORE PUSH1 0x32 PUSH1 0x4 MSTORE PUSH1 0x24 PUSH1 0x0 REVERT JUMPDEST SWAP1 PUSH1 0x0 MSTORE PUSH1 0x20 PUSH1 0x0 KECCAK256 SWAP1 PUSH1 0x4 MUL ADD PUSH1 0x40 MLOAD DUP1 PUSH1 0x80 ADD PUSH1 0x40 MSTORE SWAP1 DUP2 PUSH1 0x0 DUP3 ADD SLOAD DUP2 MSTORE PUSH1 0x20 ADD PUSH1 0x1 DUP3 ADD SLOAD DUP2 MSTORE PUSH1 0x20 ADD PUSH1 0x2 DUP3 ADD PUSH1 0x0 SWAP1 SLOAD SWAP1 PUSH2 0x100 EXP SWAP1 DIV PUSH20 0xFFFFFFFFFFFFFFFFFFFFFFFFFFFFFFFFFFFFFFFF AND PUSH20 0xFFFFFFFFFFFFFFFFFFFFFFFFFFFFFFFFFFFFFFFF AND PUSH20 0xFFFFFFFFFFFFFFFFFFFFFFFFFFFFFFFFFFFFFFFF AND DUP2 MSTORE PUSH1 0x20 ADD PUSH1 0x3 DUP3 ADD PUSH1 0x0 SWAP1 SLOAD SWAP1 PUSH2 0x100 EXP SWAP1 DIV PUSH20 0xFFFFFFFFFFFFFFFFFFFFFFFFFFFFFFFFFFFFFFFF AND PUSH20 0xFFFFFFFFFFFFFFFFFFFFFFFFFFFFFFFFFFFFFFFF AND PUSH20 0xFFFFFFFFFFFFFFFFFFFFFFFFFFFFFFFFFFFFFFFF AND DUP2 MSTORE POP POP SWAP1 POP PUSH1 0x0 PUSH1 0x1 DUP4 PUSH2 0x360 SWAP2 SWAP1 PUSH2 0x1049 JUMP JUMPDEST SWAP1 POP JUMPDEST PUSH1 0x1 DUP5 PUSH1 0x40 MLOAD PUSH2 0x373 SWAP2 SWAP1 PUSH2 0xEAE JUMP JUMPDEST SWAP1 DUP2 MSTORE PUSH1 0x20 ADD PUSH1 0x40 MLOAD DUP1 SWAP2 SUB SWAP1 KECCAK256 DUP1 SLOAD SWAP1 POP DUP2 LT ISZERO PUSH2 0x66A JUMPI PUSH1 0x0 PUSH1 0x1 DUP6 PUSH1 0x40 MLOAD PUSH2 0x39E SWAP2 SWAP1 PUSH2 0xEAE JUMP JUMPDEST SWAP1 DUP2 MSTORE PUSH1 0x20 ADD PUSH1 0x40 MLOAD DUP1 SWAP2 SUB SWAP1 KECCAK256 DUP3 DUP2 SLOAD DUP2 LT PUSH2 0x3E4 JUMPI PUSH32 0x4E487B7100000000000000000000000000000000000000000000000000000000 PUSH1 0x0 MSTORE PUSH1 0x32 PUSH1 0x4 MSTORE PUSH1 0x24 PUSH1 0x0 REVERT JUMPDEST SWAP1 PUSH1 0x0 MSTORE PUSH1 0x20 PUSH1 0x0 KECCAK256 SWAP1 PUSH1 0x4 MUL ADD PUSH1 0x40 MLOAD DUP1 PUSH1 0x80 ADD PUSH1 0x40 MSTORE SWAP1 DUP2 PUSH1 0x0 DUP3 ADD SLOAD DUP2 MSTORE PUSH1 0x20 ADD PUSH1 0x1 DUP3 ADD SLOAD DUP2 MSTORE PUSH1 0x20 ADD PUSH1 0x2 DUP3 ADD PUSH1 0x0 SWAP1 SLOAD SWAP1 PUSH2 0x100 EXP SWAP1 DIV PUSH20 0xFFFFFFFFFFFFFFFFFFFFFFFFFFFFFFFFFFFFFFFF AND PUSH20 0xFFFFFFFFFFFFFFFFFFFFFFFFFFFFFFFFFFFFFFFF AND PUSH20 0xFFFFFFFFFFFFFFFFFFFFFFFFFFFFFFFFFFFFFFFF AND DUP2 MSTORE PUSH1 0x20 ADD PUSH1 0x3 DUP3 ADD PUSH1 0x0 SWAP1 SLOAD SWAP1 PUSH2 0x100 EXP SWAP1 DIV PUSH20 0xFFFFFFFFFFFFFFFFFFFFFFFFFFFFFFFFFFFFFFFF AND PUSH20 0xFFFFFFFFFFFFFFFFFFFFFFFFFFFFFFFFFFFFFFFF AND PUSH20 0xFFFFFFFFFFFFFFFFFFFFFFFFFFFFFFFFFFFFFFFF AND DUP2 MSTORE POP POP SWAP1 POP DUP1 PUSH1 0x0 ADD MLOAD DUP4 PUSH1 0x0 ADD MLOAD EQ DUP1 ISZERO PUSH2 0x4DE JUMPI POP DUP1 PUSH1 0x20 ADD MLOAD DUP4 PUSH1 0x20 ADD MLOAD GT ISZERO JUMPDEST ISZERO PUSH2 0x656 JUMPI PUSH1 0x0 DUP4 PUSH1 0x20 ADD DUP2 DUP2 MSTORE POP POP DUP3 PUSH1 0x20 ADD MLOAD DUP2 PUSH1 0x20 ADD DUP2 DUP2 MLOAD PUSH2 0x504 SWAP2 SWAP1 PUSH2 0x109F JUMP JUMPDEST SWAP2 POP DUP2 DUP2 MSTORE POP POP PUSH1 0x0 PUSH2 0x516 DUP7 PUSH2 0x8C0 JUMP JUMPDEST SWAP1 POP DUP4 PUSH1 0x20 ADD MLOAD PUSH1 0x0 DUP3 DUP2 SLOAD DUP2 LT PUSH2 0x557 JUMPI PUSH32 0x4E487B7100000000000000000000000000000000000000000000000000000000 PUSH1 0x0 MSTORE PUSH1 0x32 PUSH1 0x4 MSTORE PUSH1 0x24 PUSH1 0x0 REVERT JUMPDEST SWAP1 PUSH1 0x0 MSTORE PUSH1 0x20 PUSH1 0x0 KECCAK256 SWAP1 PUSH1 0x2 MUL ADD PUSH1 0x1 ADD PUSH1 0x0 DUP3 DUP3 SLOAD PUSH2 0x577 SWAP2 SWAP1 PUSH2 0x109F JUMP JUMPDEST SWAP3 POP POP DUP2 SWAP1 SSTORE POP DUP2 PUSH1 0x20 ADD MLOAD PUSH1 0x0 DUP3 DUP2 SLOAD DUP2 LT PUSH2 0x5BD JUMPI PUSH32 0x4E487B7100000000000000000000000000000000000000000000000000000000 PUSH1 0x0 MSTORE PUSH1 0x32 PUSH1 0x4 MSTORE PUSH1 0x24 PUSH1 0x0 REVERT JUMPDEST SWAP1 PUSH1 0x0 MSTORE PUSH1 0x20 PUSH1 0x0 KECCAK256 SWAP1 PUSH1 0x2 MUL ADD PUSH1 0x1 ADD PUSH1 0x0 DUP3 DUP3 SLOAD PUSH2 0x5DD SWAP2 SWAP1 PUSH2 0x1049 JUMP JUMPDEST SWAP3 POP POP DUP2 SWAP1 SSTORE POP CALLER DUP5 PUSH1 0x40 ADD SWAP1 PUSH20 0xFFFFFFFFFFFFFFFFFFFFFFFFFFFFFFFFFFFFFFFF AND SWAP1 DUP2 PUSH20 0xFFFFFFFFFFFFFFFFFFFFFFFFFFFFFFFFFFFFFFFF AND DUP2 MSTORE POP POP CALLER DUP3 PUSH1 0x60 ADD SWAP1 PUSH20 0xFFFFFFFFFFFFFFFFFFFFFFFFFFFFFFFFFFFFFFFF AND SWAP1 DUP2 PUSH20 0xFFFFFFFFFFFFFFFFFFFFFFFFFFFFFFFFFFFFFFFF AND DUP2 MSTORE POP POP POP JUMPDEST POP DUP1 DUP1 PUSH2 0x662 SWAP1 PUSH2 0x1183 JUMP JUMPDEST SWAP2 POP POP PUSH2 0x363 JUMP JUMPDEST POP POP DUP1 DUP1 PUSH2 0x677 SWAP1 PUSH2 0x1183 JUMP JUMPDEST SWAP2 POP POP PUSH2 0x1F5 JUMP JUMPDEST POP POP JUMP JUMPDEST PUSH1 0x0 PUSH2 0x68E DUP5 PUSH2 0x8C0 JUMP JUMPDEST SWAP1 POP PUSH32 0xFFFFFFFFFFFFFFFFFFFFFFFFFFFFFFFFFFFFFFFFFFFFFFFFFFFFFFFFFFFFFFFF DUP2 EQ ISZERO PUSH2 0x6F3 JUMPI PUSH1 0x40 MLOAD PUSH32 0x8C379A000000000000000000000000000000000000000000000000000000000 DUP2 MSTORE PUSH1 0x4 ADD PUSH2 0x6EA SWAP1 PUSH2 0xF0C JUMP JUMPDEST PUSH1 0x40 MLOAD DUP1 SWAP2 SUB SWAP1 REVERT JUMPDEST DUP2 PUSH1 0x0 DUP3 DUP2 SLOAD DUP2 LT PUSH2 0x72E JUMPI PUSH32 0x4E487B7100000000000000000000000000000000000000000000000000000000 PUSH1 0x0 MSTORE PUSH1 0x32 PUSH1 0x4 MSTORE PUSH1 0x24 PUSH1 0x0 REVERT JUMPDEST SWAP1 PUSH1 0x0 MSTORE PUSH1 0x20 PUSH1 0x0 KECCAK256 SWAP1 PUSH1 0x2 MUL ADD PUSH1 0x1 ADD SLOAD LT ISZERO PUSH2 0x781 JUMPI PUSH1 0x40 MLOAD PUSH32 0x8C379A000000000000000000000000000000000000000000000000000000000 DUP2 MSTORE PUSH1 0x4 ADD PUSH2 0x778 SWAP1 PUSH2 0xF2C JUMP JUMPDEST PUSH1 0x40 MLOAD DUP1 SWAP2 SUB SWAP1 REVERT JUMPDEST PUSH1 0x1 DUP5 PUSH1 0x40 MLOAD PUSH2 0x791 SWAP2 SWAP1 PUSH2 0xEAE JUMP JUMPDEST SWAP1 DUP2 MSTORE PUSH1 0x20 ADD PUSH1 0x40 MLOAD DUP1 SWAP2 SUB SWAP1 KECCAK256 PUSH1 0x40 MLOAD DUP1 PUSH1 0x80 ADD PUSH1 0x40 MSTORE DUP1 DUP6 DUP2 MSTORE PUSH1 0x20 ADD DUP5 DUP2 MSTORE PUSH1 0x20 ADD CALLER PUSH20 0xFFFFFFFFFFFFFFFFFFFFFFFFFFFFFFFFFFFFFFFF AND DUP2 MSTORE PUSH1 0x20 ADD PUSH1 0x0 PUSH20 0xFFFFFFFFFFFFFFFFFFFFFFFFFFFFFFFFFFFFFFFF AND DUP2 MSTORE POP SWAP1 DUP1 PUSH1 0x1 DUP2 SLOAD ADD DUP1 DUP3 SSTORE DUP1 SWAP2 POP POP PUSH1 0x1 SWAP1 SUB SWAP1 PUSH1 0x0 MSTORE PUSH1 0x20 PUSH1 0x0 KECCAK256 SWAP1 PUSH1 0x4 MUL ADD PUSH1 0x0 SWAP1 SWAP2 SWAP1 SWAP2 SWAP1 SWAP2 POP PUSH1 0x0 DUP3 ADD MLOAD DUP2 PUSH1 0x0 ADD SSTORE PUSH1 0x20 DUP3 ADD MLOAD DUP2 PUSH1 0x1 ADD SSTORE PUSH1 0x40 DUP3 ADD MLOAD DUP2 PUSH1 0x2 ADD PUSH1 0x0 PUSH2 0x100 EXP DUP2 SLOAD DUP2 PUSH20 0xFFFFFFFFFFFFFFFFFFFFFFFFFFFFFFFFFFFFFFFF MUL NOT AND SWAP1 DUP4 PUSH20 0xFFFFFFFFFFFFFFFFFFFFFFFFFFFFFFFFFFFFFFFF AND MUL OR SWAP1 SSTORE POP PUSH1 0x60 DUP3 ADD MLOAD DUP2 PUSH1 0x3 ADD PUSH1 0x0 PUSH2 0x100 EXP DUP2 SLOAD DUP2 PUSH20 0xFFFFFFFFFFFFFFFFFFFFFFFFFFFFFFFFFFFFFFFF MUL NOT AND SWAP1 DUP4 PUSH20 0xFFFFFFFFFFFFFFFFFFFFFFFFFFFFFFFFFFFFFFFF AND MUL OR SWAP1 SSTORE POP POP POP POP POP POP POP JUMP JUMPDEST PUSH1 0x0 DUP1 PUSH1 0x0 SWAP1 POP JUMPDEST PUSH1 0x0 DUP1 SLOAD SWAP1 POP DUP2 LT ISZERO PUSH2 0x98F JUMPI DUP3 PUSH1 0x40 MLOAD PUSH1 0x20 ADD PUSH2 0x8E6 SWAP2 SWAP1 PUSH2 0xEAE JUMP JUMPDEST PUSH1 0x40 MLOAD PUSH1 0x20 DUP2 DUP4 SUB SUB DUP2 MSTORE SWAP1 PUSH1 0x40 MSTORE DUP1 MLOAD SWAP1 PUSH1 0x20 ADD KECCAK256 PUSH1 0x0 DUP3 DUP2 SLOAD DUP2 LT PUSH2 0x936 JUMPI PUSH32 0x4E487B7100000000000000000000000000000000000000000000000000000000 PUSH1 0x0 MSTORE PUSH1 0x32 PUSH1 0x4 MSTORE PUSH1 0x24 PUSH1 0x0 REVERT JUMPDEST SWAP1 PUSH1 0x0 MSTORE PUSH1 0x20 PUSH1 0x0 KECCAK256 SWAP1 PUSH1 0x2 MUL ADD PUSH1 0x0 ADD PUSH1 0x40 MLOAD PUSH1 0x20 ADD PUSH2 0x957 SWAP2 SWAP1 PUSH2 0xEC5 JUMP JUMPDEST PUSH1 0x40 MLOAD PUSH1 0x20 DUP2 DUP4 SUB SUB DUP2 MSTORE SWAP1 PUSH1 0x40 MSTORE DUP1 MLOAD SWAP1 PUSH1 0x20 ADD KECCAK256 EQ ISZERO PUSH2 0x97C JUMPI DUP1 SWAP2 POP POP PUSH2 0x9B4 JUMP JUMPDEST DUP1 DUP1 PUSH2 0x987 SWAP1 PUSH2 0x1183 JUMP JUMPDEST SWAP2 POP POP PUSH2 0x8C8 JUMP JUMPDEST POP PUSH32 0xFFFFFFFFFFFFFFFFFFFFFFFFFFFFFFFFFFFFFFFFFFFFFFFFFFFFFFFFFFFFFFFF SWAP1 POP JUMPDEST SWAP2 SWAP1 POP JUMP JUMPDEST PUSH1 0x0 DUP2 DUP2 SLOAD DUP2 LT PUSH2 0x9C9 JUMPI PUSH1 0x0 DUP1 REVERT JUMPDEST SWAP1 PUSH1 0x0 MSTORE PUSH1 0x20 PUSH1 0x0 KECCAK256 SWAP1 PUSH1 0x2 MUL ADD PUSH1 0x0 SWAP2 POP SWAP1 POP DUP1 PUSH1 0x0 ADD DUP1 SLOAD PUSH2 0x9EC SWAP1 PUSH2 0x1151 JUMP JUMPDEST DUP1 PUSH1 0x1F ADD PUSH1 0x20 DUP1 SWAP2 DIV MUL PUSH1 0x20 ADD PUSH1 0x40 MLOAD SWAP1 DUP2 ADD PUSH1 0x40 MSTORE DUP1 SWAP3 SWAP2 SWAP1 DUP2 DUP2 MSTORE PUSH1 0x20 ADD DUP3 DUP1 SLOAD PUSH2 0xA18 SWAP1 PUSH2 0x1151 JUMP JUMPDEST DUP1 ISZERO PUSH2 0xA65 JUMPI DUP1 PUSH1 0x1F LT PUSH2 0xA3A JUMPI PUSH2 0x100 DUP1 DUP4 SLOAD DIV MUL DUP4 MSTORE SWAP2 PUSH1 0x20 ADD SWAP2 PUSH2 0xA65 JUMP JUMPDEST DUP3 ADD SWAP2 SWAP1 PUSH1 0x0 MSTORE PUSH1 0x20 PUSH1 0x0 KECCAK256 SWAP1 JUMPDEST DUP2 SLOAD DUP2 MSTORE SWAP1 PUSH1 0x1 ADD SWAP1 PUSH1 0x20 ADD DUP1 DUP4 GT PUSH2 0xA48 JUMPI DUP3 SWAP1 SUB PUSH1 0x1F AND DUP3 ADD SWAP2 JUMPDEST POP POP POP POP POP SWAP1 DUP1 PUSH1 0x1 ADD SLOAD SWAP1 POP DUP3 JUMP JUMPDEST PUSH1 0x0 PUSH1 0x40 MLOAD DUP1 PUSH1 0x40 ADD PUSH1 0x40 MSTORE DUP1 DUP5 DUP2 MSTORE PUSH1 0x20 ADD DUP4 DUP2 MSTORE POP SWAP1 DUP1 PUSH1 0x1 DUP2 SLOAD ADD DUP1 DUP3 SSTORE DUP1 SWAP2 POP POP PUSH1 0x1 SWAP1 SUB SWAP1 PUSH1 0x0 MSTORE PUSH1 0x20 PUSH1 0x0 KECCAK256 SWAP1 PUSH1 0x2 MUL ADD PUSH1 0x0 SWAP1 SWAP2 SWAP1 SWAP2 SWAP1 SWAP2 POP PUSH1 0x0 DUP3 ADD MLOAD DUP2 PUSH1 0x0 ADD SWAP1 DUP1 MLOAD SWAP1 PUSH1 0x20 ADD SWAP1 PUSH2 0xAD1 SWAP3 SWAP2 SWAP1 PUSH2 0xAE2 JUMP JUMPDEST POP PUSH1 0x20 DUP3 ADD MLOAD DUP2 PUSH1 0x1 ADD SSTORE POP POP POP POP JUMP JUMPDEST DUP3 DUP1 SLOAD PUSH2 0xAEE SWAP1 PUSH2 0x1151 JUMP JUMPDEST SWAP1 PUSH1 0x0 MSTORE PUSH1 0x20 PUSH1 0x0 KECCAK256 SWAP1 PUSH1 0x1F ADD PUSH1 0x20 SWAP1 DIV DUP2 ADD SWAP3 DUP3 PUSH2 0xB10 JUMPI PUSH1 0x0 DUP6 SSTORE PUSH2 0xB57 JUMP JUMPDEST DUP3 PUSH1 0x1F LT PUSH2 0xB29 JUMPI DUP1 MLOAD PUSH1 0xFF NOT AND DUP4 DUP1 ADD OR DUP6 SSTORE PUSH2 0xB57 JUMP JUMPDEST DUP3 DUP1 ADD PUSH1 0x1 ADD DUP6 SSTORE DUP3 ISZERO PUSH2 0xB57 JUMPI SWAP2 DUP3 ADD JUMPDEST DUP3 DUP2 GT ISZERO PUSH2 0xB56 JUMPI DUP3 MLOAD DUP3 SSTORE SWAP2 PUSH1 0x20 ADD SWAP2 SWAP1 PUSH1 0x1 ADD SWAP1 PUSH2 0xB3B JUMP JUMPDEST JUMPDEST POP SWAP1 POP PUSH2 0xB64 SWAP2 SWAP1 PUSH2 0xB68 JUMP JUMPDEST POP SWAP1 JUMP JUMPDEST JUMPDEST DUP1 DUP3 GT ISZERO PUSH2 0xB81 JUMPI PUSH1 0x0 DUP2 PUSH1 0x0 SWAP1 SSTORE POP PUSH1 0x1 ADD PUSH2 0xB69 JUMP JUMPDEST POP SWAP1 JUMP JUMPDEST PUSH1 0x0 PUSH2 0xB98 PUSH2 0xB93 DUP5 PUSH2 0xFDD JUMP JUMPDEST PUSH2 0xFAC JUMP JUMPDEST SWAP1 POP DUP3 DUP2 MSTORE PUSH1 0x20 DUP2 ADD DUP5 DUP5 DUP5 ADD GT ISZERO PUSH2 0xBB0 JUMPI PUSH1 0x0 DUP1 REVERT JUMPDEST PUSH2 0xBBB DUP5 DUP3 DUP6 PUSH2 0x110F JUMP JUMPDEST POP SWAP4 SWAP3 POP POP POP JUMP JUMPDEST PUSH1 0x0 DUP3 PUSH1 0x1F DUP4 ADD SLT PUSH2 0xBD4 JUMPI PUSH1 0x0 DUP1 REVERT JUMPDEST DUP2 CALLDATALOAD PUSH2 0xBE4 DUP5 DUP3 PUSH1 0x20 DUP7 ADD PUSH2 0xB85 JUMP JUMPDEST SWAP2 POP POP SWAP3 SWAP2 POP POP JUMP JUMPDEST PUSH1 0x0 DUP2 CALLDATALOAD SWAP1 POP PUSH2 0xBFC DUP2 PUSH2 0x126A JUMP JUMPDEST SWAP3 SWAP2 POP POP JUMP JUMPDEST PUSH1 0x0 PUSH1 0x20 DUP3 DUP5 SUB SLT ISZERO PUSH2 0xC14 JUMPI PUSH1 0x0 DUP1 REVERT JUMPDEST PUSH1 0x0 DUP3 ADD CALLDATALOAD PUSH8 0xFFFFFFFFFFFFFFFF DUP2 GT ISZERO PUSH2 0xC2E JUMPI PUSH1 0x0 DUP1 REVERT JUMPDEST PUSH2 0xC3A DUP5 DUP3 DUP6 ADD PUSH2 0xBC3 JUMP JUMPDEST SWAP2 POP POP SWAP3 SWAP2 POP POP JUMP JUMPDEST PUSH1 0x0 DUP1 PUSH1 0x40 DUP4 DUP6 SUB SLT ISZERO PUSH2 0xC56 JUMPI PUSH1 0x0 DUP1 REVERT JUMPDEST PUSH1 0x0 DUP4 ADD CALLDATALOAD PUSH8 0xFFFFFFFFFFFFFFFF DUP2 GT ISZERO PUSH2 0xC70 JUMPI PUSH1 0x0 DUP1 REVERT JUMPDEST PUSH2 0xC7C DUP6 DUP3 DUP7 ADD PUSH2 0xBC3 JUMP JUMPDEST SWAP3 POP POP PUSH1 0x20 PUSH2 0xC8D DUP6 DUP3 DUP7 ADD PUSH2 0xBED JUMP JUMPDEST SWAP2 POP POP SWAP3 POP SWAP3 SWAP1 POP JUMP JUMPDEST PUSH1 0x0 DUP1 PUSH1 0x0 PUSH1 0x60 DUP5 DUP7 SUB SLT ISZERO PUSH2 0xCAC JUMPI PUSH1 0x0 DUP1 REVERT JUMPDEST PUSH1 0x0 DUP5 ADD CALLDATALOAD PUSH8 0xFFFFFFFFFFFFFFFF DUP2 GT ISZERO PUSH2 0xCC6 JUMPI PUSH1 0x0 DUP1 REVERT JUMPDEST PUSH2 0xCD2 DUP7 DUP3 DUP8 ADD PUSH2 0xBC3 JUMP JUMPDEST SWAP4 POP POP PUSH1 0x20 PUSH2 0xCE3 DUP7 DUP3 DUP8 ADD PUSH2 0xBED JUMP JUMPDEST SWAP3 POP POP PUSH1 0x40 PUSH2 0xCF4 DUP7 DUP3 DUP8 ADD PUSH2 0xBED JUMP JUMPDEST SWAP2 POP POP SWAP3 POP SWAP3 POP SWAP3 JUMP JUMPDEST PUSH1 0x0 PUSH1 0x20 DUP3 DUP5 SUB SLT ISZERO PUSH2 0xD10 JUMPI PUSH1 0x0 DUP1 REVERT JUMPDEST PUSH1 0x0 PUSH2 0xD1E DUP5 DUP3 DUP6 ADD PUSH2 0xBED JUMP JUMPDEST SWAP2 POP POP SWAP3 SWAP2 POP POP JUMP JUMPDEST PUSH2 0xD30 DUP2 PUSH2 0x10D3 JUMP JUMPDEST DUP3 MSTORE POP POP JUMP JUMPDEST PUSH1 0x0 PUSH2 0xD41 DUP3 PUSH2 0x1022 JUMP JUMPDEST PUSH2 0xD4B DUP2 DUP6 PUSH2 0x102D JUMP JUMPDEST SWAP4 POP PUSH2 0xD5B DUP2 DUP6 PUSH1 0x20 DUP7 ADD PUSH2 0x111E JUMP JUMPDEST PUSH2 0xD64 DUP2 PUSH2 0x1259 JUMP JUMPDEST DUP5 ADD SWAP2 POP POP SWAP3 SWAP2 POP POP JUMP JUMPDEST PUSH1 0x0 PUSH2 0xD7A DUP3 PUSH2 0x1022 JUMP JUMPDEST PUSH2 0xD84 DUP2 DUP6 PUSH2 0x103E JUMP JUMPDEST SWAP4 POP PUSH2 0xD94 DUP2 DUP6 PUSH1 0x20 DUP7 ADD PUSH2 0x111E JUMP JUMPDEST DUP1 DUP5 ADD SWAP2 POP POP SWAP3 SWAP2 POP POP JUMP JUMPDEST PUSH1 0x0 DUP2 SLOAD PUSH2 0xDAD DUP2 PUSH2 0x1151 JUMP JUMPDEST PUSH2 0xDB7 DUP2 DUP7 PUSH2 0x103E JUMP JUMPDEST SWAP5 POP PUSH1 0x1 DUP3 AND PUSH1 0x0 DUP2 EQ PUSH2 0xDD2 JUMPI PUSH1 0x1 DUP2 EQ PUSH2 0xDE3 JUMPI PUSH2 0xE16 JUMP JUMPDEST PUSH1 0xFF NOT DUP4 AND DUP7 MSTORE DUP2 DUP7 ADD SWAP4 POP PUSH2 0xE16 JUMP JUMPDEST PUSH2 0xDEC DUP6 PUSH2 0x100D JUMP JUMPDEST PUSH1 0x0 JUMPDEST DUP4 DUP2 LT ISZERO PUSH2 0xE0E JUMPI DUP2 SLOAD DUP2 DUP10 ADD MSTORE PUSH1 0x1 DUP3 ADD SWAP2 POP PUSH1 0x20 DUP2 ADD SWAP1 POP PUSH2 0xDEF JUMP JUMPDEST DUP4 DUP9 ADD SWAP6 POP POP POP JUMPDEST POP POP POP SWAP3 SWAP2 POP POP JUMP JUMPDEST PUSH1 0x0 PUSH2 0xE2C PUSH1 0xF DUP4 PUSH2 0x102D JUMP JUMPDEST SWAP2 POP PUSH32 0x4173736574206E6F7420666F756E640000000000000000000000000000000000 PUSH1 0x0 DUP4 ADD MSTORE PUSH1 0x20 DUP3 ADD SWAP1 POP SWAP2 SWAP1 POP JUMP JUMPDEST PUSH1 0x0 PUSH2 0xE6C PUSH1 0x19 DUP4 PUSH2 0x102D JUMP JUMPDEST SWAP2 POP PUSH32 0x496E73756666696369656E7420617373657420737570706C7900000000000000 PUSH1 0x0 DUP4 ADD MSTORE PUSH1 0x20 DUP3 ADD SWAP1 POP SWAP2 SWAP1 POP JUMP JUMPDEST PUSH2 0xEA8 DUP2 PUSH2 0x1105 JUMP JUMPDEST DUP3 MSTORE POP POP JUMP JUMPDEST PUSH1 0x0 PUSH2 0xEBA DUP3 DUP5 PUSH2 0xD6F JUMP JUMPDEST SWAP2 POP DUP2 SWAP1 POP SWAP3 SWAP2 POP POP JUMP JUMPDEST PUSH1 0x0 PUSH2 0xED1 DUP3 DUP5 PUSH2 0xDA0 JUMP JUMPDEST SWAP2 POP DUP2 SWAP1 POP SWAP3 SWAP2 POP POP JUMP JUMPDEST PUSH1 0x0 PUSH1 0x40 DUP3 ADD SWAP1 POP DUP2 DUP2 SUB PUSH1 0x0 DUP4 ADD MSTORE PUSH2 0xEF6 DUP2 DUP6 PUSH2 0xD36 JUMP JUMPDEST SWAP1 POP PUSH2 0xF05 PUSH1 0x20 DUP4 ADD DUP5 PUSH2 0xE9F JUMP JUMPDEST SWAP4 SWAP3 POP POP POP JUMP JUMPDEST PUSH1 0x0 PUSH1 0x20 DUP3 ADD SWAP1 POP DUP2 DUP2 SUB PUSH1 0x0 DUP4 ADD MSTORE PUSH2 0xF25 DUP2 PUSH2 0xE1F JUMP JUMPDEST SWAP1 POP SWAP2 SWAP1 POP JUMP JUMPDEST PUSH1 0x0 PUSH1 0x20 DUP3 ADD SWAP1 POP DUP2 DUP2 SUB PUSH1 0x0 DUP4 ADD MSTORE PUSH2 0xF45 DUP2 PUSH2 0xE5F JUMP JUMPDEST SWAP1 POP SWAP2 SWAP1 POP JUMP JUMPDEST PUSH1 0x0 PUSH1 0x20 DUP3 ADD SWAP1 POP PUSH2 0xF61 PUSH1 0x0 DUP4 ADD DUP5 PUSH2 0xE9F JUMP JUMPDEST SWAP3 SWAP2 POP POP JUMP JUMPDEST PUSH1 0x0 PUSH1 0x80 DUP3 ADD SWAP1 POP PUSH2 0xF7C PUSH1 0x0 DUP4 ADD DUP8 PUSH2 0xE9F JUMP JUMPDEST PUSH2 0xF89 PUSH1 0x20 DUP4 ADD DUP7 PUSH2 0xE9F JUMP JUMPDEST PUSH2 0xF96 PUSH1 0x40 DUP4 ADD DUP6 PUSH2 0xD27 JUMP JUMPDEST PUSH2 0xFA3 PUSH1 0x60 DUP4 ADD DUP5 PUSH2 0xD27 JUMP JUMPDEST SWAP6 SWAP5 POP POP POP POP POP JUMP JUMPDEST PUSH1 0x0 PUSH1 0x40 MLOAD SWAP1 POP DUP2 DUP2 ADD DUP2 DUP2 LT PUSH8 0xFFFFFFFFFFFFFFFF DUP3 GT OR ISZERO PUSH2 0xFD3 JUMPI PUSH2 0xFD2 PUSH2 0x122A JUMP JUMPDEST JUMPDEST DUP1 PUSH1 0x40 MSTORE POP SWAP2 SWAP1 POP JUMP JUMPDEST PUSH1 0x0 PUSH8 0xFFFFFFFFFFFFFFFF DUP3 GT ISZERO PUSH2 0xFF8 JUMPI PUSH2 0xFF7 PUSH2 0x122A JUMP JUMPDEST JUMPDEST PUSH1 0x1F NOT PUSH1 0x1F DUP4 ADD AND SWAP1 POP PUSH1 0x20 DUP2 ADD SWAP1 POP SWAP2 SWAP1 POP JUMP JUMPDEST PUSH1 0x0 DUP2 SWAP1 POP DUP2 PUSH1 0x0 MSTORE PUSH1 0x20 PUSH1 0x0 KECCAK256 SWAP1 POP SWAP2 SWAP1 POP JUMP JUMPDEST PUSH1 0x0 DUP2 MLOAD SWAP1 POP SWAP2 SWAP1 POP JUMP JUMPDEST PUSH1 0x0 DUP3 DUP3 MSTORE PUSH1 0x20 DUP3 ADD SWAP1 POP SWAP3 SWAP2 POP POP JUMP JUMPDEST PUSH1 0x0 DUP2 SWAP1 POP SWAP3 SWAP2 POP POP JUMP JUMPDEST PUSH1 0x0 PUSH2 0x1054 DUP3 PUSH2 0x1105 JUMP JUMPDEST SWAP2 POP PUSH2 0x105F DUP4 PUSH2 0x1105 JUMP JUMPDEST SWAP3 POP DUP3 PUSH32 0xFFFFFFFFFFFFFFFFFFFFFFFFFFFFFFFFFFFFFFFFFFFFFFFFFFFFFFFFFFFFFFFF SUB DUP3 GT ISZERO PUSH2 0x1094 JUMPI PUSH2 0x1093 PUSH2 0x11CC JUMP JUMPDEST JUMPDEST DUP3 DUP3 ADD SWAP1 POP SWAP3 SWAP2 POP POP JUMP JUMPDEST PUSH1 0x0 PUSH2 0x10AA DUP3 PUSH2 0x1105 JUMP JUMPDEST SWAP2 POP PUSH2 0x10B5 DUP4 PUSH2 0x1105 JUMP JUMPDEST SWAP3 POP DUP3 DUP3 LT ISZERO PUSH2 0x10C8 JUMPI PUSH2 0x10C7 PUSH2 0x11CC JUMP JUMPDEST JUMPDEST DUP3 DUP3 SUB SWAP1 POP SWAP3 SWAP2 POP POP JUMP JUMPDEST PUSH1 0x0 PUSH2 0x10DE DUP3 PUSH2 0x10E5 JUMP JUMPDEST SWAP1 POP SWAP2 SWAP1 POP JUMP JUMPDEST PUSH1 0x0 PUSH20 0xFFFFFFFFFFFFFFFFFFFFFFFFFFFFFFFFFFFFFFFF DUP3 AND SWAP1 POP SWAP2 SWAP1 POP JUMP JUMPDEST PUSH1 0x0 DUP2 SWAP1 POP SWAP2 SWAP1 POP JUMP JUMPDEST DUP3 DUP2 DUP4 CALLDATACOPY PUSH1 0x0 DUP4 DUP4 ADD MSTORE POP POP POP JUMP JUMPDEST PUSH1 0x0 JUMPDEST DUP4 DUP2 LT ISZERO PUSH2 0x113C JUMPI DUP1 DUP3 ADD MLOAD DUP2 DUP5 ADD MSTORE PUSH1 0x20 DUP2 ADD SWAP1 POP PUSH2 0x1121 JUMP JUMPDEST DUP4 DUP2 GT ISZERO PUSH2 0x114B JUMPI PUSH1 0x0 DUP5 DUP5 ADD MSTORE JUMPDEST POP POP POP POP JUMP JUMPDEST PUSH1 0x0 PUSH1 0x2 DUP3 DIV SWAP1 POP PUSH1 0x1 DUP3 AND DUP1 PUSH2 0x1169 JUMPI PUSH1 0x7F DUP3 AND SWAP2 POP JUMPDEST PUSH1 0x20 DUP3 LT DUP2 EQ ISZERO PUSH2 0x117D JUMPI PUSH2 0x117C PUSH2 0x11FB JUMP JUMPDEST JUMPDEST POP SWAP2 SWAP1 POP JUMP JUMPDEST PUSH1 0x0 PUSH2 0x118E DUP3 PUSH2 0x1105 JUMP JUMPDEST SWAP2 POP PUSH32 0xFFFFFFFFFFFFFFFFFFFFFFFFFFFFFFFFFFFFFFFFFFFFFFFFFFFFFFFFFFFFFFFF DUP3 EQ ISZERO PUSH2 0x11C1 JUMPI PUSH2 0x11C0 PUSH2 0x11CC JUMP JUMPDEST JUMPDEST PUSH1 0x1 DUP3 ADD SWAP1 POP SWAP2 SWAP1 POP JUMP JUMPDEST PUSH32 0x4E487B7100000000000000000000000000000000000000000000000000000000 PUSH1 0x0 MSTORE PUSH1 0x11 PUSH1 0x4 MSTORE PUSH1 0x24 PUSH1 0x0 REVERT JUMPDEST PUSH32 0x4E487B7100000000000000000000000000000000000000000000000000000000 PUSH1 0x0 MSTORE PUSH1 0x22 PUSH1 0x4 MSTORE PUSH1 0x24 PUSH1 0x0 REVERT JUMPDEST PUSH32 0x4E487B7100000000000000000000000000000000000000000000000000000000 PUSH1 0x0 MSTORE PUSH1 0x41 PUSH1 0x4 MSTORE PUSH1 0x24 PUSH1 0x0 REVERT JUMPDEST PUSH1 0x0 PUSH1 0x1F NOT PUSH1 0x1F DUP4 ADD AND SWAP1 POP SWAP2 SWAP1 POP JUMP JUMPDEST PUSH2 0x1273 DUP2 PUSH2 0x1105 JUMP JUMPDEST DUP2 EQ PUSH2 0x127E JUMPI PUSH1 0x0 DUP1 REVERT JUMPDEST POP JUMP INVALID LOG2 PUSH5 0x6970667358 0x22 SLT KECCAK256 JUMPDEST 0xB0 0x4F 0x25 DUP1 KECCAK256 0xF6 0x2C 0x4C CALL SWAP8 0xE0 JUMPI CALL SWAP11 0xE7 SWAP15 CALLDATACOPY 0xFC SWAP7 0xDC RETURNDATACOPY 0xCC PUSH9 0xC21ECEE4192660C864 PUSH20 0x6F6C634300080000330000000000000000000000 "
				},
				"gasEstimates": {
					"creation": {
						"codeDepositCost": "958200",
						"executionCost": "994",
						"totalCost": "959194"
					},
					"external": {
						"assets(uint256)": "infinite",
						"createAsset(string,uint256)": "infinite",
						"findAssetIndex(string)": "infinite",
						"matchOrders(string)": "infinite",
						"orders(string,uint256)": "infinite",
						"placeOrder(string,uint256,uint256)": "infinite"
					}
				},
				"methodIdentifiers": {
					"assets(uint256)": "cf35bdd0",
					"createAsset(string,uint256)": "db9cc410",
					"findAssetIndex(string)": "b1058c47",
					"matchOrders(string)": "51154567",
					"orders(string,uint256)": "03da27ca",
					"placeOrder(string,uint256,uint256)": "88b922d5"
				}
			},
			"storageLayout": {
				"storage": [
					{
						"astId": 19,
						"contract": "contracts/sharing_digital_assets.sol:Exchange",
						"label": "assets",
						"offset": 0,
						"slot": "0",
						"type": "t_array(t_struct(Asset)6_storage)dyn_storage"
					},
					{
						"astId": 25,
						"contract": "contracts/sharing_digital_assets.sol:Exchange",
						"label": "orders",
						"offset": 0,
						"slot": "1",
						"type": "t_mapping(t_string_memory_ptr,t_array(t_struct(Order)15_storage)dyn_storage)"
					}
				],
				"types": {
					"t_address": {
						"encoding": "inplace",
						"label": "address",
						"numberOfBytes": "20"
					},
					"t_array(t_struct(Asset)6_storage)dyn_storage": {
						"base": "t_struct(Asset)6_storage",
						"encoding": "dynamic_array",
						"label": "struct Exchange.Asset[]",
						"numberOfBytes": "32"
					},
					"t_array(t_struct(Order)15_storage)dyn_storage": {
						"base": "t_struct(Order)15_storage",
						"encoding": "dynamic_array",
						"label": "struct Exchange.Order[]",
						"numberOfBytes": "32"
					},
					"t_mapping(t_string_memory_ptr,t_array(t_struct(Order)15_storage)dyn_storage)": {
						"encoding": "mapping",
						"key": "t_string_memory_ptr",
						"label": "mapping(string => struct Exchange.Order[])",
						"numberOfBytes": "32",
						"value": "t_array(t_struct(Order)15_storage)dyn_storage"
					},
					"t_string_memory_ptr": {
						"encoding": "bytes",
						"label": "string",
						"numberOfBytes": "32"
					},
					"t_string_storage": {
						"encoding": "bytes",
						"label": "string",
						"numberOfBytes": "32"
					},
					"t_struct(Asset)6_storage": {
						"encoding": "inplace",
						"label": "struct Exchange.Asset",
						"members": [
							{
								"astId": 3,
								"contract": "contracts/sharing_digital_assets.sol:Exchange",
								"label": "symbol",
								"offset": 0,
								"slot": "0",
								"type": "t_string_storage"
							},
							{
								"astId": 5,
								"contract": "contracts/sharing_digital_assets.sol:Exchange",
								"label": "totalSupply",
								"offset": 0,
								"slot": "1",
								"type": "t_uint256"
							}
						],
						"numberOfBytes": "64"
					},
					"t_struct(Order)15_storage": {
						"encoding": "inplace",
						"label": "struct Exchange.Order",
						"members": [
							{
								"astId": 8,
								"contract": "contracts/sharing_digital_assets.sol:Exchange",
								"label": "price",
								"offset": 0,
								"slot": "0",
								"type": "t_uint256"
							},
							{
								"astId": 10,
								"contract": "contracts/sharing_digital_assets.sol:Exchange",
								"label": "amount",
								"offset": 0,
								"slot": "1",
								"type": "t_uint256"
							},
							{
								"astId": 12,
								"contract": "contracts/sharing_digital_assets.sol:Exchange",
								"label": "maker",
								"offset": 0,
								"slot": "2",
								"type": "t_address"
							},
							{
								"astId": 14,
								"contract": "contracts/sharing_digital_assets.sol:Exchange",
								"label": "taker",
								"offset": 0,
								"slot": "3",
								"type": "t_address"
							}
						],
						"numberOfBytes": "128"
					},
					"t_uint256": {
						"encoding": "inplace",
						"label": "uint256",
						"numberOfBytes": "32"
					}
				}
			},
			"userdoc": {
				"kind": "user",
				"methods": {},
				"version": 1
			}
		}
	}
}