{
	"contracts/lockbox.sol": {
		"Safe": {
			"abi": [
				{
					"inputs": [
						{
							"internalType": "uint256",
							"name": "",
							"type": "uint256"
						}
					],
					"name": "assets",
					"outputs": [
						{
							"internalType": "uint256",
							"name": "amount",
							"type": "uint256"
						},
						{
							"internalType": "string",
							"name": "assetType",
							"type": "string"
						}
					],
					"stateMutability": "view",
					"type": "function"
				},
				{
					"inputs": [
						{
							"internalType": "uint256",
							"name": "amount",
							"type": "uint256"
						},
						{
							"internalType": "string",
							"name": "assetType",
							"type": "string"
						}
					],
					"name": "deposit",
					"outputs": [],
					"stateMutability": "nonpayable",
					"type": "function"
				},
				{
					"inputs": [],
					"name": "getAssets",
					"outputs": [
						{
							"components": [
								{
									"internalType": "uint256",
									"name": "amount",
									"type": "uint256"
								},
								{
									"internalType": "string",
									"name": "assetType",
									"type": "string"
								}
							],
							"internalType": "struct Safe.Asset[]",
							"name": "",
							"type": "tuple[]"
						}
					],
					"stateMutability": "view",
					"type": "function"
				},
				{
					"inputs": [
						{
							"internalType": "uint256",
							"name": "assetId",
							"type": "uint256"
						},
						{
							"internalType": "uint256",
							"name": "amount",
							"type": "uint256"
						}
					],
					"name": "withdraw",
					"outputs": [],
					"stateMutability": "nonpayable",
					"type": "function"
				}
			],
			"devdoc": {
				"kind": "dev",
				"methods": {},
				"version": 1
			},
			"evm": {
				"assembly": "    /* \"contracts/lockbox.sol\":64:577  contract Safe {\r... */\n  mstore(0x40, 0x80)\n  callvalue\n  dup1\n  iszero\n  tag_1\n  jumpi\n  0x00\n  dup1\n  revert\ntag_1:\n  pop\n  dataSize(sub_0)\n  dup1\n  dataOffset(sub_0)\n  0x00\n  codecopy\n  0x00\n  return\nstop\n\nsub_0: assembly {\n        /* \"contracts/lockbox.sol\":64:577  contract Safe {\r... */\n      mstore(0x40, 0x80)\n      callvalue\n      dup1\n      iszero\n      tag_1\n      jumpi\n      0x00\n      dup1\n      revert\n    tag_1:\n      pop\n      jumpi(tag_2, lt(calldatasize, 0x04))\n      shr(0xe0, calldataload(0x00))\n      dup1\n      0x441a3e70\n      eq\n      tag_3\n      jumpi\n      dup1\n      0x67e4ac2c\n      eq\n      tag_4\n      jumpi\n      dup1\n      0xcf35bdd0\n      eq\n      tag_5\n      jumpi\n      dup1\n      0xf1215d25\n      eq\n      tag_6\n      jumpi\n    tag_2:\n      0x00\n      dup1\n      revert\n        /* \"contracts/lockbox.sol\":303:484  function withdraw(uint256 assetId, uint256 amount) public {\r... */\n    tag_3:\n      tag_7\n      0x04\n      dup1\n      calldatasize\n      sub\n      dup2\n      add\n      swap1\n      tag_8\n      swap2\n      swap1\n      tag_9\n      jump\t// in\n    tag_8:\n      tag_10\n      jump\t// in\n    tag_7:\n      stop\n        /* \"contracts/lockbox.sol\":490:574  function getAssets() public view returns (Asset[] memory) {\r... */\n    tag_4:\n      tag_11\n      tag_12\n      jump\t// in\n    tag_11:\n      mload(0x40)\n      tag_13\n      swap2\n      swap1\n      tag_14\n      jump\t// in\n    tag_13:\n      mload(0x40)\n      dup1\n      swap2\n      sub\n      swap1\n      return\n        /* \"contracts/lockbox.sol\":154:175  Asset[] public assets */\n    tag_5:\n      tag_15\n      0x04\n      dup1\n      calldatasize\n      sub\n      dup2\n      add\n      swap1\n      tag_16\n      swap2\n      swap1\n      tag_17\n      jump\t// in\n    tag_16:\n      tag_18\n      jump\t// in\n    tag_15:\n      mload(0x40)\n      tag_19\n      swap3\n      swap2\n      swap1\n      tag_20\n      jump\t// in\n    tag_19:\n      mload(0x40)\n      dup1\n      swap2\n      sub\n      swap1\n      return\n        /* \"contracts/lockbox.sol\":182:297  function deposit(uint256 amount, string memory assetType) public {\r... */\n    tag_6:\n      tag_21\n      0x04\n      dup1\n      calldatasize\n      sub\n      dup2\n      add\n      swap1\n      tag_22\n      swap2\n      swap1\n      tag_23\n      jump\t// in\n    tag_22:\n      tag_24\n      jump\t// in\n    tag_21:\n      stop\n        /* \"contracts/lockbox.sol\":303:484  function withdraw(uint256 assetId, uint256 amount) public {\r... */\n    tag_10:\n        /* \"contracts/lockbox.sol\":368:387  Asset storage asset */\n      0x00\n        /* \"contracts/lockbox.sol\":390:396  assets */\n      dup1\n        /* \"contracts/lockbox.sol\":397:404  assetId */\n      dup4\n        /* \"contracts/lockbox.sol\":390:405  assets[assetId] */\n      dup2\n      sload\n      dup2\n      lt\n      tag_26\n      jumpi\n      mstore(0x00, 0x4e487b7100000000000000000000000000000000000000000000000000000000)\n      mstore(0x04, 0x32)\n      revert(0x00, 0x24)\n    tag_26:\n      swap1\n      0x00\n      mstore\n      keccak256(0x00, 0x20)\n      swap1\n      0x02\n      mul\n      add\n        /* \"contracts/lockbox.sol\":368:405  Asset storage asset = assets[assetId] */\n      swap1\n      pop\n        /* \"contracts/lockbox.sol\":432:438  amount */\n      dup2\n        /* \"contracts/lockbox.sol\":416:421  asset */\n      dup2\n        /* \"contracts/lockbox.sol\":416:428  asset.amount */\n      0x00\n      add\n      sload\n        /* \"contracts/lockbox.sol\":416:438  asset.amount >= amount */\n      lt\n        /* \"contracts/lockbox.sol\":412:479  if (asset.amount >= amount) {\r... */\n      tag_28\n      jumpi\n        /* \"contracts/lockbox.sol\":465:471  amount */\n      dup2\n        /* \"contracts/lockbox.sol\":449:454  asset */\n      dup2\n        /* \"contracts/lockbox.sol\":449:461  asset.amount */\n      0x00\n      add\n      0x00\n        /* \"contracts/lockbox.sol\":449:471  asset.amount -= amount */\n      dup3\n      dup3\n      sload\n      tag_29\n      swap2\n      swap1\n      tag_30\n      jump\t// in\n    tag_29:\n      swap3\n      pop\n      pop\n      dup2\n      swap1\n      sstore\n      pop\n        /* \"contracts/lockbox.sol\":412:479  if (asset.amount >= amount) {\r... */\n    tag_28:\n        /* \"contracts/lockbox.sol\":303:484  function withdraw(uint256 assetId, uint256 amount) public {\r... */\n      pop\n      pop\n      pop\n      jump\t// out\n        /* \"contracts/lockbox.sol\":490:574  function getAssets() public view returns (Asset[] memory) {\r... */\n    tag_12:\n        /* \"contracts/lockbox.sol\":532:546  Asset[] memory */\n      0x60\n        /* \"contracts/lockbox.sol\":562:568  assets */\n      0x00\n        /* \"contracts/lockbox.sol\":555:568  return assets */\n      dup1\n      sload\n      dup1\n      0x20\n      mul\n      0x20\n      add\n      mload(0x40)\n      swap1\n      dup2\n      add\n      0x40\n      mstore\n      dup1\n      swap3\n      swap2\n      swap1\n      dup2\n      dup2\n      mstore\n      0x20\n      add\n      0x00\n      swap1\n    tag_32:\n      dup3\n      dup3\n      lt\n      iszero\n      tag_33\n      jumpi\n      dup4\n      dup3\n      swap1\n      0x00\n      mstore\n      keccak256(0x00, 0x20)\n      swap1\n      0x02\n      mul\n      add\n      mload(0x40)\n      dup1\n      0x40\n      add\n      0x40\n      mstore\n      swap1\n      dup2\n      0x00\n      dup3\n      add\n      sload\n      dup2\n      mstore\n      0x20\n      add\n      0x01\n      dup3\n      add\n      dup1\n      sload\n      tag_35\n      swap1\n      tag_36\n      jump\t// in\n    tag_35:\n      dup1\n      0x1f\n      add\n      0x20\n      dup1\n      swap2\n      div\n      mul\n      0x20\n      add\n      mload(0x40)\n      swap1\n      dup2\n      add\n      0x40\n      mstore\n      dup1\n      swap3\n      swap2\n      swap1\n      dup2\n      dup2\n      mstore\n      0x20\n      add\n      dup3\n      dup1\n      sload\n      tag_37\n      swap1\n      tag_36\n      jump\t// in\n    tag_37:\n      dup1\n      iszero\n      tag_38\n      jumpi\n      dup1\n      0x1f\n      lt\n      tag_39\n      jumpi\n      0x0100\n      dup1\n      dup4\n      sload\n      div\n      mul\n      dup4\n      mstore\n      swap2\n      0x20\n      add\n      swap2\n      jump(tag_38)\n    tag_39:\n      dup3\n      add\n      swap2\n      swap1\n      0x00\n      mstore\n      keccak256(0x00, 0x20)\n      swap1\n    tag_40:\n      dup2\n      sload\n      dup2\n      mstore\n      swap1\n      0x01\n      add\n      swap1\n      0x20\n      add\n      dup1\n      dup4\n      gt\n      tag_40\n      jumpi\n      dup3\n      swap1\n      sub\n      0x1f\n      and\n      dup3\n      add\n      swap2\n    tag_38:\n      pop\n      pop\n      pop\n      pop\n      pop\n      dup2\n      mstore\n      pop\n      pop\n      dup2\n      mstore\n      0x20\n      add\n      swap1\n      0x01\n      add\n      swap1\n      jump(tag_32)\n    tag_33:\n      pop\n      pop\n      pop\n      pop\n      swap1\n      pop\n        /* \"contracts/lockbox.sol\":490:574  function getAssets() public view returns (Asset[] memory) {\r... */\n      swap1\n      jump\t// out\n        /* \"contracts/lockbox.sol\":154:175  Asset[] public assets */\n    tag_18:\n      0x00\n      dup2\n      dup2\n      sload\n      dup2\n      lt\n      tag_41\n      jumpi\n      0x00\n      dup1\n      revert\n    tag_41:\n      swap1\n      0x00\n      mstore\n      keccak256(0x00, 0x20)\n      swap1\n      0x02\n      mul\n      add\n      0x00\n      swap2\n      pop\n      swap1\n      pop\n      dup1\n      0x00\n      add\n      sload\n      swap1\n      dup1\n      0x01\n      add\n      dup1\n      sload\n      tag_43\n      swap1\n      tag_36\n      jump\t// in\n    tag_43:\n      dup1\n      0x1f\n      add\n      0x20\n      dup1\n      swap2\n      div\n      mul\n      0x20\n      add\n      mload(0x40)\n      swap1\n      dup2\n      add\n      0x40\n      mstore\n      dup1\n      swap3\n      swap2\n      swap1\n      dup2\n      dup2\n      mstore\n      0x20\n      add\n      dup3\n      dup1\n      sload\n      tag_44\n      swap1\n      tag_36\n      jump\t// in\n    tag_44:\n      dup1\n      iszero\n      tag_45\n      jumpi\n      dup1\n      0x1f\n      lt\n      tag_46\n      jumpi\n      0x0100\n      dup1\n      dup4\n      sload\n      div\n      mul\n      dup4\n      mstore\n      swap2\n      0x20\n      add\n      swap2\n      jump(tag_45)\n    tag_46:\n      dup3\n      add\n      swap2\n      swap1\n      0x00\n      mstore\n      keccak256(0x00, 0x20)\n      swap1\n    tag_47:\n      dup2\n      sload\n      dup2\n      mstore\n      swap1\n      0x01\n      add\n      swap1\n      0x20\n      add\n      dup1\n      dup4\n      gt\n      tag_47\n      jumpi\n      dup3\n      swap1\n      sub\n      0x1f\n      and\n      dup3\n      add\n      swap2\n    tag_45:\n      pop\n      pop\n      pop\n      pop\n      pop\n      swap1\n      pop\n      dup3\n      jump\t// out\n        /* \"contracts/lockbox.sol\":182:297  function deposit(uint256 amount, string memory assetType) public {\r... */\n    tag_24:\n        /* \"contracts/lockbox.sol\":254:260  assets */\n      0x00\n        /* \"contracts/lockbox.sol\":266:290  Asset(amount, assetType) */\n      mload(0x40)\n      dup1\n      0x40\n      add\n      0x40\n      mstore\n      dup1\n        /* \"contracts/lockbox.sol\":272:278  amount */\n      dup5\n        /* \"contracts/lockbox.sol\":266:290  Asset(amount, assetType) */\n      dup2\n      mstore\n      0x20\n      add\n        /* \"contracts/lockbox.sol\":280:289  assetType */\n      dup4\n        /* \"contracts/lockbox.sol\":266:290  Asset(amount, assetType) */\n      dup2\n      mstore\n      pop\n        /* \"contracts/lockbox.sol\":254:291  assets.push(Asset(amount, assetType)) */\n      swap1\n      dup1\n      0x01\n      dup2\n      sload\n      add\n      dup1\n      dup3\n      sstore\n      dup1\n      swap2\n      pop\n      pop\n      0x01\n      swap1\n      sub\n      swap1\n      0x00\n      mstore\n      keccak256(0x00, 0x20)\n      swap1\n      0x02\n      mul\n      add\n      0x00\n      swap1\n      swap2\n      swap1\n      swap2\n      swap1\n      swap2\n      pop\n      0x00\n      dup3\n      add\n      mload\n      dup2\n      0x00\n      add\n      sstore\n      0x20\n      dup3\n      add\n      mload\n      dup2\n      0x01\n      add\n      swap1\n      dup1\n      mload\n      swap1\n      0x20\n      add\n      swap1\n      tag_50\n      swap3\n      swap2\n      swap1\n      tag_51\n      jump\t// in\n    tag_50:\n      pop\n      pop\n      pop\n        /* \"contracts/lockbox.sol\":182:297  function deposit(uint256 amount, string memory assetType) public {\r... */\n      pop\n      pop\n      jump\t// out\n    tag_51:\n      dup3\n      dup1\n      sload\n      tag_52\n      swap1\n      tag_36\n      jump\t// in\n    tag_52:\n      swap1\n      0x00\n      mstore\n      keccak256(0x00, 0x20)\n      swap1\n      0x1f\n      add\n      0x20\n      swap1\n      div\n      dup2\n      add\n      swap3\n      dup3\n      tag_54\n      jumpi\n      0x00\n      dup6\n      sstore\n      jump(tag_53)\n    tag_54:\n      dup3\n      0x1f\n      lt\n      tag_55\n      jumpi\n      dup1\n      mload\n      not(0xff)\n      and\n      dup4\n      dup1\n      add\n      or\n      dup6\n      sstore\n      jump(tag_53)\n    tag_55:\n      dup3\n      dup1\n      add\n      0x01\n      add\n      dup6\n      sstore\n      dup3\n      iszero\n      tag_53\n      jumpi\n      swap2\n      dup3\n      add\n    tag_56:\n      dup3\n      dup2\n      gt\n      iszero\n      tag_57\n      jumpi\n      dup3\n      mload\n      dup3\n      sstore\n      swap2\n      0x20\n      add\n      swap2\n      swap1\n      0x01\n      add\n      swap1\n      jump(tag_56)\n    tag_57:\n    tag_53:\n      pop\n      swap1\n      pop\n      tag_58\n      swap2\n      swap1\n      tag_59\n      jump\t// in\n    tag_58:\n      pop\n      swap1\n      jump\t// out\n    tag_59:\n    tag_60:\n      dup1\n      dup3\n      gt\n      iszero\n      tag_61\n      jumpi\n      0x00\n      dup2\n      0x00\n      swap1\n      sstore\n      pop\n      0x01\n      add\n      jump(tag_60)\n    tag_61:\n      pop\n      swap1\n      jump\t// out\n        /* \"#utility.yul\":7:351   */\n    tag_63:\n      0x00\n        /* \"#utility.yul\":110:175   */\n      tag_65\n        /* \"#utility.yul\":125:174   */\n      tag_66\n        /* \"#utility.yul\":167:173   */\n      dup5\n        /* \"#utility.yul\":125:174   */\n      tag_67\n      jump\t// in\n    tag_66:\n        /* \"#utility.yul\":110:175   */\n      tag_68\n      jump\t// in\n    tag_65:\n        /* \"#utility.yul\":101:175   */\n      swap1\n      pop\n        /* \"#utility.yul\":198:204   */\n      dup3\n        /* \"#utility.yul\":191:196   */\n      dup2\n        /* \"#utility.yul\":184:205   */\n      mstore\n        /* \"#utility.yul\":236:240   */\n      0x20\n        /* \"#utility.yul\":229:234   */\n      dup2\n        /* \"#utility.yul\":225:241   */\n      add\n        /* \"#utility.yul\":274:277   */\n      dup5\n        /* \"#utility.yul\":265:271   */\n      dup5\n        /* \"#utility.yul\":260:263   */\n      dup5\n        /* \"#utility.yul\":256:272   */\n      add\n        /* \"#utility.yul\":253:278   */\n      gt\n        /* \"#utility.yul\":250:252   */\n      iszero\n      tag_69\n      jumpi\n        /* \"#utility.yul\":291:292   */\n      0x00\n        /* \"#utility.yul\":288:289   */\n      dup1\n        /* \"#utility.yul\":281:293   */\n      revert\n        /* \"#utility.yul\":250:252   */\n    tag_69:\n        /* \"#utility.yul\":304:345   */\n      tag_70\n        /* \"#utility.yul\":338:344   */\n      dup5\n        /* \"#utility.yul\":333:336   */\n      dup3\n        /* \"#utility.yul\":328:331   */\n      dup6\n        /* \"#utility.yul\":304:345   */\n      tag_71\n      jump\t// in\n    tag_70:\n        /* \"#utility.yul\":91:351   */\n      pop\n      swap4\n      swap3\n      pop\n      pop\n      pop\n      jump\t// out\n        /* \"#utility.yul\":371:644   */\n    tag_72:\n      0x00\n        /* \"#utility.yul\":476:479   */\n      dup3\n        /* \"#utility.yul\":469:473   */\n      0x1f\n        /* \"#utility.yul\":461:467   */\n      dup4\n        /* \"#utility.yul\":457:474   */\n      add\n        /* \"#utility.yul\":453:480   */\n      slt\n        /* \"#utility.yul\":443:445   */\n      tag_74\n      jumpi\n        /* \"#utility.yul\":494:495   */\n      0x00\n        /* \"#utility.yul\":491:492   */\n      dup1\n        /* \"#utility.yul\":484:496   */\n      revert\n        /* \"#utility.yul\":443:445   */\n    tag_74:\n        /* \"#utility.yul\":534:540   */\n      dup2\n        /* \"#utility.yul\":521:541   */\n      calldataload\n        /* \"#utility.yul\":559:638   */\n      tag_75\n        /* \"#utility.yul\":634:637   */\n      dup5\n        /* \"#utility.yul\":626:632   */\n      dup3\n        /* \"#utility.yul\":619:623   */\n      0x20\n        /* \"#utility.yul\":611:617   */\n      dup7\n        /* \"#utility.yul\":607:624   */\n      add\n        /* \"#utility.yul\":559:638   */\n      tag_63\n      jump\t// in\n    tag_75:\n        /* \"#utility.yul\":550:638   */\n      swap2\n      pop\n        /* \"#utility.yul\":433:644   */\n      pop\n      swap3\n      swap2\n      pop\n      pop\n      jump\t// out\n        /* \"#utility.yul\":650:789   */\n    tag_76:\n      0x00\n        /* \"#utility.yul\":734:740   */\n      dup2\n        /* \"#utility.yul\":721:741   */\n      calldataload\n        /* \"#utility.yul\":712:741   */\n      swap1\n      pop\n        /* \"#utility.yul\":750:783   */\n      tag_78\n        /* \"#utility.yul\":777:782   */\n      dup2\n        /* \"#utility.yul\":750:783   */\n      tag_79\n      jump\t// in\n    tag_78:\n        /* \"#utility.yul\":702:789   */\n      swap3\n      swap2\n      pop\n      pop\n      jump\t// out\n        /* \"#utility.yul\":795:1057   */\n    tag_17:\n      0x00\n        /* \"#utility.yul\":903:905   */\n      0x20\n        /* \"#utility.yul\":891:900   */\n      dup3\n        /* \"#utility.yul\":882:889   */\n      dup5\n        /* \"#utility.yul\":878:901   */\n      sub\n        /* \"#utility.yul\":874:906   */\n      slt\n        /* \"#utility.yul\":871:873   */\n      iszero\n      tag_81\n      jumpi\n        /* \"#utility.yul\":919:920   */\n      0x00\n        /* \"#utility.yul\":916:917   */\n      dup1\n        /* \"#utility.yul\":909:921   */\n      revert\n        /* \"#utility.yul\":871:873   */\n    tag_81:\n        /* \"#utility.yul\":962:963   */\n      0x00\n        /* \"#utility.yul\":987:1040   */\n      tag_82\n        /* \"#utility.yul\":1032:1039   */\n      dup5\n        /* \"#utility.yul\":1023:1029   */\n      dup3\n        /* \"#utility.yul\":1012:1021   */\n      dup6\n        /* \"#utility.yul\":1008:1030   */\n      add\n        /* \"#utility.yul\":987:1040   */\n      tag_76\n      jump\t// in\n    tag_82:\n        /* \"#utility.yul\":977:1040   */\n      swap2\n      pop\n        /* \"#utility.yul\":933:1050   */\n      pop\n        /* \"#utility.yul\":861:1057   */\n      swap3\n      swap2\n      pop\n      pop\n      jump\t// out\n        /* \"#utility.yul\":1063:1583   */\n    tag_23:\n      0x00\n      dup1\n        /* \"#utility.yul\":1198:1200   */\n      0x40\n        /* \"#utility.yul\":1186:1195   */\n      dup4\n        /* \"#utility.yul\":1177:1184   */\n      dup6\n        /* \"#utility.yul\":1173:1196   */\n      sub\n        /* \"#utility.yul\":1169:1201   */\n      slt\n        /* \"#utility.yul\":1166:1168   */\n      iszero\n      tag_84\n      jumpi\n        /* \"#utility.yul\":1214:1215   */\n      0x00\n        /* \"#utility.yul\":1211:1212   */\n      dup1\n        /* \"#utility.yul\":1204:1216   */\n      revert\n        /* \"#utility.yul\":1166:1168   */\n    tag_84:\n        /* \"#utility.yul\":1257:1258   */\n      0x00\n        /* \"#utility.yul\":1282:1335   */\n      tag_85\n        /* \"#utility.yul\":1327:1334   */\n      dup6\n        /* \"#utility.yul\":1318:1324   */\n      dup3\n        /* \"#utility.yul\":1307:1316   */\n      dup7\n        /* \"#utility.yul\":1303:1325   */\n      add\n        /* \"#utility.yul\":1282:1335   */\n      tag_76\n      jump\t// in\n    tag_85:\n        /* \"#utility.yul\":1272:1335   */\n      swap3\n      pop\n        /* \"#utility.yul\":1228:1345   */\n      pop\n        /* \"#utility.yul\":1412:1414   */\n      0x20\n        /* \"#utility.yul\":1401:1410   */\n      dup4\n        /* \"#utility.yul\":1397:1415   */\n      add\n        /* \"#utility.yul\":1384:1416   */\n      calldataload\n        /* \"#utility.yul\":1443:1461   */\n      0xffffffffffffffff\n        /* \"#utility.yul\":1435:1441   */\n      dup2\n        /* \"#utility.yul\":1432:1462   */\n      gt\n        /* \"#utility.yul\":1429:1431   */\n      iszero\n      tag_86\n      jumpi\n        /* \"#utility.yul\":1475:1476   */\n      0x00\n        /* \"#utility.yul\":1472:1473   */\n      dup1\n        /* \"#utility.yul\":1465:1477   */\n      revert\n        /* \"#utility.yul\":1429:1431   */\n    tag_86:\n        /* \"#utility.yul\":1503:1566   */\n      tag_87\n        /* \"#utility.yul\":1558:1565   */\n      dup6\n        /* \"#utility.yul\":1549:1555   */\n      dup3\n        /* \"#utility.yul\":1538:1547   */\n      dup7\n        /* \"#utility.yul\":1534:1556   */\n      add\n        /* \"#utility.yul\":1503:1566   */\n      tag_72\n      jump\t// in\n    tag_87:\n        /* \"#utility.yul\":1493:1566   */\n      swap2\n      pop\n        /* \"#utility.yul\":1355:1576   */\n      pop\n        /* \"#utility.yul\":1156:1583   */\n      swap3\n      pop\n      swap3\n      swap1\n      pop\n      jump\t// out\n        /* \"#utility.yul\":1589:1996   */\n    tag_9:\n      0x00\n      dup1\n        /* \"#utility.yul\":1714:1716   */\n      0x40\n        /* \"#utility.yul\":1702:1711   */\n      dup4\n        /* \"#utility.yul\":1693:1700   */\n      dup6\n        /* \"#utility.yul\":1689:1712   */\n      sub\n        /* \"#utility.yul\":1685:1717   */\n      slt\n        /* \"#utility.yul\":1682:1684   */\n      iszero\n      tag_89\n      jumpi\n        /* \"#utility.yul\":1730:1731   */\n      0x00\n        /* \"#utility.yul\":1727:1728   */\n      dup1\n        /* \"#utility.yul\":1720:1732   */\n      revert\n        /* \"#utility.yul\":1682:1684   */\n    tag_89:\n        /* \"#utility.yul\":1773:1774   */\n      0x00\n        /* \"#utility.yul\":1798:1851   */\n      tag_90\n        /* \"#utility.yul\":1843:1850   */\n      dup6\n        /* \"#utility.yul\":1834:1840   */\n      dup3\n        /* \"#utility.yul\":1823:1832   */\n      dup7\n        /* \"#utility.yul\":1819:1841   */\n      add\n        /* \"#utility.yul\":1798:1851   */\n      tag_76\n      jump\t// in\n    tag_90:\n        /* \"#utility.yul\":1788:1851   */\n      swap3\n      pop\n        /* \"#utility.yul\":1744:1861   */\n      pop\n        /* \"#utility.yul\":1900:1902   */\n      0x20\n        /* \"#utility.yul\":1926:1979   */\n      tag_91\n        /* \"#utility.yul\":1971:1978   */\n      dup6\n        /* \"#utility.yul\":1962:1968   */\n      dup3\n        /* \"#utility.yul\":1951:1960   */\n      dup7\n        /* \"#utility.yul\":1947:1969   */\n      add\n        /* \"#utility.yul\":1926:1979   */\n      tag_76\n      jump\t// in\n    tag_91:\n        /* \"#utility.yul\":1916:1979   */\n      swap2\n      pop\n        /* \"#utility.yul\":1871:1989   */\n      pop\n        /* \"#utility.yul\":1672:1996   */\n      swap3\n      pop\n      swap3\n      swap1\n      pop\n      jump\t// out\n        /* \"#utility.yul\":2002:2238   */\n    tag_92:\n      0x00\n        /* \"#utility.yul\":2146:2232   */\n      tag_94\n        /* \"#utility.yul\":2228:2231   */\n      dup4\n        /* \"#utility.yul\":2220:2226   */\n      dup4\n        /* \"#utility.yul\":2146:2232   */\n      tag_95\n      jump\t// in\n    tag_94:\n        /* \"#utility.yul\":2132:2232   */\n      swap1\n      pop\n        /* \"#utility.yul\":2122:2238   */\n      swap3\n      swap2\n      pop\n      pop\n      jump\t// out\n        /* \"#utility.yul\":2294:3365   */\n    tag_96:\n      0x00\n        /* \"#utility.yul\":2482:2556   */\n      tag_98\n        /* \"#utility.yul\":2550:2555   */\n      dup3\n        /* \"#utility.yul\":2482:2556   */\n      tag_99\n      jump\t// in\n    tag_98:\n        /* \"#utility.yul\":2572:2678   */\n      tag_100\n        /* \"#utility.yul\":2671:2677   */\n      dup2\n        /* \"#utility.yul\":2666:2669   */\n      dup6\n        /* \"#utility.yul\":2572:2678   */\n      tag_101\n      jump\t// in\n    tag_100:\n        /* \"#utility.yul\":2565:2678   */\n      swap4\n      pop\n        /* \"#utility.yul\":2704:2707   */\n      dup4\n        /* \"#utility.yul\":2749:2753   */\n      0x20\n        /* \"#utility.yul\":2741:2747   */\n      dup3\n        /* \"#utility.yul\":2737:2754   */\n      mul\n        /* \"#utility.yul\":2732:2735   */\n      dup6\n        /* \"#utility.yul\":2728:2755   */\n      add\n        /* \"#utility.yul\":2779:2855   */\n      tag_102\n        /* \"#utility.yul\":2849:2854   */\n      dup6\n        /* \"#utility.yul\":2779:2855   */\n      tag_103\n      jump\t// in\n    tag_102:\n        /* \"#utility.yul\":2878:2885   */\n      dup1\n        /* \"#utility.yul\":2909:2910   */\n      0x00\n        /* \"#utility.yul\":2894:3320   */\n    tag_104:\n        /* \"#utility.yul\":2919:2925   */\n      dup6\n        /* \"#utility.yul\":2916:2917   */\n      dup2\n        /* \"#utility.yul\":2913:2926   */\n      lt\n        /* \"#utility.yul\":2894:3320   */\n      iszero\n      tag_106\n      jumpi\n        /* \"#utility.yul\":2990:2999   */\n      dup5\n        /* \"#utility.yul\":2984:2988   */\n      dup5\n        /* \"#utility.yul\":2980:3000   */\n      sub\n        /* \"#utility.yul\":2975:2978   */\n      dup10\n        /* \"#utility.yul\":2968:3001   */\n      mstore\n        /* \"#utility.yul\":3041:3047   */\n      dup2\n        /* \"#utility.yul\":3035:3048   */\n      mload\n        /* \"#utility.yul\":3069:3173   */\n      tag_107\n        /* \"#utility.yul\":3168:3172   */\n      dup6\n        /* \"#utility.yul\":3153:3166   */\n      dup3\n        /* \"#utility.yul\":3069:3173   */\n      tag_92\n      jump\t// in\n    tag_107:\n        /* \"#utility.yul\":3061:3173   */\n      swap5\n      pop\n        /* \"#utility.yul\":3196:3276   */\n      tag_108\n        /* \"#utility.yul\":3269:3275   */\n      dup4\n        /* \"#utility.yul\":3196:3276   */\n      tag_109\n      jump\t// in\n    tag_108:\n        /* \"#utility.yul\":3186:3276   */\n      swap3\n      pop\n        /* \"#utility.yul\":3305:3309   */\n      0x20\n        /* \"#utility.yul\":3300:3303   */\n      dup11\n        /* \"#utility.yul\":3296:3310   */\n      add\n        /* \"#utility.yul\":3289:3310   */\n      swap10\n      pop\n        /* \"#utility.yul\":2954:3320   */\n      pop\n        /* \"#utility.yul\":2941:2942   */\n      0x01\n        /* \"#utility.yul\":2938:2939   */\n      dup2\n        /* \"#utility.yul\":2934:2943   */\n      add\n        /* \"#utility.yul\":2929:2943   */\n      swap1\n      pop\n        /* \"#utility.yul\":2894:3320   */\n      jump(tag_104)\n    tag_106:\n        /* \"#utility.yul\":2898:2912   */\n      pop\n        /* \"#utility.yul\":3336:3340   */\n      dup3\n        /* \"#utility.yul\":3329:3340   */\n      swap8\n      pop\n        /* \"#utility.yul\":3356:3359   */\n      dup8\n        /* \"#utility.yul\":3349:3359   */\n      swap6\n      pop\n        /* \"#utility.yul\":2458:3365   */\n      pop\n      pop\n      pop\n      pop\n      pop\n      swap3\n      swap2\n      pop\n      pop\n      jump\t// out\n        /* \"#utility.yul\":3371:3715   */\n    tag_110:\n      0x00\n        /* \"#utility.yul\":3477:3516   */\n      tag_112\n        /* \"#utility.yul\":3510:3515   */\n      dup3\n        /* \"#utility.yul\":3477:3516   */\n      tag_113\n      jump\t// in\n    tag_112:\n        /* \"#utility.yul\":3532:3593   */\n      tag_114\n        /* \"#utility.yul\":3586:3592   */\n      dup2\n        /* \"#utility.yul\":3581:3584   */\n      dup6\n        /* \"#utility.yul\":3532:3593   */\n      tag_115\n      jump\t// in\n    tag_114:\n        /* \"#utility.yul\":3525:3593   */\n      swap4\n      pop\n        /* \"#utility.yul\":3602:3654   */\n      tag_116\n        /* \"#utility.yul\":3647:3653   */\n      dup2\n        /* \"#utility.yul\":3642:3645   */\n      dup6\n        /* \"#utility.yul\":3635:3639   */\n      0x20\n        /* \"#utility.yul\":3628:3633   */\n      dup7\n        /* \"#utility.yul\":3624:3640   */\n      add\n        /* \"#utility.yul\":3602:3654   */\n      tag_117\n      jump\t// in\n    tag_116:\n        /* \"#utility.yul\":3679:3708   */\n      tag_118\n        /* \"#utility.yul\":3701:3707   */\n      dup2\n        /* \"#utility.yul\":3679:3708   */\n      tag_119\n      jump\t// in\n    tag_118:\n        /* \"#utility.yul\":3674:3677   */\n      dup5\n        /* \"#utility.yul\":3670:3709   */\n      add\n        /* \"#utility.yul\":3663:3709   */\n      swap2\n      pop\n        /* \"#utility.yul\":3453:3715   */\n      pop\n      swap3\n      swap2\n      pop\n      pop\n      jump\t// out\n        /* \"#utility.yul\":3721:4085   */\n    tag_120:\n      0x00\n        /* \"#utility.yul\":3837:3876   */\n      tag_122\n        /* \"#utility.yul\":3870:3875   */\n      dup3\n        /* \"#utility.yul\":3837:3876   */\n      tag_113\n      jump\t// in\n    tag_122:\n        /* \"#utility.yul\":3892:3963   */\n      tag_123\n        /* \"#utility.yul\":3956:3962   */\n      dup2\n        /* \"#utility.yul\":3951:3954   */\n      dup6\n        /* \"#utility.yul\":3892:3963   */\n      tag_124\n      jump\t// in\n    tag_123:\n        /* \"#utility.yul\":3885:3963   */\n      swap4\n      pop\n        /* \"#utility.yul\":3972:4024   */\n      tag_125\n        /* \"#utility.yul\":4017:4023   */\n      dup2\n        /* \"#utility.yul\":4012:4015   */\n      dup6\n        /* \"#utility.yul\":4005:4009   */\n      0x20\n        /* \"#utility.yul\":3998:4003   */\n      dup7\n        /* \"#utility.yul\":3994:4010   */\n      add\n        /* \"#utility.yul\":3972:4024   */\n      tag_117\n      jump\t// in\n    tag_125:\n        /* \"#utility.yul\":4049:4078   */\n      tag_126\n        /* \"#utility.yul\":4071:4077   */\n      dup2\n        /* \"#utility.yul\":4049:4078   */\n      tag_119\n      jump\t// in\n    tag_126:\n        /* \"#utility.yul\":4044:4047   */\n      dup5\n        /* \"#utility.yul\":4040:4079   */\n      add\n        /* \"#utility.yul\":4033:4079   */\n      swap2\n      pop\n        /* \"#utility.yul\":3813:4085   */\n      pop\n      swap3\n      swap2\n      pop\n      pop\n      jump\t// out\n        /* \"#utility.yul\":4137:4730   */\n    tag_95:\n      0x00\n        /* \"#utility.yul\":4272:4276   */\n      0x40\n        /* \"#utility.yul\":4267:4270   */\n      dup4\n        /* \"#utility.yul\":4263:4277   */\n      add\n        /* \"#utility.yul\":4361:4365   */\n      0x00\n        /* \"#utility.yul\":4354:4359   */\n      dup4\n        /* \"#utility.yul\":4350:4366   */\n      add\n        /* \"#utility.yul\":4344:4367   */\n      mload\n        /* \"#utility.yul\":4380:4443   */\n      tag_128\n        /* \"#utility.yul\":4437:4441   */\n      0x00\n        /* \"#utility.yul\":4432:4435   */\n      dup7\n        /* \"#utility.yul\":4428:4442   */\n      add\n        /* \"#utility.yul\":4414:4426   */\n      dup3\n        /* \"#utility.yul\":4380:4443   */\n      tag_129\n      jump\t// in\n    tag_128:\n        /* \"#utility.yul\":4287:4453   */\n      pop\n        /* \"#utility.yul\":4540:4544   */\n      0x20\n        /* \"#utility.yul\":4533:4538   */\n      dup4\n        /* \"#utility.yul\":4529:4545   */\n      add\n        /* \"#utility.yul\":4523:4546   */\n      mload\n        /* \"#utility.yul\":4593:4596   */\n      dup5\n        /* \"#utility.yul\":4587:4591   */\n      dup3\n        /* \"#utility.yul\":4583:4597   */\n      sub\n        /* \"#utility.yul\":4576:4580   */\n      0x20\n        /* \"#utility.yul\":4571:4574   */\n      dup7\n        /* \"#utility.yul\":4567:4581   */\n      add\n        /* \"#utility.yul\":4560:4598   */\n      mstore\n        /* \"#utility.yul\":4619:4692   */\n      tag_130\n        /* \"#utility.yul\":4687:4691   */\n      dup3\n        /* \"#utility.yul\":4673:4685   */\n      dup3\n        /* \"#utility.yul\":4619:4692   */\n      tag_110\n      jump\t// in\n    tag_130:\n        /* \"#utility.yul\":4611:4692   */\n      swap2\n      pop\n        /* \"#utility.yul\":4463:4703   */\n      pop\n        /* \"#utility.yul\":4720:4724   */\n      dup1\n        /* \"#utility.yul\":4713:4724   */\n      swap2\n      pop\n        /* \"#utility.yul\":4241:4730   */\n      pop\n      swap3\n      swap2\n      pop\n      pop\n      jump\t// out\n        /* \"#utility.yul\":4736:4844   */\n    tag_129:\n        /* \"#utility.yul\":4813:4837   */\n      tag_132\n        /* \"#utility.yul\":4831:4836   */\n      dup2\n        /* \"#utility.yul\":4813:4837   */\n      tag_133\n      jump\t// in\n    tag_132:\n        /* \"#utility.yul\":4808:4811   */\n      dup3\n        /* \"#utility.yul\":4801:4838   */\n      mstore\n        /* \"#utility.yul\":4791:4844   */\n      pop\n      pop\n      jump\t// out\n        /* \"#utility.yul\":4850:4968   */\n    tag_134:\n        /* \"#utility.yul\":4937:4961   */\n      tag_136\n        /* \"#utility.yul\":4955:4960   */\n      dup2\n        /* \"#utility.yul\":4937:4961   */\n      tag_133\n      jump\t// in\n    tag_136:\n        /* \"#utility.yul\":4932:4935   */\n      dup3\n        /* \"#utility.yul\":4925:4962   */\n      mstore\n        /* \"#utility.yul\":4915:4968   */\n      pop\n      pop\n      jump\t// out\n        /* \"#utility.yul\":4974:5427   */\n    tag_14:\n      0x00\n        /* \"#utility.yul\":5195:5197   */\n      0x20\n        /* \"#utility.yul\":5184:5193   */\n      dup3\n        /* \"#utility.yul\":5180:5198   */\n      add\n        /* \"#utility.yul\":5172:5198   */\n      swap1\n      pop\n        /* \"#utility.yul\":5244:5253   */\n      dup2\n        /* \"#utility.yul\":5238:5242   */\n      dup2\n        /* \"#utility.yul\":5234:5254   */\n      sub\n        /* \"#utility.yul\":5230:5231   */\n      0x00\n        /* \"#utility.yul\":5219:5228   */\n      dup4\n        /* \"#utility.yul\":5215:5232   */\n      add\n        /* \"#utility.yul\":5208:5255   */\n      mstore\n        /* \"#utility.yul\":5272:5420   */\n      tag_138\n        /* \"#utility.yul\":5415:5419   */\n      dup2\n        /* \"#utility.yul\":5406:5412   */\n      dup5\n        /* \"#utility.yul\":5272:5420   */\n      tag_96\n      jump\t// in\n    tag_138:\n        /* \"#utility.yul\":5264:5420   */\n      swap1\n      pop\n        /* \"#utility.yul\":5162:5427   */\n      swap3\n      swap2\n      pop\n      pop\n      jump\t// out\n        /* \"#utility.yul\":5433:5856   */\n    tag_20:\n      0x00\n        /* \"#utility.yul\":5612:5614   */\n      0x40\n        /* \"#utility.yul\":5601:5610   */\n      dup3\n        /* \"#utility.yul\":5597:5615   */\n      add\n        /* \"#utility.yul\":5589:5615   */\n      swap1\n      pop\n        /* \"#utility.yul\":5625:5696   */\n      tag_140\n        /* \"#utility.yul\":5693:5694   */\n      0x00\n        /* \"#utility.yul\":5682:5691   */\n      dup4\n        /* \"#utility.yul\":5678:5695   */\n      add\n        /* \"#utility.yul\":5669:5675   */\n      dup6\n        /* \"#utility.yul\":5625:5696   */\n      tag_134\n      jump\t// in\n    tag_140:\n        /* \"#utility.yul\":5743:5752   */\n      dup2\n        /* \"#utility.yul\":5737:5741   */\n      dup2\n        /* \"#utility.yul\":5733:5753   */\n      sub\n        /* \"#utility.yul\":5728:5730   */\n      0x20\n        /* \"#utility.yul\":5717:5726   */\n      dup4\n        /* \"#utility.yul\":5713:5731   */\n      add\n        /* \"#utility.yul\":5706:5754   */\n      mstore\n        /* \"#utility.yul\":5771:5849   */\n      tag_141\n        /* \"#utility.yul\":5844:5848   */\n      dup2\n        /* \"#utility.yul\":5835:5841   */\n      dup5\n        /* \"#utility.yul\":5771:5849   */\n      tag_120\n      jump\t// in\n    tag_141:\n        /* \"#utility.yul\":5763:5849   */\n      swap1\n      pop\n        /* \"#utility.yul\":5579:5856   */\n      swap4\n      swap3\n      pop\n      pop\n      pop\n      jump\t// out\n        /* \"#utility.yul\":5862:6145   */\n    tag_68:\n      0x00\n        /* \"#utility.yul\":5928:5930   */\n      0x40\n        /* \"#utility.yul\":5922:5931   */\n      mload\n        /* \"#utility.yul\":5912:5931   */\n      swap1\n      pop\n        /* \"#utility.yul\":5970:5974   */\n      dup2\n        /* \"#utility.yul\":5962:5968   */\n      dup2\n        /* \"#utility.yul\":5958:5975   */\n      add\n        /* \"#utility.yul\":6077:6083   */\n      dup2\n        /* \"#utility.yul\":6065:6075   */\n      dup2\n        /* \"#utility.yul\":6062:6084   */\n      lt\n        /* \"#utility.yul\":6041:6059   */\n      0xffffffffffffffff\n        /* \"#utility.yul\":6029:6039   */\n      dup3\n        /* \"#utility.yul\":6026:6060   */\n      gt\n        /* \"#utility.yul\":6023:6085   */\n      or\n        /* \"#utility.yul\":6020:6022   */\n      iszero\n      tag_143\n      jumpi\n        /* \"#utility.yul\":6088:6106   */\n      tag_144\n      tag_145\n      jump\t// in\n    tag_144:\n        /* \"#utility.yul\":6020:6022   */\n    tag_143:\n        /* \"#utility.yul\":6128:6138   */\n      dup1\n        /* \"#utility.yul\":6124:6126   */\n      0x40\n        /* \"#utility.yul\":6117:6139   */\n      mstore\n        /* \"#utility.yul\":5902:6145   */\n      pop\n      swap2\n      swap1\n      pop\n      jump\t// out\n        /* \"#utility.yul\":6151:6483   */\n    tag_67:\n      0x00\n        /* \"#utility.yul\":6303:6321   */\n      0xffffffffffffffff\n        /* \"#utility.yul\":6295:6301   */\n      dup3\n        /* \"#utility.yul\":6292:6322   */\n      gt\n        /* \"#utility.yul\":6289:6291   */\n      iszero\n      tag_147\n      jumpi\n        /* \"#utility.yul\":6325:6343   */\n      tag_148\n      tag_145\n      jump\t// in\n    tag_148:\n        /* \"#utility.yul\":6289:6291   */\n    tag_147:\n        /* \"#utility.yul\":6410:6414   */\n      0x1f\n        /* \"#utility.yul\":6406:6415   */\n      not\n        /* \"#utility.yul\":6399:6403   */\n      0x1f\n        /* \"#utility.yul\":6391:6397   */\n      dup4\n        /* \"#utility.yul\":6387:6404   */\n      add\n        /* \"#utility.yul\":6383:6416   */\n      and\n        /* \"#utility.yul\":6375:6416   */\n      swap1\n      pop\n        /* \"#utility.yul\":6471:6475   */\n      0x20\n        /* \"#utility.yul\":6465:6469   */\n      dup2\n        /* \"#utility.yul\":6461:6476   */\n      add\n        /* \"#utility.yul\":6453:6476   */\n      swap1\n      pop\n        /* \"#utility.yul\":6218:6483   */\n      swap2\n      swap1\n      pop\n      jump\t// out\n        /* \"#utility.yul\":6489:6641   */\n    tag_103:\n      0x00\n        /* \"#utility.yul\":6599:6602   */\n      dup2\n        /* \"#utility.yul\":6591:6602   */\n      swap1\n      pop\n        /* \"#utility.yul\":6629:6633   */\n      0x20\n        /* \"#utility.yul\":6624:6627   */\n      dup3\n        /* \"#utility.yul\":6620:6634   */\n      add\n        /* \"#utility.yul\":6612:6634   */\n      swap1\n      pop\n        /* \"#utility.yul\":6581:6641   */\n      swap2\n      swap1\n      pop\n      jump\t// out\n        /* \"#utility.yul\":6647:6781   */\n    tag_99:\n      0x00\n        /* \"#utility.yul\":6768:6773   */\n      dup2\n        /* \"#utility.yul\":6762:6774   */\n      mload\n        /* \"#utility.yul\":6752:6774   */\n      swap1\n      pop\n        /* \"#utility.yul\":6741:6781   */\n      swap2\n      swap1\n      pop\n      jump\t// out\n        /* \"#utility.yul\":6787:6886   */\n    tag_113:\n      0x00\n        /* \"#utility.yul\":6873:6878   */\n      dup2\n        /* \"#utility.yul\":6867:6879   */\n      mload\n        /* \"#utility.yul\":6857:6879   */\n      swap1\n      pop\n        /* \"#utility.yul\":6846:6886   */\n      swap2\n      swap1\n      pop\n      jump\t// out\n        /* \"#utility.yul\":6892:7025   */\n    tag_109:\n      0x00\n        /* \"#utility.yul\":7014:7018   */\n      0x20\n        /* \"#utility.yul\":7009:7012   */\n      dup3\n        /* \"#utility.yul\":7005:7019   */\n      add\n        /* \"#utility.yul\":6997:7019   */\n      swap1\n      pop\n        /* \"#utility.yul\":6987:7025   */\n      swap2\n      swap1\n      pop\n      jump\t// out\n        /* \"#utility.yul\":7031:7235   */\n    tag_101:\n      0x00\n        /* \"#utility.yul\":7184:7190   */\n      dup3\n        /* \"#utility.yul\":7179:7182   */\n      dup3\n        /* \"#utility.yul\":7172:7191   */\n      mstore\n        /* \"#utility.yul\":7224:7228   */\n      0x20\n        /* \"#utility.yul\":7219:7222   */\n      dup3\n        /* \"#utility.yul\":7215:7229   */\n      add\n        /* \"#utility.yul\":7200:7229   */\n      swap1\n      pop\n        /* \"#utility.yul\":7162:7235   */\n      swap3\n      swap2\n      pop\n      pop\n      jump\t// out\n        /* \"#utility.yul\":7241:7400   */\n    tag_115:\n      0x00\n        /* \"#utility.yul\":7349:7355   */\n      dup3\n        /* \"#utility.yul\":7344:7347   */\n      dup3\n        /* \"#utility.yul\":7337:7356   */\n      mstore\n        /* \"#utility.yul\":7389:7393   */\n      0x20\n        /* \"#utility.yul\":7384:7387   */\n      dup3\n        /* \"#utility.yul\":7380:7394   */\n      add\n        /* \"#utility.yul\":7365:7394   */\n      swap1\n      pop\n        /* \"#utility.yul\":7327:7400   */\n      swap3\n      swap2\n      pop\n      pop\n      jump\t// out\n        /* \"#utility.yul\":7406:7575   */\n    tag_124:\n      0x00\n        /* \"#utility.yul\":7524:7530   */\n      dup3\n        /* \"#utility.yul\":7519:7522   */\n      dup3\n        /* \"#utility.yul\":7512:7531   */\n      mstore\n        /* \"#utility.yul\":7564:7568   */\n      0x20\n        /* \"#utility.yul\":7559:7562   */\n      dup3\n        /* \"#utility.yul\":7555:7569   */\n      add\n        /* \"#utility.yul\":7540:7569   */\n      swap1\n      pop\n        /* \"#utility.yul\":7502:7575   */\n      swap3\n      swap2\n      pop\n      pop\n      jump\t// out\n        /* \"#utility.yul\":7581:7772   */\n    tag_30:\n      0x00\n        /* \"#utility.yul\":7641:7661   */\n      tag_157\n        /* \"#utility.yul\":7659:7660   */\n      dup3\n        /* \"#utility.yul\":7641:7661   */\n      tag_133\n      jump\t// in\n    tag_157:\n        /* \"#utility.yul\":7636:7661   */\n      swap2\n      pop\n        /* \"#utility.yul\":7675:7695   */\n      tag_158\n        /* \"#utility.yul\":7693:7694   */\n      dup4\n        /* \"#utility.yul\":7675:7695   */\n      tag_133\n      jump\t// in\n    tag_158:\n        /* \"#utility.yul\":7670:7695   */\n      swap3\n      pop\n        /* \"#utility.yul\":7714:7715   */\n      dup3\n        /* \"#utility.yul\":7711:7712   */\n      dup3\n        /* \"#utility.yul\":7708:7716   */\n      lt\n        /* \"#utility.yul\":7705:7707   */\n      iszero\n      tag_159\n      jumpi\n        /* \"#utility.yul\":7719:7737   */\n      tag_160\n      tag_161\n      jump\t// in\n    tag_160:\n        /* \"#utility.yul\":7705:7707   */\n    tag_159:\n        /* \"#utility.yul\":7764:7765   */\n      dup3\n        /* \"#utility.yul\":7761:7762   */\n      dup3\n        /* \"#utility.yul\":7757:7766   */\n      sub\n        /* \"#utility.yul\":7749:7766   */\n      swap1\n      pop\n        /* \"#utility.yul\":7626:7772   */\n      swap3\n      swap2\n      pop\n      pop\n      jump\t// out\n        /* \"#utility.yul\":7778:7855   */\n    tag_133:\n      0x00\n        /* \"#utility.yul\":7844:7849   */\n      dup2\n        /* \"#utility.yul\":7833:7849   */\n      swap1\n      pop\n        /* \"#utility.yul\":7823:7855   */\n      swap2\n      swap1\n      pop\n      jump\t// out\n        /* \"#utility.yul\":7861:8015   */\n    tag_71:\n        /* \"#utility.yul\":7945:7951   */\n      dup3\n        /* \"#utility.yul\":7940:7943   */\n      dup2\n        /* \"#utility.yul\":7935:7938   */\n      dup4\n        /* \"#utility.yul\":7922:7952   */\n      calldatacopy\n        /* \"#utility.yul\":8007:8008   */\n      0x00\n        /* \"#utility.yul\":7998:8004   */\n      dup4\n        /* \"#utility.yul\":7993:7996   */\n      dup4\n        /* \"#utility.yul\":7989:8005   */\n      add\n        /* \"#utility.yul\":7982:8009   */\n      mstore\n        /* \"#utility.yul\":7912:8015   */\n      pop\n      pop\n      pop\n      jump\t// out\n        /* \"#utility.yul\":8021:8328   */\n    tag_117:\n        /* \"#utility.yul\":8089:8090   */\n      0x00\n        /* \"#utility.yul\":8099:8212   */\n    tag_165:\n        /* \"#utility.yul\":8113:8119   */\n      dup4\n        /* \"#utility.yul\":8110:8111   */\n      dup2\n        /* \"#utility.yul\":8107:8120   */\n      lt\n        /* \"#utility.yul\":8099:8212   */\n      iszero\n      tag_167\n      jumpi\n        /* \"#utility.yul\":8198:8199   */\n      dup1\n        /* \"#utility.yul\":8193:8196   */\n      dup3\n        /* \"#utility.yul\":8189:8200   */\n      add\n        /* \"#utility.yul\":8183:8201   */\n      mload\n        /* \"#utility.yul\":8179:8180   */\n      dup2\n        /* \"#utility.yul\":8174:8177   */\n      dup5\n        /* \"#utility.yul\":8170:8181   */\n      add\n        /* \"#utility.yul\":8163:8202   */\n      mstore\n        /* \"#utility.yul\":8135:8137   */\n      0x20\n        /* \"#utility.yul\":8132:8133   */\n      dup2\n        /* \"#utility.yul\":8128:8138   */\n      add\n        /* \"#utility.yul\":8123:8138   */\n      swap1\n      pop\n        /* \"#utility.yul\":8099:8212   */\n      jump(tag_165)\n    tag_167:\n        /* \"#utility.yul\":8230:8236   */\n      dup4\n        /* \"#utility.yul\":8227:8228   */\n      dup2\n        /* \"#utility.yul\":8224:8237   */\n      gt\n        /* \"#utility.yul\":8221:8223   */\n      iszero\n      tag_168\n      jumpi\n        /* \"#utility.yul\":8310:8311   */\n      0x00\n        /* \"#utility.yul\":8301:8307   */\n      dup5\n        /* \"#utility.yul\":8296:8299   */\n      dup5\n        /* \"#utility.yul\":8292:8308   */\n      add\n        /* \"#utility.yul\":8285:8312   */\n      mstore\n        /* \"#utility.yul\":8221:8223   */\n    tag_168:\n        /* \"#utility.yul\":8070:8328   */\n      pop\n      pop\n      pop\n      pop\n      jump\t// out\n        /* \"#utility.yul\":8334:8654   */\n    tag_36:\n      0x00\n        /* \"#utility.yul\":8415:8416   */\n      0x02\n        /* \"#utility.yul\":8409:8413   */\n      dup3\n        /* \"#utility.yul\":8405:8417   */\n      div\n        /* \"#utility.yul\":8395:8417   */\n      swap1\n      pop\n        /* \"#utility.yul\":8462:8463   */\n      0x01\n        /* \"#utility.yul\":8456:8460   */\n      dup3\n        /* \"#utility.yul\":8452:8464   */\n      and\n        /* \"#utility.yul\":8483:8501   */\n      dup1\n        /* \"#utility.yul\":8473:8475   */\n      tag_170\n      jumpi\n        /* \"#utility.yul\":8539:8543   */\n      0x7f\n        /* \"#utility.yul\":8531:8537   */\n      dup3\n        /* \"#utility.yul\":8527:8544   */\n      and\n        /* \"#utility.yul\":8517:8544   */\n      swap2\n      pop\n        /* \"#utility.yul\":8473:8475   */\n    tag_170:\n        /* \"#utility.yul\":8601:8603   */\n      0x20\n        /* \"#utility.yul\":8593:8599   */\n      dup3\n        /* \"#utility.yul\":8590:8604   */\n      lt\n        /* \"#utility.yul\":8570:8588   */\n      dup2\n        /* \"#utility.yul\":8567:8605   */\n      eq\n        /* \"#utility.yul\":8564:8566   */\n      iszero\n      tag_171\n      jumpi\n        /* \"#utility.yul\":8620:8638   */\n      tag_172\n      tag_173\n      jump\t// in\n    tag_172:\n        /* \"#utility.yul\":8564:8566   */\n    tag_171:\n        /* \"#utility.yul\":8385:8654   */\n      pop\n      swap2\n      swap1\n      pop\n      jump\t// out\n        /* \"#utility.yul\":8660:8840   */\n    tag_161:\n        /* \"#utility.yul\":8708:8785   */\n      0x4e487b7100000000000000000000000000000000000000000000000000000000\n        /* \"#utility.yul\":8705:8706   */\n      0x00\n        /* \"#utility.yul\":8698:8786   */\n      mstore\n        /* \"#utility.yul\":8805:8809   */\n      0x11\n        /* \"#utility.yul\":8802:8803   */\n      0x04\n        /* \"#utility.yul\":8795:8810   */\n      mstore\n        /* \"#utility.yul\":8829:8833   */\n      0x24\n        /* \"#utility.yul\":8826:8827   */\n      0x00\n        /* \"#utility.yul\":8819:8834   */\n      revert\n        /* \"#utility.yul\":8846:9026   */\n    tag_173:\n        /* \"#utility.yul\":8894:8971   */\n      0x4e487b7100000000000000000000000000000000000000000000000000000000\n        /* \"#utility.yul\":8891:8892   */\n      0x00\n        /* \"#utility.yul\":8884:8972   */\n      mstore\n        /* \"#utility.yul\":8991:8995   */\n      0x22\n        /* \"#utility.yul\":8988:8989   */\n      0x04\n        /* \"#utility.yul\":8981:8996   */\n      mstore\n        /* \"#utility.yul\":9015:9019   */\n      0x24\n        /* \"#utility.yul\":9012:9013   */\n      0x00\n        /* \"#utility.yul\":9005:9020   */\n      revert\n        /* \"#utility.yul\":9032:9212   */\n    tag_145:\n        /* \"#utility.yul\":9080:9157   */\n      0x4e487b7100000000000000000000000000000000000000000000000000000000\n        /* \"#utility.yul\":9077:9078   */\n      0x00\n        /* \"#utility.yul\":9070:9158   */\n      mstore\n        /* \"#utility.yul\":9177:9181   */\n      0x41\n        /* \"#utility.yul\":9174:9175   */\n      0x04\n        /* \"#utility.yul\":9167:9182   */\n      mstore\n        /* \"#utility.yul\":9201:9205   */\n      0x24\n        /* \"#utility.yul\":9198:9199   */\n      0x00\n        /* \"#utility.yul\":9191:9206   */\n      revert\n        /* \"#utility.yul\":9218:9320   */\n    tag_119:\n      0x00\n        /* \"#utility.yul\":9310:9312   */\n      0x1f\n        /* \"#utility.yul\":9306:9313   */\n      not\n        /* \"#utility.yul\":9301:9303   */\n      0x1f\n        /* \"#utility.yul\":9294:9299   */\n      dup4\n        /* \"#utility.yul\":9290:9304   */\n      add\n        /* \"#utility.yul\":9286:9314   */\n      and\n        /* \"#utility.yul\":9276:9314   */\n      swap1\n      pop\n        /* \"#utility.yul\":9266:9320   */\n      swap2\n      swap1\n      pop\n      jump\t// out\n        /* \"#utility.yul\":9326:9448   */\n    tag_79:\n        /* \"#utility.yul\":9399:9423   */\n      tag_179\n        /* \"#utility.yul\":9417:9422   */\n      dup2\n        /* \"#utility.yul\":9399:9423   */\n      tag_133\n      jump\t// in\n    tag_179:\n        /* \"#utility.yul\":9392:9397   */\n      dup2\n        /* \"#utility.yul\":9389:9424   */\n      eq\n        /* \"#utility.yul\":9379:9381   */\n      tag_180\n      jumpi\n        /* \"#utility.yul\":9438:9439   */\n      0x00\n        /* \"#utility.yul\":9435:9436   */\n      dup1\n        /* \"#utility.yul\":9428:9440   */\n      revert\n        /* \"#utility.yul\":9379:9381   */\n    tag_180:\n        /* \"#utility.yul\":9369:9448   */\n      pop\n      jump\t// out\n\n    auxdata: 0xa26469706673582212200829a72c67afc7e05c0660e4fe8f08b04e9813c526c14054045e9766e93c967064736f6c63430008000033\n}\n",
				"bytecode": {
					"linkReferences": {},
					"object": "608060405234801561001057600080fd5b50610958806100206000396000f3fe608060405234801561001057600080fd5b506004361061004c5760003560e01c8063441a3e701461005157806367e4ac2c1461006d578063cf35bdd01461008b578063f1215d25146100bc575b600080fd5b61006b60048036038101906100669190610510565b6100d8565b005b61007561014f565b60405161008291906106a2565b60405180910390f35b6100a560048036038101906100a09190610493565b61024a565b6040516100b39291906106c4565b60405180910390f35b6100d660048036038101906100d191906104bc565b610306565b005b6000808381548110610113577f4e487b7100000000000000000000000000000000000000000000000000000000600052603260045260246000fd5b906000526020600020906002020190508181600001541061014a578181600001600082825461014291906107bb565b925050819055505b505050565b60606000805480602002602001604051908101604052809291908181526020016000905b828210156102415783829060005260206000209060020201604051806040016040529081600082015481526020016001820180546101b09061083b565b80601f01602080910402602001604051908101604052809291908181526020018280546101dc9061083b565b80156102295780601f106101fe57610100808354040283529160200191610229565b820191906000526020600020905b81548152906001019060200180831161020c57829003601f168201915b50505050508152505081526020019060010190610173565b50505050905090565b6000818154811061025a57600080fd5b90600052602060002090600202016000915090508060000154908060010180546102839061083b565b80601f01602080910402602001604051908101604052809291908181526020018280546102af9061083b565b80156102fc5780601f106102d1576101008083540402835291602001916102fc565b820191906000526020600020905b8154815290600101906020018083116102df57829003601f168201915b5050505050905082565b6000604051806040016040528084815260200183815250908060018154018082558091505060019003906000526020600020906002020160009091909190915060008201518160000155602082015181600101908051906020019061036c929190610373565b5050505050565b82805461037f9061083b565b90600052602060002090601f0160209004810192826103a157600085556103e8565b82601f106103ba57805160ff19168380011785556103e8565b828001600101855582156103e8579182015b828111156103e75782518255916020019190600101906103cc565b5b5090506103f591906103f9565b5090565b5b808211156104125760008160009055506001016103fa565b5090565b600061042961042484610725565b6106f4565b90508281526020810184848401111561044157600080fd5b61044c8482856107f9565b509392505050565b600082601f83011261046557600080fd5b8135610475848260208601610416565b91505092915050565b60008135905061048d8161090b565b92915050565b6000602082840312156104a557600080fd5b60006104b38482850161047e565b91505092915050565b600080604083850312156104cf57600080fd5b60006104dd8582860161047e565b925050602083013567ffffffffffffffff8111156104fa57600080fd5b61050685828601610454565b9150509250929050565b6000806040838503121561052357600080fd5b60006105318582860161047e565b92505060206105428582860161047e565b9150509250929050565b60006105588383610647565b905092915050565b600061056b82610765565b6105758185610788565b93508360208202850161058785610755565b8060005b858110156105c357848403895281516105a4858261054c565b94506105af8361077b565b925060208a0199505060018101905061058b565b50829750879550505050505092915050565b60006105e082610770565b6105ea8185610799565b93506105fa818560208601610808565b610603816108fa565b840191505092915050565b600061061982610770565b61062381856107aa565b9350610633818560208601610808565b61063c816108fa565b840191505092915050565b600060408301600083015161065f6000860182610684565b506020830151848203602086015261067782826105d5565b9150508091505092915050565b61068d816107ef565b82525050565b61069c816107ef565b82525050565b600060208201905081810360008301526106bc8184610560565b905092915050565b60006040820190506106d96000830185610693565b81810360208301526106eb818461060e565b90509392505050565b6000604051905081810181811067ffffffffffffffff8211171561071b5761071a6108cb565b5b8060405250919050565b600067ffffffffffffffff8211156107405761073f6108cb565b5b601f19601f8301169050602081019050919050565b6000819050602082019050919050565b600081519050919050565b600081519050919050565b6000602082019050919050565b600082825260208201905092915050565b600082825260208201905092915050565b600082825260208201905092915050565b60006107c6826107ef565b91506107d1836107ef565b9250828210156107e4576107e361086d565b5b828203905092915050565b6000819050919050565b82818337600083830152505050565b60005b8381101561082657808201518184015260208101905061080b565b83811115610835576000848401525b50505050565b6000600282049050600182168061085357607f821691505b602082108114156108675761086661089c565b5b50919050565b7f4e487b7100000000000000000000000000000000000000000000000000000000600052601160045260246000fd5b7f4e487b7100000000000000000000000000000000000000000000000000000000600052602260045260246000fd5b7f4e487b7100000000000000000000000000000000000000000000000000000000600052604160045260246000fd5b6000601f19601f8301169050919050565b610914816107ef565b811461091f57600080fd5b5056fea26469706673582212200829a72c67afc7e05c0660e4fe8f08b04e9813c526c14054045e9766e93c967064736f6c63430008000033",
					"opcodes": "PUSH1 0x80 PUSH1 0x40 MSTORE CALLVALUE DUP1 ISZERO PUSH2 0x10 JUMPI PUSH1 0x0 DUP1 REVERT JUMPDEST POP PUSH2 0x958 DUP1 PUSH2 0x20 PUSH1 0x0 CODECOPY PUSH1 0x0 RETURN INVALID PUSH1 0x80 PUSH1 0x40 MSTORE CALLVALUE DUP1 ISZERO PUSH2 0x10 JUMPI PUSH1 0x0 DUP1 REVERT JUMPDEST POP PUSH1 0x4 CALLDATASIZE LT PUSH2 0x4C JUMPI PUSH1 0x0 CALLDATALOAD PUSH1 0xE0 SHR DUP1 PUSH4 0x441A3E70 EQ PUSH2 0x51 JUMPI DUP1 PUSH4 0x67E4AC2C EQ PUSH2 0x6D JUMPI DUP1 PUSH4 0xCF35BDD0 EQ PUSH2 0x8B JUMPI DUP1 PUSH4 0xF1215D25 EQ PUSH2 0xBC JUMPI JUMPDEST PUSH1 0x0 DUP1 REVERT JUMPDEST PUSH2 0x6B PUSH1 0x4 DUP1 CALLDATASIZE SUB DUP2 ADD SWAP1 PUSH2 0x66 SWAP2 SWAP1 PUSH2 0x510 JUMP JUMPDEST PUSH2 0xD8 JUMP JUMPDEST STOP JUMPDEST PUSH2 0x75 PUSH2 0x14F JUMP JUMPDEST PUSH1 0x40 MLOAD PUSH2 0x82 SWAP2 SWAP1 PUSH2 0x6A2 JUMP JUMPDEST PUSH1 0x40 MLOAD DUP1 SWAP2 SUB SWAP1 RETURN JUMPDEST PUSH2 0xA5 PUSH1 0x4 DUP1 CALLDATASIZE SUB DUP2 ADD SWAP1 PUSH2 0xA0 SWAP2 SWAP1 PUSH2 0x493 JUMP JUMPDEST PUSH2 0x24A JUMP JUMPDEST PUSH1 0x40 MLOAD PUSH2 0xB3 SWAP3 SWAP2 SWAP1 PUSH2 0x6C4 JUMP JUMPDEST PUSH1 0x40 MLOAD DUP1 SWAP2 SUB SWAP1 RETURN JUMPDEST PUSH2 0xD6 PUSH1 0x4 DUP1 CALLDATASIZE SUB DUP2 ADD SWAP1 PUSH2 0xD1 SWAP2 SWAP1 PUSH2 0x4BC JUMP JUMPDEST PUSH2 0x306 JUMP JUMPDEST STOP JUMPDEST PUSH1 0x0 DUP1 DUP4 DUP2 SLOAD DUP2 LT PUSH2 0x113 JUMPI PUSH32 0x4E487B7100000000000000000000000000000000000000000000000000000000 PUSH1 0x0 MSTORE PUSH1 0x32 PUSH1 0x4 MSTORE PUSH1 0x24 PUSH1 0x0 REVERT JUMPDEST SWAP1 PUSH1 0x0 MSTORE PUSH1 0x20 PUSH1 0x0 KECCAK256 SWAP1 PUSH1 0x2 MUL ADD SWAP1 POP DUP2 DUP2 PUSH1 0x0 ADD SLOAD LT PUSH2 0x14A JUMPI DUP2 DUP2 PUSH1 0x0 ADD PUSH1 0x0 DUP3 DUP3 SLOAD PUSH2 0x142 SWAP2 SWAP1 PUSH2 0x7BB JUMP JUMPDEST SWAP3 POP POP DUP2 SWAP1 SSTORE POP JUMPDEST POP POP POP JUMP JUMPDEST PUSH1 0x60 PUSH1 0x0 DUP1 SLOAD DUP1 PUSH1 0x20 MUL PUSH1 0x20 ADD PUSH1 0x40 MLOAD SWAP1 DUP2 ADD PUSH1 0x40 MSTORE DUP1 SWAP3 SWAP2 SWAP1 DUP2 DUP2 MSTORE PUSH1 0x20 ADD PUSH1 0x0 SWAP1 JUMPDEST DUP3 DUP3 LT ISZERO PUSH2 0x241 JUMPI DUP4 DUP3 SWAP1 PUSH1 0x0 MSTORE PUSH1 0x20 PUSH1 0x0 KECCAK256 SWAP1 PUSH1 0x2 MUL ADD PUSH1 0x40 MLOAD DUP1 PUSH1 0x40 ADD PUSH1 0x40 MSTORE SWAP1 DUP2 PUSH1 0x0 DUP3 ADD SLOAD DUP2 MSTORE PUSH1 0x20 ADD PUSH1 0x1 DUP3 ADD DUP1 SLOAD PUSH2 0x1B0 SWAP1 PUSH2 0x83B JUMP JUMPDEST DUP1 PUSH1 0x1F ADD PUSH1 0x20 DUP1 SWAP2 DIV MUL PUSH1 0x20 ADD PUSH1 0x40 MLOAD SWAP1 DUP2 ADD PUSH1 0x40 MSTORE DUP1 SWAP3 SWAP2 SWAP1 DUP2 DUP2 MSTORE PUSH1 0x20 ADD DUP3 DUP1 SLOAD PUSH2 0x1DC SWAP1 PUSH2 0x83B JUMP JUMPDEST DUP1 ISZERO PUSH2 0x229 JUMPI DUP1 PUSH1 0x1F LT PUSH2 0x1FE JUMPI PUSH2 0x100 DUP1 DUP4 SLOAD DIV MUL DUP4 MSTORE SWAP2 PUSH1 0x20 ADD SWAP2 PUSH2 0x229 JUMP JUMPDEST DUP3 ADD SWAP2 SWAP1 PUSH1 0x0 MSTORE PUSH1 0x20 PUSH1 0x0 KECCAK256 SWAP1 JUMPDEST DUP2 SLOAD DUP2 MSTORE SWAP1 PUSH1 0x1 ADD SWAP1 PUSH1 0x20 ADD DUP1 DUP4 GT PUSH2 0x20C JUMPI DUP3 SWAP1 SUB PUSH1 0x1F AND DUP3 ADD SWAP2 JUMPDEST POP POP POP POP POP DUP2 MSTORE POP POP DUP2 MSTORE PUSH1 0x20 ADD SWAP1 PUSH1 0x1 ADD SWAP1 PUSH2 0x173 JUMP JUMPDEST POP POP POP POP SWAP1 POP SWAP1 JUMP JUMPDEST PUSH1 0x0 DUP2 DUP2 SLOAD DUP2 LT PUSH2 0x25A JUMPI PUSH1 0x0 DUP1 REVERT JUMPDEST SWAP1 PUSH1 0x0 MSTORE PUSH1 0x20 PUSH1 0x0 KECCAK256 SWAP1 PUSH1 0x2 MUL ADD PUSH1 0x0 SWAP2 POP SWAP1 POP DUP1 PUSH1 0x0 ADD SLOAD SWAP1 DUP1 PUSH1 0x1 ADD DUP1 SLOAD PUSH2 0x283 SWAP1 PUSH2 0x83B JUMP JUMPDEST DUP1 PUSH1 0x1F ADD PUSH1 0x20 DUP1 SWAP2 DIV MUL PUSH1 0x20 ADD PUSH1 0x40 MLOAD SWAP1 DUP2 ADD PUSH1 0x40 MSTORE DUP1 SWAP3 SWAP2 SWAP1 DUP2 DUP2 MSTORE PUSH1 0x20 ADD DUP3 DUP1 SLOAD PUSH2 0x2AF SWAP1 PUSH2 0x83B JUMP JUMPDEST DUP1 ISZERO PUSH2 0x2FC JUMPI DUP1 PUSH1 0x1F LT PUSH2 0x2D1 JUMPI PUSH2 0x100 DUP1 DUP4 SLOAD DIV MUL DUP4 MSTORE SWAP2 PUSH1 0x20 ADD SWAP2 PUSH2 0x2FC JUMP JUMPDEST DUP3 ADD SWAP2 SWAP1 PUSH1 0x0 MSTORE PUSH1 0x20 PUSH1 0x0 KECCAK256 SWAP1 JUMPDEST DUP2 SLOAD DUP2 MSTORE SWAP1 PUSH1 0x1 ADD SWAP1 PUSH1 0x20 ADD DUP1 DUP4 GT PUSH2 0x2DF JUMPI DUP3 SWAP1 SUB PUSH1 0x1F AND DUP3 ADD SWAP2 JUMPDEST POP POP POP POP POP SWAP1 POP DUP3 JUMP JUMPDEST PUSH1 0x0 PUSH1 0x40 MLOAD DUP1 PUSH1 0x40 ADD PUSH1 0x40 MSTORE DUP1 DUP5 DUP2 MSTORE PUSH1 0x20 ADD DUP4 DUP2 MSTORE POP SWAP1 DUP1 PUSH1 0x1 DUP2 SLOAD ADD DUP1 DUP3 SSTORE DUP1 SWAP2 POP POP PUSH1 0x1 SWAP1 SUB SWAP1 PUSH1 0x0 MSTORE PUSH1 0x20 PUSH1 0x0 KECCAK256 SWAP1 PUSH1 0x2 MUL ADD PUSH1 0x0 SWAP1 SWAP2 SWAP1 SWAP2 SWAP1 SWAP2 POP PUSH1 0x0 DUP3 ADD MLOAD DUP2 PUSH1 0x0 ADD SSTORE PUSH1 0x20 DUP3 ADD MLOAD DUP2 PUSH1 0x1 ADD SWAP1 DUP1 MLOAD SWAP1 PUSH1 0x20 ADD SWAP1 PUSH2 0x36C SWAP3 SWAP2 SWAP1 PUSH2 0x373 JUMP JUMPDEST POP POP POP POP POP JUMP JUMPDEST DUP3 DUP1 SLOAD PUSH2 0x37F SWAP1 PUSH2 0x83B JUMP JUMPDEST SWAP1 PUSH1 0x0 MSTORE PUSH1 0x20 PUSH1 0x0 KECCAK256 SWAP1 PUSH1 0x1F ADD PUSH1 0x20 SWAP1 DIV DUP2 ADD SWAP3 DUP3 PUSH2 0x3A1 JUMPI PUSH1 0x0 DUP6 SSTORE PUSH2 0x3E8 JUMP JUMPDEST DUP3 PUSH1 0x1F LT PUSH2 0x3BA JUMPI DUP1 MLOAD PUSH1 0xFF NOT AND DUP4 DUP1 ADD OR DUP6 SSTORE PUSH2 0x3E8 JUMP JUMPDEST DUP3 DUP1 ADD PUSH1 0x1 ADD DUP6 SSTORE DUP3 ISZERO PUSH2 0x3E8 JUMPI SWAP2 DUP3 ADD JUMPDEST DUP3 DUP2 GT ISZERO PUSH2 0x3E7 JUMPI DUP3 MLOAD DUP3 SSTORE SWAP2 PUSH1 0x20 ADD SWAP2 SWAP1 PUSH1 0x1 ADD SWAP1 PUSH2 0x3CC JUMP JUMPDEST JUMPDEST POP SWAP1 POP PUSH2 0x3F5 SWAP2 SWAP1 PUSH2 0x3F9 JUMP JUMPDEST POP SWAP1 JUMP JUMPDEST JUMPDEST DUP1 DUP3 GT ISZERO PUSH2 0x412 JUMPI PUSH1 0x0 DUP2 PUSH1 0x0 SWAP1 SSTORE POP PUSH1 0x1 ADD PUSH2 0x3FA JUMP JUMPDEST POP SWAP1 JUMP JUMPDEST PUSH1 0x0 PUSH2 0x429 PUSH2 0x424 DUP5 PUSH2 0x725 JUMP JUMPDEST PUSH2 0x6F4 JUMP JUMPDEST SWAP1 POP DUP3 DUP2 MSTORE PUSH1 0x20 DUP2 ADD DUP5 DUP5 DUP5 ADD GT ISZERO PUSH2 0x441 JUMPI PUSH1 0x0 DUP1 REVERT JUMPDEST PUSH2 0x44C DUP5 DUP3 DUP6 PUSH2 0x7F9 JUMP JUMPDEST POP SWAP4 SWAP3 POP POP POP JUMP JUMPDEST PUSH1 0x0 DUP3 PUSH1 0x1F DUP4 ADD SLT PUSH2 0x465 JUMPI PUSH1 0x0 DUP1 REVERT JUMPDEST DUP2 CALLDATALOAD PUSH2 0x475 DUP5 DUP3 PUSH1 0x20 DUP7 ADD PUSH2 0x416 JUMP JUMPDEST SWAP2 POP POP SWAP3 SWAP2 POP POP JUMP JUMPDEST PUSH1 0x0 DUP2 CALLDATALOAD SWAP1 POP PUSH2 0x48D DUP2 PUSH2 0x90B JUMP JUMPDEST SWAP3 SWAP2 POP POP JUMP JUMPDEST PUSH1 0x0 PUSH1 0x20 DUP3 DUP5 SUB SLT ISZERO PUSH2 0x4A5 JUMPI PUSH1 0x0 DUP1 REVERT JUMPDEST PUSH1 0x0 PUSH2 0x4B3 DUP5 DUP3 DUP6 ADD PUSH2 0x47E JUMP JUMPDEST SWAP2 POP POP SWAP3 SWAP2 POP POP JUMP JUMPDEST PUSH1 0x0 DUP1 PUSH1 0x40 DUP4 DUP6 SUB SLT ISZERO PUSH2 0x4CF JUMPI PUSH1 0x0 DUP1 REVERT JUMPDEST PUSH1 0x0 PUSH2 0x4DD DUP6 DUP3 DUP7 ADD PUSH2 0x47E JUMP JUMPDEST SWAP3 POP POP PUSH1 0x20 DUP4 ADD CALLDATALOAD PUSH8 0xFFFFFFFFFFFFFFFF DUP2 GT ISZERO PUSH2 0x4FA JUMPI PUSH1 0x0 DUP1 REVERT JUMPDEST PUSH2 0x506 DUP6 DUP3 DUP7 ADD PUSH2 0x454 JUMP JUMPDEST SWAP2 POP POP SWAP3 POP SWAP3 SWAP1 POP JUMP JUMPDEST PUSH1 0x0 DUP1 PUSH1 0x40 DUP4 DUP6 SUB SLT ISZERO PUSH2 0x523 JUMPI PUSH1 0x0 DUP1 REVERT JUMPDEST PUSH1 0x0 PUSH2 0x531 DUP6 DUP3 DUP7 ADD PUSH2 0x47E JUMP JUMPDEST SWAP3 POP POP PUSH1 0x20 PUSH2 0x542 DUP6 DUP3 DUP7 ADD PUSH2 0x47E JUMP JUMPDEST SWAP2 POP POP SWAP3 POP SWAP3 SWAP1 POP JUMP JUMPDEST PUSH1 0x0 PUSH2 0x558 DUP4 DUP4 PUSH2 0x647 JUMP JUMPDEST SWAP1 POP SWAP3 SWAP2 POP POP JUMP JUMPDEST PUSH1 0x0 PUSH2 0x56B DUP3 PUSH2 0x765 JUMP JUMPDEST PUSH2 0x575 DUP2 DUP6 PUSH2 0x788 JUMP JUMPDEST SWAP4 POP DUP4 PUSH1 0x20 DUP3 MUL DUP6 ADD PUSH2 0x587 DUP6 PUSH2 0x755 JUMP JUMPDEST DUP1 PUSH1 0x0 JUMPDEST DUP6 DUP2 LT ISZERO PUSH2 0x5C3 JUMPI DUP5 DUP5 SUB DUP10 MSTORE DUP2 MLOAD PUSH2 0x5A4 DUP6 DUP3 PUSH2 0x54C JUMP JUMPDEST SWAP5 POP PUSH2 0x5AF DUP4 PUSH2 0x77B JUMP JUMPDEST SWAP3 POP PUSH1 0x20 DUP11 ADD SWAP10 POP POP PUSH1 0x1 DUP2 ADD SWAP1 POP PUSH2 0x58B JUMP JUMPDEST POP DUP3 SWAP8 POP DUP8 SWAP6 POP POP POP POP POP POP SWAP3 SWAP2 POP POP JUMP JUMPDEST PUSH1 0x0 PUSH2 0x5E0 DUP3 PUSH2 0x770 JUMP JUMPDEST PUSH2 0x5EA DUP2 DUP6 PUSH2 0x799 JUMP JUMPDEST SWAP4 POP PUSH2 0x5FA DUP2 DUP6 PUSH1 0x20 DUP7 ADD PUSH2 0x808 JUMP JUMPDEST PUSH2 0x603 DUP2 PUSH2 0x8FA JUMP JUMPDEST DUP5 ADD SWAP2 POP POP SWAP3 SWAP2 POP POP JUMP JUMPDEST PUSH1 0x0 PUSH2 0x619 DUP3 PUSH2 0x770 JUMP JUMPDEST PUSH2 0x623 DUP2 DUP6 PUSH2 0x7AA JUMP JUMPDEST SWAP4 POP PUSH2 0x633 DUP2 DUP6 PUSH1 0x20 DUP7 ADD PUSH2 0x808 JUMP JUMPDEST PUSH2 0x63C DUP2 PUSH2 0x8FA JUMP JUMPDEST DUP5 ADD SWAP2 POP POP SWAP3 SWAP2 POP POP JUMP JUMPDEST PUSH1 0x0 PUSH1 0x40 DUP4 ADD PUSH1 0x0 DUP4 ADD MLOAD PUSH2 0x65F PUSH1 0x0 DUP7 ADD DUP3 PUSH2 0x684 JUMP JUMPDEST POP PUSH1 0x20 DUP4 ADD MLOAD DUP5 DUP3 SUB PUSH1 0x20 DUP7 ADD MSTORE PUSH2 0x677 DUP3 DUP3 PUSH2 0x5D5 JUMP JUMPDEST SWAP2 POP POP DUP1 SWAP2 POP POP SWAP3 SWAP2 POP POP JUMP JUMPDEST PUSH2 0x68D DUP2 PUSH2 0x7EF JUMP JUMPDEST DUP3 MSTORE POP POP JUMP JUMPDEST PUSH2 0x69C DUP2 PUSH2 0x7EF JUMP JUMPDEST DUP3 MSTORE POP POP JUMP JUMPDEST PUSH1 0x0 PUSH1 0x20 DUP3 ADD SWAP1 POP DUP2 DUP2 SUB PUSH1 0x0 DUP4 ADD MSTORE PUSH2 0x6BC DUP2 DUP5 PUSH2 0x560 JUMP JUMPDEST SWAP1 POP SWAP3 SWAP2 POP POP JUMP JUMPDEST PUSH1 0x0 PUSH1 0x40 DUP3 ADD SWAP1 POP PUSH2 0x6D9 PUSH1 0x0 DUP4 ADD DUP6 PUSH2 0x693 JUMP JUMPDEST DUP2 DUP2 SUB PUSH1 0x20 DUP4 ADD MSTORE PUSH2 0x6EB DUP2 DUP5 PUSH2 0x60E JUMP JUMPDEST SWAP1 POP SWAP4 SWAP3 POP POP POP JUMP JUMPDEST PUSH1 0x0 PUSH1 0x40 MLOAD SWAP1 POP DUP2 DUP2 ADD DUP2 DUP2 LT PUSH8 0xFFFFFFFFFFFFFFFF DUP3 GT OR ISZERO PUSH2 0x71B JUMPI PUSH2 0x71A PUSH2 0x8CB JUMP JUMPDEST JUMPDEST DUP1 PUSH1 0x40 MSTORE POP SWAP2 SWAP1 POP JUMP JUMPDEST PUSH1 0x0 PUSH8 0xFFFFFFFFFFFFFFFF DUP3 GT ISZERO PUSH2 0x740 JUMPI PUSH2 0x73F PUSH2 0x8CB JUMP JUMPDEST JUMPDEST PUSH1 0x1F NOT PUSH1 0x1F DUP4 ADD AND SWAP1 POP PUSH1 0x20 DUP2 ADD SWAP1 POP SWAP2 SWAP1 POP JUMP JUMPDEST PUSH1 0x0 DUP2 SWAP1 POP PUSH1 0x20 DUP3 ADD SWAP1 POP SWAP2 SWAP1 POP JUMP JUMPDEST PUSH1 0x0 DUP2 MLOAD SWAP1 POP SWAP2 SWAP1 POP JUMP JUMPDEST PUSH1 0x0 DUP2 MLOAD SWAP1 POP SWAP2 SWAP1 POP JUMP JUMPDEST PUSH1 0x0 PUSH1 0x20 DUP3 ADD SWAP1 POP SWAP2 SWAP1 POP JUMP JUMPDEST PUSH1 0x0 DUP3 DUP3 MSTORE PUSH1 0x20 DUP3 ADD SWAP1 POP SWAP3 SWAP2 POP POP JUMP JUMPDEST PUSH1 0x0 DUP3 DUP3 MSTORE PUSH1 0x20 DUP3 ADD SWAP1 POP SWAP3 SWAP2 POP POP JUMP JUMPDEST PUSH1 0x0 DUP3 DUP3 MSTORE PUSH1 0x20 DUP3 ADD SWAP1 POP SWAP3 SWAP2 POP POP JUMP JUMPDEST PUSH1 0x0 PUSH2 0x7C6 DUP3 PUSH2 0x7EF JUMP JUMPDEST SWAP2 POP PUSH2 0x7D1 DUP4 PUSH2 0x7EF JUMP JUMPDEST SWAP3 POP DUP3 DUP3 LT ISZERO PUSH2 0x7E4 JUMPI PUSH2 0x7E3 PUSH2 0x86D JUMP JUMPDEST JUMPDEST DUP3 DUP3 SUB SWAP1 POP SWAP3 SWAP2 POP POP JUMP JUMPDEST PUSH1 0x0 DUP2 SWAP1 POP SWAP2 SWAP1 POP JUMP JUMPDEST DUP3 DUP2 DUP4 CALLDATACOPY PUSH1 0x0 DUP4 DUP4 ADD MSTORE POP POP POP JUMP JUMPDEST PUSH1 0x0 JUMPDEST DUP4 DUP2 LT ISZERO PUSH2 0x826 JUMPI DUP1 DUP3 ADD MLOAD DUP2 DUP5 ADD MSTORE PUSH1 0x20 DUP2 ADD SWAP1 POP PUSH2 0x80B JUMP JUMPDEST DUP4 DUP2 GT ISZERO PUSH2 0x835 JUMPI PUSH1 0x0 DUP5 DUP5 ADD MSTORE JUMPDEST POP POP POP POP JUMP JUMPDEST PUSH1 0x0 PUSH1 0x2 DUP3 DIV SWAP1 POP PUSH1 0x1 DUP3 AND DUP1 PUSH2 0x853 JUMPI PUSH1 0x7F DUP3 AND SWAP2 POP JUMPDEST PUSH1 0x20 DUP3 LT DUP2 EQ ISZERO PUSH2 0x867 JUMPI PUSH2 0x866 PUSH2 0x89C JUMP JUMPDEST JUMPDEST POP SWAP2 SWAP1 POP JUMP JUMPDEST PUSH32 0x4E487B7100000000000000000000000000000000000000000000000000000000 PUSH1 0x0 MSTORE PUSH1 0x11 PUSH1 0x4 MSTORE PUSH1 0x24 PUSH1 0x0 REVERT JUMPDEST PUSH32 0x4E487B7100000000000000000000000000000000000000000000000000000000 PUSH1 0x0 MSTORE PUSH1 0x22 PUSH1 0x4 MSTORE PUSH1 0x24 PUSH1 0x0 REVERT JUMPDEST PUSH32 0x4E487B7100000000000000000000000000000000000000000000000000000000 PUSH1 0x0 MSTORE PUSH1 0x41 PUSH1 0x4 MSTORE PUSH1 0x24 PUSH1 0x0 REVERT JUMPDEST PUSH1 0x0 PUSH1 0x1F NOT PUSH1 0x1F DUP4 ADD AND SWAP1 POP SWAP2 SWAP1 POP JUMP JUMPDEST PUSH2 0x914 DUP2 PUSH2 0x7EF JUMP JUMPDEST DUP2 EQ PUSH2 0x91F JUMPI PUSH1 0x0 DUP1 REVERT JUMPDEST POP JUMP INVALID LOG2 PUSH5 0x6970667358 0x22 SLT KECCAK256 ADDMOD 0x29 0xA7 0x2C PUSH8 0xAFC7E05C0660E4FE DUP16 ADDMOD 0xB0 0x4E SWAP9 SGT 0xC5 0x26 0xC1 BLOCKHASH SLOAD DIV 0x5E SWAP8 PUSH7 0xE93C967064736F PUSH13 0x63430008000033000000000000 "
				},
				"gasEstimates": {
					"creation": {
						"codeDepositCost": "478400",
						"executionCost": "511",
						"totalCost": "478911"
					},
					"external": {
						"assets(uint256)": "infinite",
						"deposit(uint256,string)": "infinite",
						"getAssets()": "infinite",
						"withdraw(uint256,uint256)": "infinite"
					}
				},
				"methodIdentifiers": {
					"assets(uint256)": "cf35bdd0",
					"deposit(uint256,string)": "f1215d25",
					"getAssets()": "67e4ac2c",
					"withdraw(uint256,uint256)": "441a3e70"
				}
			},
			"storageLayout": {
				"storage": [
					{
						"astId": 10,
						"contract": "contracts/lockbox.sol:Safe",
						"label": "assets",
						"offset": 0,
						"slot": "0",
						"type": "t_array(t_struct(Asset)6_storage)dyn_storage"
					}
				],
				"types": {
					"t_array(t_struct(Asset)6_storage)dyn_storage": {
						"base": "t_struct(Asset)6_storage",
						"encoding": "dynamic_array",
						"label": "struct Safe.Asset[]",
						"numberOfBytes": "32"
					},
					"t_string_storage": {
						"encoding": "bytes",
						"label": "string",
						"numberOfBytes": "32"
					},
					"t_struct(Asset)6_storage": {
						"encoding": "inplace",
						"label": "struct Safe.Asset",
						"members": [
							{
								"astId": 3,
								"contract": "contracts/lockbox.sol:Safe",
								"label": "amount",
								"offset": 0,
								"slot": "0",
								"type": "t_uint256"
							},
							{
								"astId": 5,
								"contract": "contracts/lockbox.sol:Safe",
								"label": "assetType",
								"offset": 0,
								"slot": "1",
								"type": "t_string_storage"
							}
						],
						"numberOfBytes": "64"
					},
					"t_uint256": {
						"encoding": "inplace",
						"label": "uint256",
						"numberOfBytes": "32"
					}
				}
			},
			"userdoc": {
				"kind": "user",
				"methods": {},
				"version": 1
			}
		}
	}
}