{
	"tests/calculator_test.sol": {
		"testSuite": {
			"abi": [
				{
					"inputs": [],
					"name": "add",
					"outputs": [],
					"stateMutability": "nonpayable",
					"type": "function"
				},
				{
					"inputs": [],
					"name": "divide",
					"outputs": [],
					"stateMutability": "nonpayable",
					"type": "function"
				},
				{
					"inputs": [],
					"name": "multiply",
					"outputs": [],
					"stateMutability": "nonpayable",
					"type": "function"
				},
				{
					"inputs": [],
					"name": "subtract",
					"outputs": [],
					"stateMutability": "nonpayable",
					"type": "function"
				}
			],
			"devdoc": {
				"kind": "dev",
				"methods": {},
				"version": 1
			},
			"evm": {
				"assembly": "    /* \"tests/calculator_test.sol\":165:948  contract testSuite {... */\n  mstore(0x40, 0x80)\n    /* \"tests/calculator_test.sol\":214:230  new Calculator() */\n  mload(0x40)\n  tag_1\n  swap1\n  tag_2\n  jump\t// in\ntag_1:\n  mload(0x40)\n  dup1\n  swap2\n  sub\n  swap1\n  0x00\n  create\n  dup1\n  iszero\n  dup1\n  iszero\n  tag_3\n  jumpi\n  returndatasize\n  0x00\n  dup1\n  returndatacopy\n  revert(0x00, returndatasize)\ntag_3:\n  pop\n    /* \"tests/calculator_test.sol\":190:230  Calculator calculator = new Calculator() */\n  0x00\n  dup1\n  0x0100\n  exp\n  dup2\n  sload\n  dup2\n  0xffffffffffffffffffffffffffffffffffffffff\n  mul\n  not\n  and\n  swap1\n  dup4\n  0xffffffffffffffffffffffffffffffffffffffff\n  and\n  mul\n  or\n  swap1\n  sstore\n  pop\n    /* \"tests/calculator_test.sol\":165:948  contract testSuite {... */\n  callvalue\n  dup1\n  iszero\n  tag_4\n  jumpi\n  0x00\n  dup1\n  revert\ntag_4:\n  pop\n  jump(tag_5)\ntag_2:\n  dataSize(sub_1)\n  dup1\n  dataOffset(sub_1)\n  dup4\n  codecopy\n  add\n  swap1\n  jump\t// out\ntag_5:\n  dataSize(sub_0)\n  dup1\n  dataOffset(sub_0)\n  0x00\n  codecopy\n  0x00\n  return\nstop\n\nsub_0: assembly {\n        /* \"tests/calculator_test.sol\":165:948  contract testSuite {... */\n      mstore(0x40, 0x80)\n      callvalue\n      dup1\n      iszero\n      tag_1\n      jumpi\n      0x00\n      dup1\n      revert\n    tag_1:\n      pop\n      jumpi(tag_2, lt(calldatasize, 0x04))\n      shr(0xe0, calldataload(0x00))\n      dup1\n      0x4f2be91f\n      eq\n      tag_3\n      jumpi\n      dup1\n      0x6deebae3\n      eq\n      tag_4\n      jumpi\n      dup1\n      0xb53b8d7a\n      eq\n      tag_5\n      jumpi\n      dup1\n      0xf3593cd0\n      eq\n      tag_6\n      jumpi\n    tag_2:\n      0x00\n      dup1\n      revert\n        /* \"tests/calculator_test.sol\":237:400  function add() public {... */\n    tag_3:\n      tag_7\n      tag_8\n      jump\t// in\n    tag_7:\n      stop\n        /* \"tests/calculator_test.sol\":406:583  function subtract() public {... */\n    tag_4:\n      tag_9\n      tag_10\n      jump\t// in\n    tag_9:\n      stop\n        /* \"tests/calculator_test.sol\":775:946  function divide() public {... */\n    tag_5:\n      tag_11\n      tag_12\n      jump\t// in\n    tag_11:\n      stop\n        /* \"tests/calculator_test.sol\":589:769  function multiply() public {... */\n    tag_6:\n      tag_13\n      tag_14\n      jump\t// in\n    tag_13:\n      stop\n        /* \"tests/calculator_test.sol\":237:400  function add() public {... */\n    tag_8:\n        /* \"tests/calculator_test.sol\":269:275  Assert */\n      linkerSymbol(\"acbfb1c35000d78352310b16a054a6b1066124b9c6f054b10c085f549bff80c6\")\n        /* \"tests/calculator_test.sol\":269:278  Assert.ok */\n      0x39df137f\n        /* \"tests/calculator_test.sol\":303:304  3 */\n      0x03\n        /* \"tests/calculator_test.sol\":279:289  calculator */\n      0x00\n      dup1\n      sload\n      swap1\n      0x0100\n      exp\n      swap1\n      div\n      0xffffffffffffffffffffffffffffffffffffffff\n      and\n        /* \"tests/calculator_test.sol\":279:293  calculator.add */\n      0xffffffffffffffffffffffffffffffffffffffff\n      and\n      0x771602f7\n        /* \"tests/calculator_test.sol\":294:295  1 */\n      0x01\n        /* \"tests/calculator_test.sol\":297:298  2 */\n      0x02\n        /* \"tests/calculator_test.sol\":279:299  calculator.add(1, 2) */\n      mload(0x40)\n      dup4\n      0xffffffff\n      and\n      0xe0\n      shl\n      dup2\n      mstore\n      0x04\n      add\n      tag_16\n      swap3\n      swap2\n      swap1\n      tag_17\n      jump\t// in\n    tag_16:\n      0x20\n      mload(0x40)\n      dup1\n      dup4\n      sub\n      dup2\n      dup7\n      dup1\n      extcodesize\n      iszero\n      dup1\n      iszero\n      tag_18\n      jumpi\n      0x00\n      dup1\n      revert\n    tag_18:\n      pop\n      gas\n      staticcall\n      iszero\n      dup1\n      iszero\n      tag_20\n      jumpi\n      returndatasize\n      0x00\n      dup1\n      returndatacopy\n      revert(0x00, returndatasize)\n    tag_20:\n      pop\n      pop\n      pop\n      pop\n      mload(0x40)\n      returndatasize\n      not(0x1f)\n      0x1f\n      dup3\n      add\n      and\n      dup3\n      add\n      dup1\n      0x40\n      mstore\n      pop\n      dup2\n      add\n      swap1\n      tag_21\n      swap2\n      swap1\n      tag_22\n      jump\t// in\n    tag_21:\n        /* \"tests/calculator_test.sol\":279:304  calculator.add(1, 2) == 3 */\n      eq\n        /* \"tests/calculator_test.sol\":269:323  Assert.ok(calculator.add(1, 2) == 3, 'should be true') */\n      mload(0x40)\n      dup3\n      0xffffffff\n      and\n      0xe0\n      shl\n      dup2\n      mstore\n      0x04\n      add\n      tag_23\n      swap2\n      swap1\n      tag_24\n      jump\t// in\n    tag_23:\n      0x20\n      mload(0x40)\n      dup1\n      dup4\n      sub\n      dup2\n      dup7\n      dup1\n      extcodesize\n      iszero\n      dup1\n      iszero\n      tag_25\n      jumpi\n      0x00\n      dup1\n      revert\n    tag_25:\n      pop\n      gas\n      delegatecall\n      iszero\n      dup1\n      iszero\n      tag_27\n      jumpi\n      returndatasize\n      0x00\n      dup1\n      returndatacopy\n      revert(0x00, returndatasize)\n    tag_27:\n      pop\n      pop\n      pop\n      pop\n      mload(0x40)\n      returndatasize\n      not(0x1f)\n      0x1f\n      dup3\n      add\n      and\n      dup3\n      add\n      dup1\n      0x40\n      mstore\n      pop\n      dup2\n      add\n      swap1\n      tag_28\n      swap2\n      swap1\n      tag_29\n      jump\t// in\n    tag_28:\n      pop\n        /* \"tests/calculator_test.sol\":333:339  Assert */\n      linkerSymbol(\"acbfb1c35000d78352310b16a054a6b1066124b9c6f054b10c085f549bff80c6\")\n        /* \"tests/calculator_test.sol\":333:342  Assert.ok */\n      0x39df137f\n        /* \"tests/calculator_test.sol\":371:374  300 */\n      0x012c\n        /* \"tests/calculator_test.sol\":343:353  calculator */\n      0x00\n      dup1\n      sload\n      swap1\n      0x0100\n      exp\n      swap1\n      div\n      0xffffffffffffffffffffffffffffffffffffffff\n      and\n        /* \"tests/calculator_test.sol\":343:357  calculator.add */\n      0xffffffffffffffffffffffffffffffffffffffff\n      and\n      0x771602f7\n        /* \"tests/calculator_test.sol\":358:361  100 */\n      0x64\n        /* \"tests/calculator_test.sol\":363:366  200 */\n      0xc8\n        /* \"tests/calculator_test.sol\":343:367  calculator.add(100, 200) */\n      mload(0x40)\n      dup4\n      0xffffffff\n      and\n      0xe0\n      shl\n      dup2\n      mstore\n      0x04\n      add\n      tag_30\n      swap3\n      swap2\n      swap1\n      tag_31\n      jump\t// in\n    tag_30:\n      0x20\n      mload(0x40)\n      dup1\n      dup4\n      sub\n      dup2\n      dup7\n      dup1\n      extcodesize\n      iszero\n      dup1\n      iszero\n      tag_32\n      jumpi\n      0x00\n      dup1\n      revert\n    tag_32:\n      pop\n      gas\n      staticcall\n      iszero\n      dup1\n      iszero\n      tag_34\n      jumpi\n      returndatasize\n      0x00\n      dup1\n      returndatacopy\n      revert(0x00, returndatasize)\n    tag_34:\n      pop\n      pop\n      pop\n      pop\n      mload(0x40)\n      returndatasize\n      not(0x1f)\n      0x1f\n      dup3\n      add\n      and\n      dup3\n      add\n      dup1\n      0x40\n      mstore\n      pop\n      dup2\n      add\n      swap1\n      tag_35\n      swap2\n      swap1\n      tag_22\n      jump\t// in\n    tag_35:\n        /* \"tests/calculator_test.sol\":343:374  calculator.add(100, 200) == 300 */\n      eq\n        /* \"tests/calculator_test.sol\":333:393  Assert.ok(calculator.add(100, 200) == 300, 'should be true') */\n      mload(0x40)\n      dup3\n      0xffffffff\n      and\n      0xe0\n      shl\n      dup2\n      mstore\n      0x04\n      add\n      tag_36\n      swap2\n      swap1\n      tag_24\n      jump\t// in\n    tag_36:\n      0x20\n      mload(0x40)\n      dup1\n      dup4\n      sub\n      dup2\n      dup7\n      dup1\n      extcodesize\n      iszero\n      dup1\n      iszero\n      tag_37\n      jumpi\n      0x00\n      dup1\n      revert\n    tag_37:\n      pop\n      gas\n      delegatecall\n      iszero\n      dup1\n      iszero\n      tag_39\n      jumpi\n      returndatasize\n      0x00\n      dup1\n      returndatacopy\n      revert(0x00, returndatasize)\n    tag_39:\n      pop\n      pop\n      pop\n      pop\n      mload(0x40)\n      returndatasize\n      not(0x1f)\n      0x1f\n      dup3\n      add\n      and\n      dup3\n      add\n      dup1\n      0x40\n      mstore\n      pop\n      dup2\n      add\n      swap1\n      tag_40\n      swap2\n      swap1\n      tag_29\n      jump\t// in\n    tag_40:\n      pop\n        /* \"tests/calculator_test.sol\":237:400  function add() public {... */\n      jump\t// out\n        /* \"tests/calculator_test.sol\":406:583  function subtract() public {... */\n    tag_10:\n        /* \"tests/calculator_test.sol\":443:449  Assert */\n      linkerSymbol(\"acbfb1c35000d78352310b16a054a6b1066124b9c6f054b10c085f549bff80c6\")\n        /* \"tests/calculator_test.sol\":443:452  Assert.ok */\n      0x39df137f\n        /* \"tests/calculator_test.sol\":482:483  1 */\n      0x01\n        /* \"tests/calculator_test.sol\":453:463  calculator */\n      0x00\n      dup1\n      sload\n      swap1\n      0x0100\n      exp\n      swap1\n      div\n      0xffffffffffffffffffffffffffffffffffffffff\n      and\n        /* \"tests/calculator_test.sol\":453:472  calculator.subtract */\n      0xffffffffffffffffffffffffffffffffffffffff\n      and\n      0x3ef5e445\n        /* \"tests/calculator_test.sol\":473:474  2 */\n      0x02\n        /* \"tests/calculator_test.sol\":476:477  1 */\n      0x01\n        /* \"tests/calculator_test.sol\":453:478  calculator.subtract(2, 1) */\n      mload(0x40)\n      dup4\n      0xffffffff\n      and\n      0xe0\n      shl\n      dup2\n      mstore\n      0x04\n      add\n      tag_42\n      swap3\n      swap2\n      swap1\n      tag_43\n      jump\t// in\n    tag_42:\n      0x20\n      mload(0x40)\n      dup1\n      dup4\n      sub\n      dup2\n      dup7\n      dup1\n      extcodesize\n      iszero\n      dup1\n      iszero\n      tag_44\n      jumpi\n      0x00\n      dup1\n      revert\n    tag_44:\n      pop\n      gas\n      staticcall\n      iszero\n      dup1\n      iszero\n      tag_46\n      jumpi\n      returndatasize\n      0x00\n      dup1\n      returndatacopy\n      revert(0x00, returndatasize)\n    tag_46:\n      pop\n      pop\n      pop\n      pop\n      mload(0x40)\n      returndatasize\n      not(0x1f)\n      0x1f\n      dup3\n      add\n      and\n      dup3\n      add\n      dup1\n      0x40\n      mstore\n      pop\n      dup2\n      add\n      swap1\n      tag_47\n      swap2\n      swap1\n      tag_22\n      jump\t// in\n    tag_47:\n        /* \"tests/calculator_test.sol\":453:483  calculator.subtract(2, 1) == 1 */\n      eq\n        /* \"tests/calculator_test.sol\":443:502  Assert.ok(calculator.subtract(2, 1) == 1, 'should be true') */\n      mload(0x40)\n      dup3\n      0xffffffff\n      and\n      0xe0\n      shl\n      dup2\n      mstore\n      0x04\n      add\n      tag_48\n      swap2\n      swap1\n      tag_24\n      jump\t// in\n    tag_48:\n      0x20\n      mload(0x40)\n      dup1\n      dup4\n      sub\n      dup2\n      dup7\n      dup1\n      extcodesize\n      iszero\n      dup1\n      iszero\n      tag_49\n      jumpi\n      0x00\n      dup1\n      revert\n    tag_49:\n      pop\n      gas\n      delegatecall\n      iszero\n      dup1\n      iszero\n      tag_51\n      jumpi\n      returndatasize\n      0x00\n      dup1\n      returndatacopy\n      revert(0x00, returndatasize)\n    tag_51:\n      pop\n      pop\n      pop\n      pop\n      mload(0x40)\n      returndatasize\n      not(0x1f)\n      0x1f\n      dup3\n      add\n      and\n      dup3\n      add\n      dup1\n      0x40\n      mstore\n      pop\n      dup2\n      add\n      swap1\n      tag_52\n      swap2\n      swap1\n      tag_29\n      jump\t// in\n    tag_52:\n      pop\n        /* \"tests/calculator_test.sol\":512:518  Assert */\n      linkerSymbol(\"acbfb1c35000d78352310b16a054a6b1066124b9c6f054b10c085f549bff80c6\")\n        /* \"tests/calculator_test.sol\":512:521  Assert.ok */\n      0x39df137f\n        /* \"tests/calculator_test.sol\":554:557  150 */\n      0x96\n        /* \"tests/calculator_test.sol\":522:532  calculator */\n      0x00\n      dup1\n      sload\n      swap1\n      0x0100\n      exp\n      swap1\n      div\n      0xffffffffffffffffffffffffffffffffffffffff\n      and\n        /* \"tests/calculator_test.sol\":522:541  calculator.subtract */\n      0xffffffffffffffffffffffffffffffffffffffff\n      and\n      0x3ef5e445\n        /* \"tests/calculator_test.sol\":542:545  200 */\n      0xc8\n        /* \"tests/calculator_test.sol\":547:549  50 */\n      0x32\n        /* \"tests/calculator_test.sol\":522:550  calculator.subtract(200, 50) */\n      mload(0x40)\n      dup4\n      0xffffffff\n      and\n      0xe0\n      shl\n      dup2\n      mstore\n      0x04\n      add\n      tag_53\n      swap3\n      swap2\n      swap1\n      tag_54\n      jump\t// in\n    tag_53:\n      0x20\n      mload(0x40)\n      dup1\n      dup4\n      sub\n      dup2\n      dup7\n      dup1\n      extcodesize\n      iszero\n      dup1\n      iszero\n      tag_55\n      jumpi\n      0x00\n      dup1\n      revert\n    tag_55:\n      pop\n      gas\n      staticcall\n      iszero\n      dup1\n      iszero\n      tag_57\n      jumpi\n      returndatasize\n      0x00\n      dup1\n      returndatacopy\n      revert(0x00, returndatasize)\n    tag_57:\n      pop\n      pop\n      pop\n      pop\n      mload(0x40)\n      returndatasize\n      not(0x1f)\n      0x1f\n      dup3\n      add\n      and\n      dup3\n      add\n      dup1\n      0x40\n      mstore\n      pop\n      dup2\n      add\n      swap1\n      tag_58\n      swap2\n      swap1\n      tag_22\n      jump\t// in\n    tag_58:\n        /* \"tests/calculator_test.sol\":522:557  calculator.subtract(200, 50) == 150 */\n      eq\n        /* \"tests/calculator_test.sol\":512:576  Assert.ok(calculator.subtract(200, 50) == 150, 'should be true') */\n      mload(0x40)\n      dup3\n      0xffffffff\n      and\n      0xe0\n      shl\n      dup2\n      mstore\n      0x04\n      add\n      tag_59\n      swap2\n      swap1\n      tag_24\n      jump\t// in\n    tag_59:\n      0x20\n      mload(0x40)\n      dup1\n      dup4\n      sub\n      dup2\n      dup7\n      dup1\n      extcodesize\n      iszero\n      dup1\n      iszero\n      tag_60\n      jumpi\n      0x00\n      dup1\n      revert\n    tag_60:\n      pop\n      gas\n      delegatecall\n      iszero\n      dup1\n      iszero\n      tag_62\n      jumpi\n      returndatasize\n      0x00\n      dup1\n      returndatacopy\n      revert(0x00, returndatasize)\n    tag_62:\n      pop\n      pop\n      pop\n      pop\n      mload(0x40)\n      returndatasize\n      not(0x1f)\n      0x1f\n      dup3\n      add\n      and\n      dup3\n      add\n      dup1\n      0x40\n      mstore\n      pop\n      dup2\n      add\n      swap1\n      tag_63\n      swap2\n      swap1\n      tag_29\n      jump\t// in\n    tag_63:\n      pop\n        /* \"tests/calculator_test.sol\":406:583  function subtract() public {... */\n      jump\t// out\n        /* \"tests/calculator_test.sol\":775:946  function divide() public {... */\n    tag_12:\n        /* \"tests/calculator_test.sol\":810:816  Assert */\n      linkerSymbol(\"acbfb1c35000d78352310b16a054a6b1066124b9c6f054b10c085f549bff80c6\")\n        /* \"tests/calculator_test.sol\":810:819  Assert.ok */\n      0x39df137f\n        /* \"tests/calculator_test.sol\":848:849  2 */\n      0x02\n        /* \"tests/calculator_test.sol\":820:830  calculator */\n      0x00\n      dup1\n      sload\n      swap1\n      0x0100\n      exp\n      swap1\n      div\n      0xffffffffffffffffffffffffffffffffffffffff\n      and\n        /* \"tests/calculator_test.sol\":820:837  calculator.divide */\n      0xffffffffffffffffffffffffffffffffffffffff\n      and\n      0xf88e9fbf\n        /* \"tests/calculator_test.sol\":838:840  10 */\n      0x0a\n        /* \"tests/calculator_test.sol\":842:843  5 */\n      0x05\n        /* \"tests/calculator_test.sol\":820:844  calculator.divide(10, 5) */\n      mload(0x40)\n      dup4\n      0xffffffff\n      and\n      0xe0\n      shl\n      dup2\n      mstore\n      0x04\n      add\n      tag_65\n      swap3\n      swap2\n      swap1\n      tag_66\n      jump\t// in\n    tag_65:\n      0x20\n      mload(0x40)\n      dup1\n      dup4\n      sub\n      dup2\n      dup7\n      dup1\n      extcodesize\n      iszero\n      dup1\n      iszero\n      tag_67\n      jumpi\n      0x00\n      dup1\n      revert\n    tag_67:\n      pop\n      gas\n      staticcall\n      iszero\n      dup1\n      iszero\n      tag_69\n      jumpi\n      returndatasize\n      0x00\n      dup1\n      returndatacopy\n      revert(0x00, returndatasize)\n    tag_69:\n      pop\n      pop\n      pop\n      pop\n      mload(0x40)\n      returndatasize\n      not(0x1f)\n      0x1f\n      dup3\n      add\n      and\n      dup3\n      add\n      dup1\n      0x40\n      mstore\n      pop\n      dup2\n      add\n      swap1\n      tag_70\n      swap2\n      swap1\n      tag_22\n      jump\t// in\n    tag_70:\n        /* \"tests/calculator_test.sol\":820:849  calculator.divide(10, 5) == 2 */\n      eq\n        /* \"tests/calculator_test.sol\":810:868  Assert.ok(calculator.divide(10, 5) == 2, 'should be true') */\n      mload(0x40)\n      dup3\n      0xffffffff\n      and\n      0xe0\n      shl\n      dup2\n      mstore\n      0x04\n      add\n      tag_71\n      swap2\n      swap1\n      tag_24\n      jump\t// in\n    tag_71:\n      0x20\n      mload(0x40)\n      dup1\n      dup4\n      sub\n      dup2\n      dup7\n      dup1\n      extcodesize\n      iszero\n      dup1\n      iszero\n      tag_72\n      jumpi\n      0x00\n      dup1\n      revert\n    tag_72:\n      pop\n      gas\n      delegatecall\n      iszero\n      dup1\n      iszero\n      tag_74\n      jumpi\n      returndatasize\n      0x00\n      dup1\n      returndatacopy\n      revert(0x00, returndatasize)\n    tag_74:\n      pop\n      pop\n      pop\n      pop\n      mload(0x40)\n      returndatasize\n      not(0x1f)\n      0x1f\n      dup3\n      add\n      and\n      dup3\n      add\n      dup1\n      0x40\n      mstore\n      pop\n      dup2\n      add\n      swap1\n      tag_75\n      swap2\n      swap1\n      tag_29\n      jump\t// in\n    tag_75:\n      pop\n        /* \"tests/calculator_test.sol\":878:884  Assert */\n      linkerSymbol(\"acbfb1c35000d78352310b16a054a6b1066124b9c6f054b10c085f549bff80c6\")\n        /* \"tests/calculator_test.sol\":878:887  Assert.ok */\n      0x39df137f\n        /* \"tests/calculator_test.sol\":919:920  3 */\n      0x03\n        /* \"tests/calculator_test.sol\":888:898  calculator */\n      0x00\n      dup1\n      sload\n      swap1\n      0x0100\n      exp\n      swap1\n      div\n      0xffffffffffffffffffffffffffffffffffffffff\n      and\n        /* \"tests/calculator_test.sol\":888:905  calculator.divide */\n      0xffffffffffffffffffffffffffffffffffffffff\n      and\n      0xf88e9fbf\n        /* \"tests/calculator_test.sol\":906:909  300 */\n      0x012c\n        /* \"tests/calculator_test.sol\":911:914  100 */\n      0x64\n        /* \"tests/calculator_test.sol\":888:915  calculator.divide(300, 100) */\n      mload(0x40)\n      dup4\n      0xffffffff\n      and\n      0xe0\n      shl\n      dup2\n      mstore\n      0x04\n      add\n      tag_76\n      swap3\n      swap2\n      swap1\n      tag_77\n      jump\t// in\n    tag_76:\n      0x20\n      mload(0x40)\n      dup1\n      dup4\n      sub\n      dup2\n      dup7\n      dup1\n      extcodesize\n      iszero\n      dup1\n      iszero\n      tag_78\n      jumpi\n      0x00\n      dup1\n      revert\n    tag_78:\n      pop\n      gas\n      staticcall\n      iszero\n      dup1\n      iszero\n      tag_80\n      jumpi\n      returndatasize\n      0x00\n      dup1\n      returndatacopy\n      revert(0x00, returndatasize)\n    tag_80:\n      pop\n      pop\n      pop\n      pop\n      mload(0x40)\n      returndatasize\n      not(0x1f)\n      0x1f\n      dup3\n      add\n      and\n      dup3\n      add\n      dup1\n      0x40\n      mstore\n      pop\n      dup2\n      add\n      swap1\n      tag_81\n      swap2\n      swap1\n      tag_22\n      jump\t// in\n    tag_81:\n        /* \"tests/calculator_test.sol\":888:920  calculator.divide(300, 100) == 3 */\n      eq\n        /* \"tests/calculator_test.sol\":878:939  Assert.ok(calculator.divide(300, 100) == 3, 'should be true') */\n      mload(0x40)\n      dup3\n      0xffffffff\n      and\n      0xe0\n      shl\n      dup2\n      mstore\n      0x04\n      add\n      tag_82\n      swap2\n      swap1\n      tag_24\n      jump\t// in\n    tag_82:\n      0x20\n      mload(0x40)\n      dup1\n      dup4\n      sub\n      dup2\n      dup7\n      dup1\n      extcodesize\n      iszero\n      dup1\n      iszero\n      tag_83\n      jumpi\n      0x00\n      dup1\n      revert\n    tag_83:\n      pop\n      gas\n      delegatecall\n      iszero\n      dup1\n      iszero\n      tag_85\n      jumpi\n      returndatasize\n      0x00\n      dup1\n      returndatacopy\n      revert(0x00, returndatasize)\n    tag_85:\n      pop\n      pop\n      pop\n      pop\n      mload(0x40)\n      returndatasize\n      not(0x1f)\n      0x1f\n      dup3\n      add\n      and\n      dup3\n      add\n      dup1\n      0x40\n      mstore\n      pop\n      dup2\n      add\n      swap1\n      tag_86\n      swap2\n      swap1\n      tag_29\n      jump\t// in\n    tag_86:\n      pop\n        /* \"tests/calculator_test.sol\":775:946  function divide() public {... */\n      jump\t// out\n        /* \"tests/calculator_test.sol\":589:769  function multiply() public {... */\n    tag_14:\n        /* \"tests/calculator_test.sol\":626:632  Assert */\n      linkerSymbol(\"acbfb1c35000d78352310b16a054a6b1066124b9c6f054b10c085f549bff80c6\")\n        /* \"tests/calculator_test.sol\":626:635  Assert.ok */\n      0x39df137f\n        /* \"tests/calculator_test.sol\":665:666  2 */\n      0x02\n        /* \"tests/calculator_test.sol\":636:646  calculator */\n      0x00\n      dup1\n      sload\n      swap1\n      0x0100\n      exp\n      swap1\n      div\n      0xffffffffffffffffffffffffffffffffffffffff\n      and\n        /* \"tests/calculator_test.sol\":636:655  calculator.multiply */\n      0xffffffffffffffffffffffffffffffffffffffff\n      and\n      0x165c4a16\n        /* \"tests/calculator_test.sol\":656:657  1 */\n      0x01\n        /* \"tests/calculator_test.sol\":659:660  2 */\n      0x02\n        /* \"tests/calculator_test.sol\":636:661  calculator.multiply(1, 2) */\n      mload(0x40)\n      dup4\n      0xffffffff\n      and\n      0xe0\n      shl\n      dup2\n      mstore\n      0x04\n      add\n      tag_88\n      swap3\n      swap2\n      swap1\n      tag_17\n      jump\t// in\n    tag_88:\n      0x20\n      mload(0x40)\n      dup1\n      dup4\n      sub\n      dup2\n      dup7\n      dup1\n      extcodesize\n      iszero\n      dup1\n      iszero\n      tag_89\n      jumpi\n      0x00\n      dup1\n      revert\n    tag_89:\n      pop\n      gas\n      staticcall\n      iszero\n      dup1\n      iszero\n      tag_91\n      jumpi\n      returndatasize\n      0x00\n      dup1\n      returndatacopy\n      revert(0x00, returndatasize)\n    tag_91:\n      pop\n      pop\n      pop\n      pop\n      mload(0x40)\n      returndatasize\n      not(0x1f)\n      0x1f\n      dup3\n      add\n      and\n      dup3\n      add\n      dup1\n      0x40\n      mstore\n      pop\n      dup2\n      add\n      swap1\n      tag_92\n      swap2\n      swap1\n      tag_22\n      jump\t// in\n    tag_92:\n        /* \"tests/calculator_test.sol\":636:666  calculator.multiply(1, 2) == 2 */\n      eq\n        /* \"tests/calculator_test.sol\":626:685  Assert.ok(calculator.multiply(1, 2) == 2, 'should be true') */\n      mload(0x40)\n      dup3\n      0xffffffff\n      and\n      0xe0\n      shl\n      dup2\n      mstore\n      0x04\n      add\n      tag_93\n      swap2\n      swap1\n      tag_24\n      jump\t// in\n    tag_93:\n      0x20\n      mload(0x40)\n      dup1\n      dup4\n      sub\n      dup2\n      dup7\n      dup1\n      extcodesize\n      iszero\n      dup1\n      iszero\n      tag_94\n      jumpi\n      0x00\n      dup1\n      revert\n    tag_94:\n      pop\n      gas\n      delegatecall\n      iszero\n      dup1\n      iszero\n      tag_96\n      jumpi\n      returndatasize\n      0x00\n      dup1\n      returndatacopy\n      revert(0x00, returndatasize)\n    tag_96:\n      pop\n      pop\n      pop\n      pop\n      mload(0x40)\n      returndatasize\n      not(0x1f)\n      0x1f\n      dup3\n      add\n      and\n      dup3\n      add\n      dup1\n      0x40\n      mstore\n      pop\n      dup2\n      add\n      swap1\n      tag_97\n      swap2\n      swap1\n      tag_29\n      jump\t// in\n    tag_97:\n      pop\n        /* \"tests/calculator_test.sol\":695:701  Assert */\n      linkerSymbol(\"acbfb1c35000d78352310b16a054a6b1066124b9c6f054b10c085f549bff80c6\")\n        /* \"tests/calculator_test.sol\":695:704  Assert.ok */\n      0x39df137f\n        /* \"tests/calculator_test.sol\":738:743  20000 */\n      0x4e20\n        /* \"tests/calculator_test.sol\":705:715  calculator */\n      0x00\n      dup1\n      sload\n      swap1\n      0x0100\n      exp\n      swap1\n      div\n      0xffffffffffffffffffffffffffffffffffffffff\n      and\n        /* \"tests/calculator_test.sol\":705:724  calculator.multiply */\n      0xffffffffffffffffffffffffffffffffffffffff\n      and\n      0x165c4a16\n        /* \"tests/calculator_test.sol\":725:728  100 */\n      0x64\n        /* \"tests/calculator_test.sol\":730:733  200 */\n      0xc8\n        /* \"tests/calculator_test.sol\":705:734  calculator.multiply(100, 200) */\n      mload(0x40)\n      dup4\n      0xffffffff\n      and\n      0xe0\n      shl\n      dup2\n      mstore\n      0x04\n      add\n      tag_98\n      swap3\n      swap2\n      swap1\n      tag_31\n      jump\t// in\n    tag_98:\n      0x20\n      mload(0x40)\n      dup1\n      dup4\n      sub\n      dup2\n      dup7\n      dup1\n      extcodesize\n      iszero\n      dup1\n      iszero\n      tag_99\n      jumpi\n      0x00\n      dup1\n      revert\n    tag_99:\n      pop\n      gas\n      staticcall\n      iszero\n      dup1\n      iszero\n      tag_101\n      jumpi\n      returndatasize\n      0x00\n      dup1\n      returndatacopy\n      revert(0x00, returndatasize)\n    tag_101:\n      pop\n      pop\n      pop\n      pop\n      mload(0x40)\n      returndatasize\n      not(0x1f)\n      0x1f\n      dup3\n      add\n      and\n      dup3\n      add\n      dup1\n      0x40\n      mstore\n      pop\n      dup2\n      add\n      swap1\n      tag_102\n      swap2\n      swap1\n      tag_22\n      jump\t// in\n    tag_102:\n        /* \"tests/calculator_test.sol\":705:743  calculator.multiply(100, 200) == 20000 */\n      eq\n        /* \"tests/calculator_test.sol\":695:762  Assert.ok(calculator.multiply(100, 200) == 20000, 'should be true') */\n      mload(0x40)\n      dup3\n      0xffffffff\n      and\n      0xe0\n      shl\n      dup2\n      mstore\n      0x04\n      add\n      tag_103\n      swap2\n      swap1\n      tag_24\n      jump\t// in\n    tag_103:\n      0x20\n      mload(0x40)\n      dup1\n      dup4\n      sub\n      dup2\n      dup7\n      dup1\n      extcodesize\n      iszero\n      dup1\n      iszero\n      tag_104\n      jumpi\n      0x00\n      dup1\n      revert\n    tag_104:\n      pop\n      gas\n      delegatecall\n      iszero\n      dup1\n      iszero\n      tag_106\n      jumpi\n      returndatasize\n      0x00\n      dup1\n      returndatacopy\n      revert(0x00, returndatasize)\n    tag_106:\n      pop\n      pop\n      pop\n      pop\n      mload(0x40)\n      returndatasize\n      not(0x1f)\n      0x1f\n      dup3\n      add\n      and\n      dup3\n      add\n      dup1\n      0x40\n      mstore\n      pop\n      dup2\n      add\n      swap1\n      tag_107\n      swap2\n      swap1\n      tag_29\n      jump\t// in\n    tag_107:\n      pop\n        /* \"tests/calculator_test.sol\":589:769  function multiply() public {... */\n      jump\t// out\n        /* \"#utility.yul\":7:144   */\n    tag_109:\n      0x00\n        /* \"#utility.yul\":92:98   */\n      dup2\n        /* \"#utility.yul\":86:99   */\n      mload\n        /* \"#utility.yul\":77:99   */\n      swap1\n      pop\n        /* \"#utility.yul\":108:138   */\n      tag_111\n        /* \"#utility.yul\":132:137   */\n      dup2\n        /* \"#utility.yul\":108:138   */\n      tag_112\n      jump\t// in\n    tag_111:\n        /* \"#utility.yul\":67:144   */\n      swap3\n      swap2\n      pop\n      pop\n      jump\t// out\n        /* \"#utility.yul\":150:293   */\n    tag_113:\n      0x00\n        /* \"#utility.yul\":238:244   */\n      dup2\n        /* \"#utility.yul\":232:245   */\n      mload\n        /* \"#utility.yul\":223:245   */\n      swap1\n      pop\n        /* \"#utility.yul\":254:287   */\n      tag_115\n        /* \"#utility.yul\":281:286   */\n      dup2\n        /* \"#utility.yul\":254:287   */\n      tag_116\n      jump\t// in\n    tag_115:\n        /* \"#utility.yul\":213:293   */\n      swap3\n      swap2\n      pop\n      pop\n      jump\t// out\n        /* \"#utility.yul\":299:577   */\n    tag_29:\n      0x00\n        /* \"#utility.yul\":415:417   */\n      0x20\n        /* \"#utility.yul\":403:412   */\n      dup3\n        /* \"#utility.yul\":394:401   */\n      dup5\n        /* \"#utility.yul\":390:413   */\n      sub\n        /* \"#utility.yul\":386:418   */\n      slt\n        /* \"#utility.yul\":383:385   */\n      iszero\n      tag_118\n      jumpi\n        /* \"#utility.yul\":431:432   */\n      0x00\n        /* \"#utility.yul\":428:429   */\n      dup1\n        /* \"#utility.yul\":421:433   */\n      revert\n        /* \"#utility.yul\":383:385   */\n    tag_118:\n        /* \"#utility.yul\":474:475   */\n      0x00\n        /* \"#utility.yul\":499:560   */\n      tag_119\n        /* \"#utility.yul\":552:559   */\n      dup5\n        /* \"#utility.yul\":543:549   */\n      dup3\n        /* \"#utility.yul\":532:541   */\n      dup6\n        /* \"#utility.yul\":528:550   */\n      add\n        /* \"#utility.yul\":499:560   */\n      tag_109\n      jump\t// in\n    tag_119:\n        /* \"#utility.yul\":489:560   */\n      swap2\n      pop\n        /* \"#utility.yul\":445:570   */\n      pop\n        /* \"#utility.yul\":373:577   */\n      swap3\n      swap2\n      pop\n      pop\n      jump\t// out\n        /* \"#utility.yul\":583:867   */\n    tag_22:\n      0x00\n        /* \"#utility.yul\":702:704   */\n      0x20\n        /* \"#utility.yul\":690:699   */\n      dup3\n        /* \"#utility.yul\":681:688   */\n      dup5\n        /* \"#utility.yul\":677:700   */\n      sub\n        /* \"#utility.yul\":673:705   */\n      slt\n        /* \"#utility.yul\":670:672   */\n      iszero\n      tag_121\n      jumpi\n        /* \"#utility.yul\":718:719   */\n      0x00\n        /* \"#utility.yul\":715:716   */\n      dup1\n        /* \"#utility.yul\":708:720   */\n      revert\n        /* \"#utility.yul\":670:672   */\n    tag_121:\n        /* \"#utility.yul\":761:762   */\n      0x00\n        /* \"#utility.yul\":786:850   */\n      tag_122\n        /* \"#utility.yul\":842:849   */\n      dup5\n        /* \"#utility.yul\":833:839   */\n      dup3\n        /* \"#utility.yul\":822:831   */\n      dup6\n        /* \"#utility.yul\":818:840   */\n      add\n        /* \"#utility.yul\":786:850   */\n      tag_113\n      jump\t// in\n    tag_122:\n        /* \"#utility.yul\":776:850   */\n      swap2\n      pop\n        /* \"#utility.yul\":732:860   */\n      pop\n        /* \"#utility.yul\":660:867   */\n      swap3\n      swap2\n      pop\n      pop\n      jump\t// out\n        /* \"#utility.yul\":873:990   */\n    tag_123:\n        /* \"#utility.yul\":962:983   */\n      tag_125\n        /* \"#utility.yul\":977:982   */\n      dup2\n        /* \"#utility.yul\":962:983   */\n      tag_126\n      jump\t// in\n    tag_125:\n        /* \"#utility.yul\":957:960   */\n      dup3\n        /* \"#utility.yul\":950:984   */\n      mstore\n        /* \"#utility.yul\":940:990   */\n      pop\n      pop\n      jump\t// out\n        /* \"#utility.yul\":996:1147   */\n    tag_127:\n        /* \"#utility.yul\":1093:1140   */\n      tag_129\n        /* \"#utility.yul\":1134:1139   */\n      dup2\n        /* \"#utility.yul\":1093:1140   */\n      tag_130\n      jump\t// in\n    tag_129:\n        /* \"#utility.yul\":1088:1091   */\n      dup3\n        /* \"#utility.yul\":1081:1141   */\n      mstore\n        /* \"#utility.yul\":1071:1147   */\n      pop\n      pop\n      jump\t// out\n        /* \"#utility.yul\":1153:1302   */\n    tag_131:\n        /* \"#utility.yul\":1249:1295   */\n      tag_133\n        /* \"#utility.yul\":1289:1294   */\n      dup2\n        /* \"#utility.yul\":1249:1295   */\n      tag_134\n      jump\t// in\n    tag_133:\n        /* \"#utility.yul\":1244:1247   */\n      dup3\n        /* \"#utility.yul\":1237:1296   */\n      mstore\n        /* \"#utility.yul\":1227:1302   */\n      pop\n      pop\n      jump\t// out\n        /* \"#utility.yul\":1308:1455   */\n    tag_135:\n        /* \"#utility.yul\":1403:1448   */\n      tag_137\n        /* \"#utility.yul\":1442:1447   */\n      dup2\n        /* \"#utility.yul\":1403:1448   */\n      tag_138\n      jump\t// in\n    tag_137:\n        /* \"#utility.yul\":1398:1401   */\n      dup3\n        /* \"#utility.yul\":1391:1449   */\n      mstore\n        /* \"#utility.yul\":1381:1455   */\n      pop\n      pop\n      jump\t// out\n        /* \"#utility.yul\":1461:1612   */\n    tag_139:\n        /* \"#utility.yul\":1558:1605   */\n      tag_141\n        /* \"#utility.yul\":1599:1604   */\n      dup2\n        /* \"#utility.yul\":1558:1605   */\n      tag_142\n      jump\t// in\n    tag_141:\n        /* \"#utility.yul\":1553:1556   */\n      dup3\n        /* \"#utility.yul\":1546:1606   */\n      mstore\n        /* \"#utility.yul\":1536:1612   */\n      pop\n      pop\n      jump\t// out\n        /* \"#utility.yul\":1618:1765   */\n    tag_143:\n        /* \"#utility.yul\":1713:1758   */\n      tag_145\n        /* \"#utility.yul\":1752:1757   */\n      dup2\n        /* \"#utility.yul\":1713:1758   */\n      tag_146\n      jump\t// in\n    tag_145:\n        /* \"#utility.yul\":1708:1711   */\n      dup3\n        /* \"#utility.yul\":1701:1759   */\n      mstore\n        /* \"#utility.yul\":1691:1765   */\n      pop\n      pop\n      jump\t// out\n        /* \"#utility.yul\":1771:1922   */\n    tag_147:\n        /* \"#utility.yul\":1868:1915   */\n      tag_149\n        /* \"#utility.yul\":1909:1914   */\n      dup2\n        /* \"#utility.yul\":1868:1915   */\n      tag_150\n      jump\t// in\n    tag_149:\n        /* \"#utility.yul\":1863:1866   */\n      dup3\n        /* \"#utility.yul\":1856:1916   */\n      mstore\n        /* \"#utility.yul\":1846:1922   */\n      pop\n      pop\n      jump\t// out\n        /* \"#utility.yul\":1928:2077   */\n    tag_151:\n        /* \"#utility.yul\":2024:2070   */\n      tag_153\n        /* \"#utility.yul\":2064:2069   */\n      dup2\n        /* \"#utility.yul\":2024:2070   */\n      tag_154\n      jump\t// in\n    tag_153:\n        /* \"#utility.yul\":2019:2022   */\n      dup3\n        /* \"#utility.yul\":2012:2071   */\n      mstore\n        /* \"#utility.yul\":2002:2077   */\n      pop\n      pop\n      jump\t// out\n        /* \"#utility.yul\":2083:2230   */\n    tag_155:\n        /* \"#utility.yul\":2178:2223   */\n      tag_157\n        /* \"#utility.yul\":2217:2222   */\n      dup2\n        /* \"#utility.yul\":2178:2223   */\n      tag_158\n      jump\t// in\n    tag_157:\n        /* \"#utility.yul\":2173:2176   */\n      dup3\n        /* \"#utility.yul\":2166:2224   */\n      mstore\n        /* \"#utility.yul\":2156:2230   */\n      pop\n      pop\n      jump\t// out\n        /* \"#utility.yul\":2236:2564   */\n    tag_159:\n      0x00\n        /* \"#utility.yul\":2407:2482   */\n      tag_161\n        /* \"#utility.yul\":2479:2481   */\n      0x0e\n        /* \"#utility.yul\":2474:2477   */\n      dup4\n        /* \"#utility.yul\":2407:2482   */\n      tag_162\n      jump\t// in\n    tag_161:\n        /* \"#utility.yul\":2400:2482   */\n      swap2\n      pop\n        /* \"#utility.yul\":2512:2528   */\n      0x73686f756c642062652074727565000000000000000000000000000000000000\n        /* \"#utility.yul\":2508:2509   */\n      0x00\n        /* \"#utility.yul\":2503:2506   */\n      dup4\n        /* \"#utility.yul\":2499:2510   */\n      add\n        /* \"#utility.yul\":2492:2529   */\n      mstore\n        /* \"#utility.yul\":2555:2557   */\n      0x20\n        /* \"#utility.yul\":2550:2553   */\n      dup3\n        /* \"#utility.yul\":2546:2558   */\n      add\n        /* \"#utility.yul\":2539:2558   */\n      swap1\n      pop\n        /* \"#utility.yul\":2390:2564   */\n      swap2\n      swap1\n      pop\n      jump\t// out\n        /* \"#utility.yul\":2570:3111   */\n    tag_24:\n      0x00\n        /* \"#utility.yul\":2804:2806   */\n      0x40\n        /* \"#utility.yul\":2793:2802   */\n      dup3\n        /* \"#utility.yul\":2789:2807   */\n      add\n        /* \"#utility.yul\":2781:2807   */\n      swap1\n      pop\n        /* \"#utility.yul\":2817:2890   */\n      tag_164\n        /* \"#utility.yul\":2887:2888   */\n      0x00\n        /* \"#utility.yul\":2876:2885   */\n      dup4\n        /* \"#utility.yul\":2872:2889   */\n      add\n        /* \"#utility.yul\":2863:2869   */\n      dup5\n        /* \"#utility.yul\":2817:2890   */\n      tag_123\n      jump\t// in\n    tag_164:\n        /* \"#utility.yul\":2937:2946   */\n      dup2\n        /* \"#utility.yul\":2931:2935   */\n      dup2\n        /* \"#utility.yul\":2927:2947   */\n      sub\n        /* \"#utility.yul\":2922:2924   */\n      0x20\n        /* \"#utility.yul\":2911:2920   */\n      dup4\n        /* \"#utility.yul\":2907:2925   */\n      add\n        /* \"#utility.yul\":2900:2948   */\n      mstore\n        /* \"#utility.yul\":2965:3104   */\n      tag_165\n        /* \"#utility.yul\":3099:3103   */\n      dup2\n        /* \"#utility.yul\":2965:3104   */\n      tag_159\n      jump\t// in\n    tag_165:\n        /* \"#utility.yul\":2957:3104   */\n      swap1\n      pop\n        /* \"#utility.yul\":2771:3111   */\n      swap3\n      swap2\n      pop\n      pop\n      jump\t// out\n        /* \"#utility.yul\":3117:3489   */\n    tag_31:\n      0x00\n        /* \"#utility.yul\":3296:3298   */\n      0x40\n        /* \"#utility.yul\":3285:3294   */\n      dup3\n        /* \"#utility.yul\":3281:3299   */\n      add\n        /* \"#utility.yul\":3273:3299   */\n      swap1\n      pop\n        /* \"#utility.yul\":3309:3390   */\n      tag_167\n        /* \"#utility.yul\":3387:3388   */\n      0x00\n        /* \"#utility.yul\":3376:3385   */\n      dup4\n        /* \"#utility.yul\":3372:3389   */\n      add\n        /* \"#utility.yul\":3363:3369   */\n      dup6\n        /* \"#utility.yul\":3309:3390   */\n      tag_127\n      jump\t// in\n    tag_167:\n        /* \"#utility.yul\":3400:3482   */\n      tag_168\n        /* \"#utility.yul\":3478:3480   */\n      0x20\n        /* \"#utility.yul\":3467:3476   */\n      dup4\n        /* \"#utility.yul\":3463:3481   */\n      add\n        /* \"#utility.yul\":3454:3460   */\n      dup5\n        /* \"#utility.yul\":3400:3482   */\n      tag_139\n      jump\t// in\n    tag_168:\n        /* \"#utility.yul\":3263:3489   */\n      swap4\n      swap3\n      pop\n      pop\n      pop\n      jump\t// out\n        /* \"#utility.yul\":3495:3861   */\n    tag_66:\n      0x00\n        /* \"#utility.yul\":3671:3673   */\n      0x40\n        /* \"#utility.yul\":3660:3669   */\n      dup3\n        /* \"#utility.yul\":3656:3674   */\n      add\n        /* \"#utility.yul\":3648:3674   */\n      swap1\n      pop\n        /* \"#utility.yul\":3684:3764   */\n      tag_170\n        /* \"#utility.yul\":3761:3762   */\n      0x00\n        /* \"#utility.yul\":3750:3759   */\n      dup4\n        /* \"#utility.yul\":3746:3763   */\n      add\n        /* \"#utility.yul\":3737:3743   */\n      dup6\n        /* \"#utility.yul\":3684:3764   */\n      tag_131\n      jump\t// in\n    tag_170:\n        /* \"#utility.yul\":3774:3854   */\n      tag_171\n        /* \"#utility.yul\":3850:3852   */\n      0x20\n        /* \"#utility.yul\":3839:3848   */\n      dup4\n        /* \"#utility.yul\":3835:3853   */\n      add\n        /* \"#utility.yul\":3826:3832   */\n      dup5\n        /* \"#utility.yul\":3774:3854   */\n      tag_155\n      jump\t// in\n    tag_171:\n        /* \"#utility.yul\":3638:3861   */\n      swap4\n      swap3\n      pop\n      pop\n      pop\n      jump\t// out\n        /* \"#utility.yul\":3867:4231   */\n    tag_17:\n      0x00\n        /* \"#utility.yul\":4042:4044   */\n      0x40\n        /* \"#utility.yul\":4031:4040   */\n      dup3\n        /* \"#utility.yul\":4027:4045   */\n      add\n        /* \"#utility.yul\":4019:4045   */\n      swap1\n      pop\n        /* \"#utility.yul\":4055:4134   */\n      tag_173\n        /* \"#utility.yul\":4131:4132   */\n      0x00\n        /* \"#utility.yul\":4120:4129   */\n      dup4\n        /* \"#utility.yul\":4116:4133   */\n      add\n        /* \"#utility.yul\":4107:4113   */\n      dup6\n        /* \"#utility.yul\":4055:4134   */\n      tag_135\n      jump\t// in\n    tag_173:\n        /* \"#utility.yul\":4144:4224   */\n      tag_174\n        /* \"#utility.yul\":4220:4222   */\n      0x20\n        /* \"#utility.yul\":4209:4218   */\n      dup4\n        /* \"#utility.yul\":4205:4223   */\n      add\n        /* \"#utility.yul\":4196:4202   */\n      dup5\n        /* \"#utility.yul\":4144:4224   */\n      tag_143\n      jump\t// in\n    tag_174:\n        /* \"#utility.yul\":4009:4231   */\n      swap4\n      swap3\n      pop\n      pop\n      pop\n      jump\t// out\n        /* \"#utility.yul\":4237:4607   */\n    tag_54:\n      0x00\n        /* \"#utility.yul\":4415:4417   */\n      0x40\n        /* \"#utility.yul\":4404:4413   */\n      dup3\n        /* \"#utility.yul\":4400:4418   */\n      add\n        /* \"#utility.yul\":4392:4418   */\n      swap1\n      pop\n        /* \"#utility.yul\":4428:4509   */\n      tag_176\n        /* \"#utility.yul\":4506:4507   */\n      0x00\n        /* \"#utility.yul\":4495:4504   */\n      dup4\n        /* \"#utility.yul\":4491:4508   */\n      add\n        /* \"#utility.yul\":4482:4488   */\n      dup6\n        /* \"#utility.yul\":4428:4509   */\n      tag_139\n      jump\t// in\n    tag_176:\n        /* \"#utility.yul\":4519:4600   */\n      tag_177\n        /* \"#utility.yul\":4596:4598   */\n      0x20\n        /* \"#utility.yul\":4585:4594   */\n      dup4\n        /* \"#utility.yul\":4581:4599   */\n      add\n        /* \"#utility.yul\":4572:4578   */\n      dup5\n        /* \"#utility.yul\":4519:4600   */\n      tag_151\n      jump\t// in\n    tag_177:\n        /* \"#utility.yul\":4382:4607   */\n      swap4\n      swap3\n      pop\n      pop\n      pop\n      jump\t// out\n        /* \"#utility.yul\":4613:4977   */\n    tag_43:\n      0x00\n        /* \"#utility.yul\":4788:4790   */\n      0x40\n        /* \"#utility.yul\":4777:4786   */\n      dup3\n        /* \"#utility.yul\":4773:4791   */\n      add\n        /* \"#utility.yul\":4765:4791   */\n      swap1\n      pop\n        /* \"#utility.yul\":4801:4880   */\n      tag_179\n        /* \"#utility.yul\":4877:4878   */\n      0x00\n        /* \"#utility.yul\":4866:4875   */\n      dup4\n        /* \"#utility.yul\":4862:4879   */\n      add\n        /* \"#utility.yul\":4853:4859   */\n      dup6\n        /* \"#utility.yul\":4801:4880   */\n      tag_143\n      jump\t// in\n    tag_179:\n        /* \"#utility.yul\":4890:4970   */\n      tag_180\n        /* \"#utility.yul\":4966:4968   */\n      0x20\n        /* \"#utility.yul\":4955:4964   */\n      dup4\n        /* \"#utility.yul\":4951:4969   */\n      add\n        /* \"#utility.yul\":4942:4948   */\n      dup5\n        /* \"#utility.yul\":4890:4970   */\n      tag_135\n      jump\t// in\n    tag_180:\n        /* \"#utility.yul\":4755:4977   */\n      swap4\n      swap3\n      pop\n      pop\n      pop\n      jump\t// out\n        /* \"#utility.yul\":4983:5355   */\n    tag_77:\n      0x00\n        /* \"#utility.yul\":5162:5164   */\n      0x40\n        /* \"#utility.yul\":5151:5160   */\n      dup3\n        /* \"#utility.yul\":5147:5165   */\n      add\n        /* \"#utility.yul\":5139:5165   */\n      swap1\n      pop\n        /* \"#utility.yul\":5175:5256   */\n      tag_182\n        /* \"#utility.yul\":5253:5254   */\n      0x00\n        /* \"#utility.yul\":5242:5251   */\n      dup4\n        /* \"#utility.yul\":5238:5255   */\n      add\n        /* \"#utility.yul\":5229:5235   */\n      dup6\n        /* \"#utility.yul\":5175:5256   */\n      tag_147\n      jump\t// in\n    tag_182:\n        /* \"#utility.yul\":5266:5348   */\n      tag_183\n        /* \"#utility.yul\":5344:5346   */\n      0x20\n        /* \"#utility.yul\":5333:5342   */\n      dup4\n        /* \"#utility.yul\":5329:5347   */\n      add\n        /* \"#utility.yul\":5320:5326   */\n      dup5\n        /* \"#utility.yul\":5266:5348   */\n      tag_127\n      jump\t// in\n    tag_183:\n        /* \"#utility.yul\":5129:5355   */\n      swap4\n      swap3\n      pop\n      pop\n      pop\n      jump\t// out\n        /* \"#utility.yul\":5361:5538   */\n    tag_162:\n      0x00\n        /* \"#utility.yul\":5487:5493   */\n      dup3\n        /* \"#utility.yul\":5482:5485   */\n      dup3\n        /* \"#utility.yul\":5475:5494   */\n      mstore\n        /* \"#utility.yul\":5527:5531   */\n      0x20\n        /* \"#utility.yul\":5522:5525   */\n      dup3\n        /* \"#utility.yul\":5518:5532   */\n      add\n        /* \"#utility.yul\":5503:5532   */\n      swap1\n      pop\n        /* \"#utility.yul\":5465:5538   */\n      swap3\n      swap2\n      pop\n      pop\n      jump\t// out\n        /* \"#utility.yul\":5544:5634   */\n    tag_126:\n      0x00\n        /* \"#utility.yul\":5621:5626   */\n      dup2\n        /* \"#utility.yul\":5614:5627   */\n      iszero\n        /* \"#utility.yul\":5607:5628   */\n      iszero\n        /* \"#utility.yul\":5596:5628   */\n      swap1\n      pop\n        /* \"#utility.yul\":5586:5634   */\n      swap2\n      swap1\n      pop\n      jump\t// out\n        /* \"#utility.yul\":5640:5717   */\n    tag_186:\n      0x00\n        /* \"#utility.yul\":5706:5711   */\n      dup2\n        /* \"#utility.yul\":5695:5711   */\n      swap1\n      pop\n        /* \"#utility.yul\":5685:5717   */\n      swap2\n      swap1\n      pop\n      jump\t// out\n        /* \"#utility.yul\":5723:5846   */\n    tag_130:\n      0x00\n        /* \"#utility.yul\":5816:5840   */\n      tag_189\n        /* \"#utility.yul\":5834:5839   */\n      dup3\n        /* \"#utility.yul\":5816:5840   */\n      tag_186\n      jump\t// in\n    tag_189:\n        /* \"#utility.yul\":5803:5840   */\n      swap1\n      pop\n        /* \"#utility.yul\":5793:5846   */\n      swap2\n      swap1\n      pop\n      jump\t// out\n        /* \"#utility.yul\":5852:5974   */\n    tag_134:\n      0x00\n        /* \"#utility.yul\":5944:5968   */\n      tag_191\n        /* \"#utility.yul\":5962:5967   */\n      dup3\n        /* \"#utility.yul\":5944:5968   */\n      tag_186\n      jump\t// in\n    tag_191:\n        /* \"#utility.yul\":5931:5968   */\n      swap1\n      pop\n        /* \"#utility.yul\":5921:5974   */\n      swap2\n      swap1\n      pop\n      jump\t// out\n        /* \"#utility.yul\":5980:6101   */\n    tag_138:\n      0x00\n        /* \"#utility.yul\":6071:6095   */\n      tag_193\n        /* \"#utility.yul\":6089:6094   */\n      dup3\n        /* \"#utility.yul\":6071:6095   */\n      tag_186\n      jump\t// in\n    tag_193:\n        /* \"#utility.yul\":6058:6095   */\n      swap1\n      pop\n        /* \"#utility.yul\":6048:6101   */\n      swap2\n      swap1\n      pop\n      jump\t// out\n        /* \"#utility.yul\":6107:6230   */\n    tag_142:\n      0x00\n        /* \"#utility.yul\":6200:6224   */\n      tag_195\n        /* \"#utility.yul\":6218:6223   */\n      dup3\n        /* \"#utility.yul\":6200:6224   */\n      tag_186\n      jump\t// in\n    tag_195:\n        /* \"#utility.yul\":6187:6224   */\n      swap1\n      pop\n        /* \"#utility.yul\":6177:6230   */\n      swap2\n      swap1\n      pop\n      jump\t// out\n        /* \"#utility.yul\":6236:6357   */\n    tag_146:\n      0x00\n        /* \"#utility.yul\":6327:6351   */\n      tag_197\n        /* \"#utility.yul\":6345:6350   */\n      dup3\n        /* \"#utility.yul\":6327:6351   */\n      tag_186\n      jump\t// in\n    tag_197:\n        /* \"#utility.yul\":6314:6351   */\n      swap1\n      pop\n        /* \"#utility.yul\":6304:6357   */\n      swap2\n      swap1\n      pop\n      jump\t// out\n        /* \"#utility.yul\":6363:6486   */\n    tag_150:\n      0x00\n        /* \"#utility.yul\":6456:6480   */\n      tag_199\n        /* \"#utility.yul\":6474:6479   */\n      dup3\n        /* \"#utility.yul\":6456:6480   */\n      tag_186\n      jump\t// in\n    tag_199:\n        /* \"#utility.yul\":6443:6480   */\n      swap1\n      pop\n        /* \"#utility.yul\":6433:6486   */\n      swap2\n      swap1\n      pop\n      jump\t// out\n        /* \"#utility.yul\":6492:6614   */\n    tag_154:\n      0x00\n        /* \"#utility.yul\":6584:6608   */\n      tag_201\n        /* \"#utility.yul\":6602:6607   */\n      dup3\n        /* \"#utility.yul\":6584:6608   */\n      tag_186\n      jump\t// in\n    tag_201:\n        /* \"#utility.yul\":6571:6608   */\n      swap1\n      pop\n        /* \"#utility.yul\":6561:6614   */\n      swap2\n      swap1\n      pop\n      jump\t// out\n        /* \"#utility.yul\":6620:6741   */\n    tag_158:\n      0x00\n        /* \"#utility.yul\":6711:6735   */\n      tag_203\n        /* \"#utility.yul\":6729:6734   */\n      dup3\n        /* \"#utility.yul\":6711:6735   */\n      tag_186\n      jump\t// in\n    tag_203:\n        /* \"#utility.yul\":6698:6735   */\n      swap1\n      pop\n        /* \"#utility.yul\":6688:6741   */\n      swap2\n      swap1\n      pop\n      jump\t// out\n        /* \"#utility.yul\":6747:6863   */\n    tag_112:\n        /* \"#utility.yul\":6817:6838   */\n      tag_205\n        /* \"#utility.yul\":6832:6837   */\n      dup2\n        /* \"#utility.yul\":6817:6838   */\n      tag_126\n      jump\t// in\n    tag_205:\n        /* \"#utility.yul\":6810:6815   */\n      dup2\n        /* \"#utility.yul\":6807:6839   */\n      eq\n        /* \"#utility.yul\":6797:6799   */\n      tag_206\n      jumpi\n        /* \"#utility.yul\":6853:6854   */\n      0x00\n        /* \"#utility.yul\":6850:6851   */\n      dup1\n        /* \"#utility.yul\":6843:6855   */\n      revert\n        /* \"#utility.yul\":6797:6799   */\n    tag_206:\n        /* \"#utility.yul\":6787:6863   */\n      pop\n      jump\t// out\n        /* \"#utility.yul\":6869:6991   */\n    tag_116:\n        /* \"#utility.yul\":6942:6966   */\n      tag_208\n        /* \"#utility.yul\":6960:6965   */\n      dup2\n        /* \"#utility.yul\":6942:6966   */\n      tag_186\n      jump\t// in\n    tag_208:\n        /* \"#utility.yul\":6935:6940   */\n      dup2\n        /* \"#utility.yul\":6932:6967   */\n      eq\n        /* \"#utility.yul\":6922:6924   */\n      tag_209\n      jumpi\n        /* \"#utility.yul\":6981:6982   */\n      0x00\n        /* \"#utility.yul\":6978:6979   */\n      dup1\n        /* \"#utility.yul\":6971:6983   */\n      revert\n        /* \"#utility.yul\":6922:6924   */\n    tag_209:\n        /* \"#utility.yul\":6912:6991   */\n      pop\n      jump\t// out\n\n    auxdata: 0xa264697066735822122038fe24bebe97d7d0e9785323561a63118bf5414581fe3bb22969dac1195f4eaa64736f6c63430008000033\n}\n\nsub_1: assembly {\n        /* \"contracts/calculator.sol\":64:517  contract Calculator {\r... */\n      mstore(0x40, 0x80)\n      callvalue\n      dup1\n      iszero\n      tag_1\n      jumpi\n      0x00\n      dup1\n      revert\n    tag_1:\n      pop\n      dataSize(sub_0)\n      dup1\n      dataOffset(sub_0)\n      0x00\n      codecopy\n      0x00\n      return\n    stop\n\n    sub_0: assembly {\n            /* \"contracts/calculator.sol\":64:517  contract Calculator {\r... */\n          mstore(0x40, 0x80)\n          callvalue\n          dup1\n          iszero\n          tag_1\n          jumpi\n          0x00\n          dup1\n          revert\n        tag_1:\n          pop\n          jumpi(tag_2, lt(calldatasize, 0x04))\n          shr(0xe0, calldataload(0x00))\n          dup1\n          0x165c4a16\n          eq\n          tag_3\n          jumpi\n          dup1\n          0x3ef5e445\n          eq\n          tag_4\n          jumpi\n          dup1\n          0x771602f7\n          eq\n          tag_5\n          jumpi\n          dup1\n          0xf88e9fbf\n          eq\n          tag_6\n          jumpi\n        tag_2:\n          0x00\n          dup1\n          revert\n            /* \"contracts/calculator.sol\":306:407  function multiply(uint256 a, uint256 b) public pure returns (uint256) {\r... */\n        tag_3:\n          tag_7\n          0x04\n          dup1\n          calldatasize\n          sub\n          dup2\n          add\n          swap1\n          tag_8\n          swap2\n          swap1\n          tag_9\n          jump\t// in\n        tag_8:\n          tag_10\n          jump\t// in\n        tag_7:\n          mload(0x40)\n          tag_11\n          swap2\n          swap1\n          tag_12\n          jump\t// in\n        tag_11:\n          mload(0x40)\n          dup1\n          swap2\n          sub\n          swap1\n          return\n            /* \"contracts/calculator.sol\":197:298  function subtract(uint256 a, uint256 b) public pure returns (uint256) {\r... */\n        tag_4:\n          tag_13\n          0x04\n          dup1\n          calldatasize\n          sub\n          dup2\n          add\n          swap1\n          tag_14\n          swap2\n          swap1\n          tag_9\n          jump\t// in\n        tag_14:\n          tag_15\n          jump\t// in\n        tag_13:\n          mload(0x40)\n          tag_16\n          swap2\n          swap1\n          tag_12\n          jump\t// in\n        tag_16:\n          mload(0x40)\n          dup1\n          swap2\n          sub\n          swap1\n          return\n            /* \"contracts/calculator.sol\":93:189  function add(uint256 a, uint256 b) public pure returns (uint256) {\r... */\n        tag_5:\n          tag_17\n          0x04\n          dup1\n          calldatasize\n          sub\n          dup2\n          add\n          swap1\n          tag_18\n          swap2\n          swap1\n          tag_9\n          jump\t// in\n        tag_18:\n          tag_19\n          jump\t// in\n        tag_17:\n          mload(0x40)\n          tag_20\n          swap2\n          swap1\n          tag_12\n          jump\t// in\n        tag_20:\n          mload(0x40)\n          dup1\n          swap2\n          sub\n          swap1\n          return\n            /* \"contracts/calculator.sol\":415:514  function divide(uint256 a, uint256 b) public pure returns (uint256) {\r... */\n        tag_6:\n          tag_21\n          0x04\n          dup1\n          calldatasize\n          sub\n          dup2\n          add\n          swap1\n          tag_22\n          swap2\n          swap1\n          tag_9\n          jump\t// in\n        tag_22:\n          tag_23\n          jump\t// in\n        tag_21:\n          mload(0x40)\n          tag_24\n          swap2\n          swap1\n          tag_12\n          jump\t// in\n        tag_24:\n          mload(0x40)\n          dup1\n          swap2\n          sub\n          swap1\n          return\n            /* \"contracts/calculator.sol\":306:407  function multiply(uint256 a, uint256 b) public pure returns (uint256) {\r... */\n        tag_10:\n            /* \"contracts/calculator.sol\":367:374  uint256 */\n          0x00\n            /* \"contracts/calculator.sol\":398:399  b */\n          dup2\n            /* \"contracts/calculator.sol\":394:395  a */\n          dup4\n            /* \"contracts/calculator.sol\":394:399  a * b */\n          tag_26\n          swap2\n          swap1\n          tag_27\n          jump\t// in\n        tag_26:\n            /* \"contracts/calculator.sol\":387:399  return a * b */\n          swap1\n          pop\n            /* \"contracts/calculator.sol\":306:407  function multiply(uint256 a, uint256 b) public pure returns (uint256) {\r... */\n          swap3\n          swap2\n          pop\n          pop\n          jump\t// out\n            /* \"contracts/calculator.sol\":197:298  function subtract(uint256 a, uint256 b) public pure returns (uint256) {\r... */\n        tag_15:\n            /* \"contracts/calculator.sol\":258:265  uint256 */\n          0x00\n            /* \"contracts/calculator.sol\":289:290  b */\n          dup2\n            /* \"contracts/calculator.sol\":285:286  a */\n          dup4\n            /* \"contracts/calculator.sol\":285:290  a - b */\n          tag_29\n          swap2\n          swap1\n          tag_30\n          jump\t// in\n        tag_29:\n            /* \"contracts/calculator.sol\":278:290  return a - b */\n          swap1\n          pop\n            /* \"contracts/calculator.sol\":197:298  function subtract(uint256 a, uint256 b) public pure returns (uint256) {\r... */\n          swap3\n          swap2\n          pop\n          pop\n          jump\t// out\n            /* \"contracts/calculator.sol\":93:189  function add(uint256 a, uint256 b) public pure returns (uint256) {\r... */\n        tag_19:\n            /* \"contracts/calculator.sol\":149:156  uint256 */\n          0x00\n            /* \"contracts/calculator.sol\":180:181  b */\n          dup2\n            /* \"contracts/calculator.sol\":176:177  a */\n          dup4\n            /* \"contracts/calculator.sol\":176:181  a + b */\n          tag_32\n          swap2\n          swap1\n          tag_33\n          jump\t// in\n        tag_32:\n            /* \"contracts/calculator.sol\":169:181  return a + b */\n          swap1\n          pop\n            /* \"contracts/calculator.sol\":93:189  function add(uint256 a, uint256 b) public pure returns (uint256) {\r... */\n          swap3\n          swap2\n          pop\n          pop\n          jump\t// out\n            /* \"contracts/calculator.sol\":415:514  function divide(uint256 a, uint256 b) public pure returns (uint256) {\r... */\n        tag_23:\n            /* \"contracts/calculator.sol\":474:481  uint256 */\n          0x00\n            /* \"contracts/calculator.sol\":505:506  b */\n          dup2\n            /* \"contracts/calculator.sol\":501:502  a */\n          dup4\n            /* \"contracts/calculator.sol\":501:506  a / b */\n          tag_35\n          swap2\n          swap1\n          tag_36\n          jump\t// in\n        tag_35:\n            /* \"contracts/calculator.sol\":494:506  return a / b */\n          swap1\n          pop\n            /* \"contracts/calculator.sol\":415:514  function divide(uint256 a, uint256 b) public pure returns (uint256) {\r... */\n          swap3\n          swap2\n          pop\n          pop\n          jump\t// out\n            /* \"#utility.yul\":7:146   */\n        tag_38:\n          0x00\n            /* \"#utility.yul\":91:97   */\n          dup2\n            /* \"#utility.yul\":78:98   */\n          calldataload\n            /* \"#utility.yul\":69:98   */\n          swap1\n          pop\n            /* \"#utility.yul\":107:140   */\n          tag_40\n            /* \"#utility.yul\":134:139   */\n          dup2\n            /* \"#utility.yul\":107:140   */\n          tag_41\n          jump\t// in\n        tag_40:\n            /* \"#utility.yul\":59:146   */\n          swap3\n          swap2\n          pop\n          pop\n          jump\t// out\n            /* \"#utility.yul\":152:559   */\n        tag_9:\n          0x00\n          dup1\n            /* \"#utility.yul\":277:279   */\n          0x40\n            /* \"#utility.yul\":265:274   */\n          dup4\n            /* \"#utility.yul\":256:263   */\n          dup6\n            /* \"#utility.yul\":252:275   */\n          sub\n            /* \"#utility.yul\":248:280   */\n          slt\n            /* \"#utility.yul\":245:247   */\n          iszero\n          tag_43\n          jumpi\n            /* \"#utility.yul\":293:294   */\n          0x00\n            /* \"#utility.yul\":290:291   */\n          dup1\n            /* \"#utility.yul\":283:295   */\n          revert\n            /* \"#utility.yul\":245:247   */\n        tag_43:\n            /* \"#utility.yul\":336:337   */\n          0x00\n            /* \"#utility.yul\":361:414   */\n          tag_44\n            /* \"#utility.yul\":406:413   */\n          dup6\n            /* \"#utility.yul\":397:403   */\n          dup3\n            /* \"#utility.yul\":386:395   */\n          dup7\n            /* \"#utility.yul\":382:404   */\n          add\n            /* \"#utility.yul\":361:414   */\n          tag_38\n          jump\t// in\n        tag_44:\n            /* \"#utility.yul\":351:414   */\n          swap3\n          pop\n            /* \"#utility.yul\":307:424   */\n          pop\n            /* \"#utility.yul\":463:465   */\n          0x20\n            /* \"#utility.yul\":489:542   */\n          tag_45\n            /* \"#utility.yul\":534:541   */\n          dup6\n            /* \"#utility.yul\":525:531   */\n          dup3\n            /* \"#utility.yul\":514:523   */\n          dup7\n            /* \"#utility.yul\":510:532   */\n          add\n            /* \"#utility.yul\":489:542   */\n          tag_38\n          jump\t// in\n        tag_45:\n            /* \"#utility.yul\":479:542   */\n          swap2\n          pop\n            /* \"#utility.yul\":434:552   */\n          pop\n            /* \"#utility.yul\":235:559   */\n          swap3\n          pop\n          swap3\n          swap1\n          pop\n          jump\t// out\n            /* \"#utility.yul\":565:683   */\n        tag_46:\n            /* \"#utility.yul\":652:676   */\n          tag_48\n            /* \"#utility.yul\":670:675   */\n          dup2\n            /* \"#utility.yul\":652:676   */\n          tag_49\n          jump\t// in\n        tag_48:\n            /* \"#utility.yul\":647:650   */\n          dup3\n            /* \"#utility.yul\":640:677   */\n          mstore\n            /* \"#utility.yul\":630:683   */\n          pop\n          pop\n          jump\t// out\n            /* \"#utility.yul\":689:911   */\n        tag_12:\n          0x00\n            /* \"#utility.yul\":820:822   */\n          0x20\n            /* \"#utility.yul\":809:818   */\n          dup3\n            /* \"#utility.yul\":805:823   */\n          add\n            /* \"#utility.yul\":797:823   */\n          swap1\n          pop\n            /* \"#utility.yul\":833:904   */\n          tag_51\n            /* \"#utility.yul\":901:902   */\n          0x00\n            /* \"#utility.yul\":890:899   */\n          dup4\n            /* \"#utility.yul\":886:903   */\n          add\n            /* \"#utility.yul\":877:883   */\n          dup5\n            /* \"#utility.yul\":833:904   */\n          tag_46\n          jump\t// in\n        tag_51:\n            /* \"#utility.yul\":787:911   */\n          swap3\n          swap2\n          pop\n          pop\n          jump\t// out\n            /* \"#utility.yul\":917:1222   */\n        tag_33:\n          0x00\n            /* \"#utility.yul\":976:996   */\n          tag_53\n            /* \"#utility.yul\":994:995   */\n          dup3\n            /* \"#utility.yul\":976:996   */\n          tag_49\n          jump\t// in\n        tag_53:\n            /* \"#utility.yul\":971:996   */\n          swap2\n          pop\n            /* \"#utility.yul\":1010:1030   */\n          tag_54\n            /* \"#utility.yul\":1028:1029   */\n          dup4\n            /* \"#utility.yul\":1010:1030   */\n          tag_49\n          jump\t// in\n        tag_54:\n            /* \"#utility.yul\":1005:1030   */\n          swap3\n          pop\n            /* \"#utility.yul\":1164:1165   */\n          dup3\n            /* \"#utility.yul\":1096:1162   */\n          0xffffffffffffffffffffffffffffffffffffffffffffffffffffffffffffffff\n            /* \"#utility.yul\":1092:1166   */\n          sub\n            /* \"#utility.yul\":1089:1090   */\n          dup3\n            /* \"#utility.yul\":1086:1167   */\n          gt\n            /* \"#utility.yul\":1083:1085   */\n          iszero\n          tag_55\n          jumpi\n            /* \"#utility.yul\":1170:1188   */\n          tag_56\n          tag_57\n          jump\t// in\n        tag_56:\n            /* \"#utility.yul\":1083:1085   */\n        tag_55:\n            /* \"#utility.yul\":1214:1215   */\n          dup3\n            /* \"#utility.yul\":1211:1212   */\n          dup3\n            /* \"#utility.yul\":1207:1216   */\n          add\n            /* \"#utility.yul\":1200:1216   */\n          swap1\n          pop\n            /* \"#utility.yul\":961:1222   */\n          swap3\n          swap2\n          pop\n          pop\n          jump\t// out\n            /* \"#utility.yul\":1228:1413   */\n        tag_36:\n          0x00\n            /* \"#utility.yul\":1285:1305   */\n          tag_59\n            /* \"#utility.yul\":1303:1304   */\n          dup3\n            /* \"#utility.yul\":1285:1305   */\n          tag_49\n          jump\t// in\n        tag_59:\n            /* \"#utility.yul\":1280:1305   */\n          swap2\n          pop\n            /* \"#utility.yul\":1319:1339   */\n          tag_60\n            /* \"#utility.yul\":1337:1338   */\n          dup4\n            /* \"#utility.yul\":1319:1339   */\n          tag_49\n          jump\t// in\n        tag_60:\n            /* \"#utility.yul\":1314:1339   */\n          swap3\n          pop\n            /* \"#utility.yul\":1358:1359   */\n          dup3\n            /* \"#utility.yul\":1348:1350   */\n          tag_61\n          jumpi\n            /* \"#utility.yul\":1363:1381   */\n          tag_62\n          tag_63\n          jump\t// in\n        tag_62:\n            /* \"#utility.yul\":1348:1350   */\n        tag_61:\n            /* \"#utility.yul\":1405:1406   */\n          dup3\n            /* \"#utility.yul\":1402:1403   */\n          dup3\n            /* \"#utility.yul\":1398:1407   */\n          div\n            /* \"#utility.yul\":1393:1407   */\n          swap1\n          pop\n            /* \"#utility.yul\":1270:1413   */\n          swap3\n          swap2\n          pop\n          pop\n          jump\t// out\n            /* \"#utility.yul\":1419:1767   */\n        tag_27:\n          0x00\n            /* \"#utility.yul\":1482:1502   */\n          tag_65\n            /* \"#utility.yul\":1500:1501   */\n          dup3\n            /* \"#utility.yul\":1482:1502   */\n          tag_49\n          jump\t// in\n        tag_65:\n            /* \"#utility.yul\":1477:1502   */\n          swap2\n          pop\n            /* \"#utility.yul\":1516:1536   */\n          tag_66\n            /* \"#utility.yul\":1534:1535   */\n          dup4\n            /* \"#utility.yul\":1516:1536   */\n          tag_49\n          jump\t// in\n        tag_66:\n            /* \"#utility.yul\":1511:1536   */\n          swap3\n          pop\n            /* \"#utility.yul\":1704:1705   */\n          dup2\n            /* \"#utility.yul\":1636:1702   */\n          0xffffffffffffffffffffffffffffffffffffffffffffffffffffffffffffffff\n            /* \"#utility.yul\":1632:1706   */\n          div\n            /* \"#utility.yul\":1629:1630   */\n          dup4\n            /* \"#utility.yul\":1626:1707   */\n          gt\n            /* \"#utility.yul\":1621:1622   */\n          dup3\n            /* \"#utility.yul\":1614:1623   */\n          iszero\n            /* \"#utility.yul\":1607:1624   */\n          iszero\n            /* \"#utility.yul\":1603:1708   */\n          and\n            /* \"#utility.yul\":1600:1602   */\n          iszero\n          tag_67\n          jumpi\n            /* \"#utility.yul\":1711:1729   */\n          tag_68\n          tag_57\n          jump\t// in\n        tag_68:\n            /* \"#utility.yul\":1600:1602   */\n        tag_67:\n            /* \"#utility.yul\":1759:1760   */\n          dup3\n            /* \"#utility.yul\":1756:1757   */\n          dup3\n            /* \"#utility.yul\":1752:1761   */\n          mul\n            /* \"#utility.yul\":1741:1761   */\n          swap1\n          pop\n            /* \"#utility.yul\":1467:1767   */\n          swap3\n          swap2\n          pop\n          pop\n          jump\t// out\n            /* \"#utility.yul\":1773:1964   */\n        tag_30:\n          0x00\n            /* \"#utility.yul\":1833:1853   */\n          tag_70\n            /* \"#utility.yul\":1851:1852   */\n          dup3\n            /* \"#utility.yul\":1833:1853   */\n          tag_49\n          jump\t// in\n        tag_70:\n            /* \"#utility.yul\":1828:1853   */\n          swap2\n          pop\n            /* \"#utility.yul\":1867:1887   */\n          tag_71\n            /* \"#utility.yul\":1885:1886   */\n          dup4\n            /* \"#utility.yul\":1867:1887   */\n          tag_49\n          jump\t// in\n        tag_71:\n            /* \"#utility.yul\":1862:1887   */\n          swap3\n          pop\n            /* \"#utility.yul\":1906:1907   */\n          dup3\n            /* \"#utility.yul\":1903:1904   */\n          dup3\n            /* \"#utility.yul\":1900:1908   */\n          lt\n            /* \"#utility.yul\":1897:1899   */\n          iszero\n          tag_72\n          jumpi\n            /* \"#utility.yul\":1911:1929   */\n          tag_73\n          tag_57\n          jump\t// in\n        tag_73:\n            /* \"#utility.yul\":1897:1899   */\n        tag_72:\n            /* \"#utility.yul\":1956:1957   */\n          dup3\n            /* \"#utility.yul\":1953:1954   */\n          dup3\n            /* \"#utility.yul\":1949:1958   */\n          sub\n            /* \"#utility.yul\":1941:1958   */\n          swap1\n          pop\n            /* \"#utility.yul\":1818:1964   */\n          swap3\n          swap2\n          pop\n          pop\n          jump\t// out\n            /* \"#utility.yul\":1970:2047   */\n        tag_49:\n          0x00\n            /* \"#utility.yul\":2036:2041   */\n          dup2\n            /* \"#utility.yul\":2025:2041   */\n          swap1\n          pop\n            /* \"#utility.yul\":2015:2047   */\n          swap2\n          swap1\n          pop\n          jump\t// out\n            /* \"#utility.yul\":2053:2233   */\n        tag_57:\n            /* \"#utility.yul\":2101:2178   */\n          0x4e487b7100000000000000000000000000000000000000000000000000000000\n            /* \"#utility.yul\":2098:2099   */\n          0x00\n            /* \"#utility.yul\":2091:2179   */\n          mstore\n            /* \"#utility.yul\":2198:2202   */\n          0x11\n            /* \"#utility.yul\":2195:2196   */\n          0x04\n            /* \"#utility.yul\":2188:2203   */\n          mstore\n            /* \"#utility.yul\":2222:2226   */\n          0x24\n            /* \"#utility.yul\":2219:2220   */\n          0x00\n            /* \"#utility.yul\":2212:2227   */\n          revert\n            /* \"#utility.yul\":2239:2419   */\n        tag_63:\n            /* \"#utility.yul\":2287:2364   */\n          0x4e487b7100000000000000000000000000000000000000000000000000000000\n            /* \"#utility.yul\":2284:2285   */\n          0x00\n            /* \"#utility.yul\":2277:2365   */\n          mstore\n            /* \"#utility.yul\":2384:2388   */\n          0x12\n            /* \"#utility.yul\":2381:2382   */\n          0x04\n            /* \"#utility.yul\":2374:2389   */\n          mstore\n            /* \"#utility.yul\":2408:2412   */\n          0x24\n            /* \"#utility.yul\":2405:2406   */\n          0x00\n            /* \"#utility.yul\":2398:2413   */\n          revert\n            /* \"#utility.yul\":2425:2547   */\n        tag_41:\n            /* \"#utility.yul\":2498:2522   */\n          tag_78\n            /* \"#utility.yul\":2516:2521   */\n          dup2\n            /* \"#utility.yul\":2498:2522   */\n          tag_49\n          jump\t// in\n        tag_78:\n            /* \"#utility.yul\":2491:2496   */\n          dup2\n            /* \"#utility.yul\":2488:2523   */\n          eq\n            /* \"#utility.yul\":2478:2480   */\n          tag_79\n          jumpi\n            /* \"#utility.yul\":2537:2538   */\n          0x00\n            /* \"#utility.yul\":2534:2535   */\n          dup1\n            /* \"#utility.yul\":2527:2539   */\n          revert\n            /* \"#utility.yul\":2478:2480   */\n        tag_79:\n            /* \"#utility.yul\":2468:2547   */\n          pop\n          jump\t// out\n\n        auxdata: 0xa2646970667358221220b45ff3954963f02cac661f99eed48bcd7389a7ca7b50f93524e0087a83ba491d64736f6c63430008000033\n    }\n}\n",
				"bytecode": {
					"linkReferences": {
						"remix_tests.sol": {
							"Assert": [
								{
									"length": 20,
									"start": 277
								},
								{
									"length": 20,
									"start": 588
								},
								{
									"length": 20,
									"start": 902
								},
								{
									"length": 20,
									"start": 1213
								},
								{
									"length": 20,
									"start": 1526
								},
								{
									"length": 20,
									"start": 1837
								},
								{
									"length": 20,
									"start": 2151
								},
								{
									"length": 20,
									"start": 2462
								}
							]
						}
					},
					"object": "60806040526040516100109061007e565b604051809103906000f08015801561002c573d6000803e3d6000fd5b506000806101000a81548173ffffffffffffffffffffffffffffffffffffffff021916908373ffffffffffffffffffffffffffffffffffffffff16021790555034801561007857600080fd5b5061008b565b6103ce80610e5883390190565b610dbe8061009a6000396000f3fe608060405234801561001057600080fd5b506004361061004c5760003560e01c80634f2be91f146100515780636deebae31461005b578063b53b8d7a14610065578063f3593cd01461006f575b600080fd5b610059610079565b005b6100636102ea565b005b61006d61055a565b005b6100776107cb565b005b73__$acbfb1c35000d78352310b16a054a6b106$__6339df137f600360008054906101000a900473ffffffffffffffffffffffffffffffffffffffff1673ffffffffffffffffffffffffffffffffffffffff1663771602f7600160026040518363ffffffff1660e01b81526004016100f2929190610bff565b60206040518083038186803b15801561010a57600080fd5b505afa15801561011e573d6000803e3d6000fd5b505050506040513d601f19601f820116820180604052508101906101429190610a8f565b146040518263ffffffff1660e01b815260040161015f9190610b7f565b60206040518083038186803b15801561017757600080fd5b505af415801561018b573d6000803e3d6000fd5b505050506040513d601f19601f820116820180604052508101906101af9190610a66565b5073__$acbfb1c35000d78352310b16a054a6b106$__6339df137f61012c60008054906101000a900473ffffffffffffffffffffffffffffffffffffffff1673ffffffffffffffffffffffffffffffffffffffff1663771602f7606460c86040518363ffffffff1660e01b815260040161022a929190610bad565b60206040518083038186803b15801561024257600080fd5b505afa158015610256573d6000803e3d6000fd5b505050506040513d601f19601f8201168201806040525081019061027a9190610a8f565b146040518263ffffffff1660e01b81526004016102979190610b7f565b60206040518083038186803b1580156102af57600080fd5b505af41580156102c3573d6000803e3d6000fd5b505050506040513d601f19601f820116820180604052508101906102e79190610a66565b50565b73__$acbfb1c35000d78352310b16a054a6b106$__6339df137f600160008054906101000a900473ffffffffffffffffffffffffffffffffffffffff1673ffffffffffffffffffffffffffffffffffffffff16633ef5e445600260016040518363ffffffff1660e01b8152600401610363929190610c51565b60206040518083038186803b15801561037b57600080fd5b505afa15801561038f573d6000803e3d6000fd5b505050506040513d601f19601f820116820180604052508101906103b39190610a8f565b146040518263ffffffff1660e01b81526004016103d09190610b7f565b60206040518083038186803b1580156103e857600080fd5b505af41580156103fc573d6000803e3d6000fd5b505050506040513d601f19601f820116820180604052508101906104209190610a66565b5073__$acbfb1c35000d78352310b16a054a6b106$__6339df137f609660008054906101000a900473ffffffffffffffffffffffffffffffffffffffff1673ffffffffffffffffffffffffffffffffffffffff16633ef5e44560c860326040518363ffffffff1660e01b815260040161049a929190610c28565b60206040518083038186803b1580156104b257600080fd5b505afa1580156104c6573d6000803e3d6000fd5b505050506040513d601f19601f820116820180604052508101906104ea9190610a8f565b146040518263ffffffff1660e01b81526004016105079190610b7f565b60206040518083038186803b15801561051f57600080fd5b505af4158015610533573d6000803e3d6000fd5b505050506040513d601f19601f820116820180604052508101906105579190610a66565b50565b73__$acbfb1c35000d78352310b16a054a6b106$__6339df137f600260008054906101000a900473ffffffffffffffffffffffffffffffffffffffff1673ffffffffffffffffffffffffffffffffffffffff1663f88e9fbf600a60056040518363ffffffff1660e01b81526004016105d3929190610bd6565b60206040518083038186803b1580156105eb57600080fd5b505afa1580156105ff573d6000803e3d6000fd5b505050506040513d601f19601f820116820180604052508101906106239190610a8f565b146040518263ffffffff1660e01b81526004016106409190610b7f565b60206040518083038186803b15801561065857600080fd5b505af415801561066c573d6000803e3d6000fd5b505050506040513d601f19601f820116820180604052508101906106909190610a66565b5073__$acbfb1c35000d78352310b16a054a6b106$__6339df137f600360008054906101000a900473ffffffffffffffffffffffffffffffffffffffff1673ffffffffffffffffffffffffffffffffffffffff1663f88e9fbf61012c60646040518363ffffffff1660e01b815260040161070b929190610c7a565b60206040518083038186803b15801561072357600080fd5b505afa158015610737573d6000803e3d6000fd5b505050506040513d601f19601f8201168201806040525081019061075b9190610a8f565b146040518263ffffffff1660e01b81526004016107789190610b7f565b60206040518083038186803b15801561079057600080fd5b505af41580156107a4573d6000803e3d6000fd5b505050506040513d601f19601f820116820180604052508101906107c89190610a66565b50565b73__$acbfb1c35000d78352310b16a054a6b106$__6339df137f600260008054906101000a900473ffffffffffffffffffffffffffffffffffffffff1673ffffffffffffffffffffffffffffffffffffffff1663165c4a16600160026040518363ffffffff1660e01b8152600401610844929190610bff565b60206040518083038186803b15801561085c57600080fd5b505afa158015610870573d6000803e3d6000fd5b505050506040513d601f19601f820116820180604052508101906108949190610a8f565b146040518263ffffffff1660e01b81526004016108b19190610b7f565b60206040518083038186803b1580156108c957600080fd5b505af41580156108dd573d6000803e3d6000fd5b505050506040513d601f19601f820116820180604052508101906109019190610a66565b5073__$acbfb1c35000d78352310b16a054a6b106$__6339df137f614e2060008054906101000a900473ffffffffffffffffffffffffffffffffffffffff1673ffffffffffffffffffffffffffffffffffffffff1663165c4a16606460c86040518363ffffffff1660e01b815260040161097c929190610bad565b60206040518083038186803b15801561099457600080fd5b505afa1580156109a8573d6000803e3d6000fd5b505050506040513d601f19601f820116820180604052508101906109cc9190610a8f565b146040518263ffffffff1660e01b81526004016109e99190610b7f565b60206040518083038186803b158015610a0157600080fd5b505af4158015610a15573d6000803e3d6000fd5b505050506040513d601f19601f82011682018060405250810190610a399190610a66565b50565b600081519050610a4b81610d5a565b92915050565b600081519050610a6081610d71565b92915050565b600060208284031215610a7857600080fd5b6000610a8684828501610a3c565b91505092915050565b600060208284031215610aa157600080fd5b6000610aaf84828501610a51565b91505092915050565b610ac181610cb4565b82525050565b610ad081610cca565b82525050565b610adf81610cdc565b82525050565b610aee81610cee565b82525050565b610afd81610d00565b82525050565b610b0c81610d12565b82525050565b610b1b81610d24565b82525050565b610b2a81610d36565b82525050565b610b3981610d48565b82525050565b6000610b4c600e83610ca3565b91507f73686f756c6420626520747275650000000000000000000000000000000000006000830152602082019050919050565b6000604082019050610b946000830184610ab8565b8181036020830152610ba581610b3f565b905092915050565b6000604082019050610bc26000830185610ac7565b610bcf6020830184610af4565b9392505050565b6000604082019050610beb6000830185610ad6565b610bf86020830184610b30565b9392505050565b6000604082019050610c146000830185610ae5565b610c216020830184610b03565b9392505050565b6000604082019050610c3d6000830185610af4565b610c4a6020830184610b21565b9392505050565b6000604082019050610c666000830185610b03565b610c736020830184610ae5565b9392505050565b6000604082019050610c8f6000830185610b12565b610c9c6020830184610ac7565b9392505050565b600082825260208201905092915050565b60008115159050919050565b6000819050919050565b6000610cd582610cc0565b9050919050565b6000610ce782610cc0565b9050919050565b6000610cf982610cc0565b9050919050565b6000610d0b82610cc0565b9050919050565b6000610d1d82610cc0565b9050919050565b6000610d2f82610cc0565b9050919050565b6000610d4182610cc0565b9050919050565b6000610d5382610cc0565b9050919050565b610d6381610cb4565b8114610d6e57600080fd5b50565b610d7a81610cc0565b8114610d8557600080fd5b5056fea264697066735822122038fe24bebe97d7d0e9785323561a63118bf5414581fe3bb22969dac1195f4eaa64736f6c63430008000033608060405234801561001057600080fd5b506103ae806100206000396000f3fe608060405234801561001057600080fd5b506004361061004c5760003560e01c8063165c4a16146100515780633ef5e44514610081578063771602f7146100b1578063f88e9fbf146100e1575b600080fd5b61006b6004803603810190610066919061017e565b610111565b60405161007891906101c9565b60405180910390f35b61009b6004803603810190610096919061017e565b610127565b6040516100a891906101c9565b60405180910390f35b6100cb60048036038101906100c6919061017e565b61013d565b6040516100d891906101c9565b60405180910390f35b6100fb60048036038101906100f6919061017e565b610153565b60405161010891906101c9565b60405180910390f35b6000818361011f919061026b565b905092915050565b6000818361013591906102c5565b905092915050565b6000818361014b91906101e4565b905092915050565b60008183610161919061023a565b905092915050565b60008135905061017881610361565b92915050565b6000806040838503121561019157600080fd5b600061019f85828601610169565b92505060206101b085828601610169565b9150509250929050565b6101c3816102f9565b82525050565b60006020820190506101de60008301846101ba565b92915050565b60006101ef826102f9565b91506101fa836102f9565b9250827fffffffffffffffffffffffffffffffffffffffffffffffffffffffffffffffff0382111561022f5761022e610303565b5b828201905092915050565b6000610245826102f9565b9150610250836102f9565b9250826102605761025f610332565b5b828204905092915050565b6000610276826102f9565b9150610281836102f9565b9250817fffffffffffffffffffffffffffffffffffffffffffffffffffffffffffffffff04831182151516156102ba576102b9610303565b5b828202905092915050565b60006102d0826102f9565b91506102db836102f9565b9250828210156102ee576102ed610303565b5b828203905092915050565b6000819050919050565b7f4e487b7100000000000000000000000000000000000000000000000000000000600052601160045260246000fd5b7f4e487b7100000000000000000000000000000000000000000000000000000000600052601260045260246000fd5b61036a816102f9565b811461037557600080fd5b5056fea2646970667358221220b45ff3954963f02cac661f99eed48bcd7389a7ca7b50f93524e0087a83ba491d64736f6c63430008000033",
					"opcodes": "PUSH1 0x80 PUSH1 0x40 MSTORE PUSH1 0x40 MLOAD PUSH2 0x10 SWAP1 PUSH2 0x7E JUMP JUMPDEST PUSH1 0x40 MLOAD DUP1 SWAP2 SUB SWAP1 PUSH1 0x0 CREATE DUP1 ISZERO DUP1 ISZERO PUSH2 0x2C JUMPI RETURNDATASIZE PUSH1 0x0 DUP1 RETURNDATACOPY RETURNDATASIZE PUSH1 0x0 REVERT JUMPDEST POP PUSH1 0x0 DUP1 PUSH2 0x100 EXP DUP2 SLOAD DUP2 PUSH20 0xFFFFFFFFFFFFFFFFFFFFFFFFFFFFFFFFFFFFFFFF MUL NOT AND SWAP1 DUP4 PUSH20 0xFFFFFFFFFFFFFFFFFFFFFFFFFFFFFFFFFFFFFFFF AND MUL OR SWAP1 SSTORE POP CALLVALUE DUP1 ISZERO PUSH2 0x78 JUMPI PUSH1 0x0 DUP1 REVERT JUMPDEST POP PUSH2 0x8B JUMP JUMPDEST PUSH2 0x3CE DUP1 PUSH2 0xE58 DUP4 CODECOPY ADD SWAP1 JUMP JUMPDEST PUSH2 0xDBE DUP1 PUSH2 0x9A PUSH1 0x0 CODECOPY PUSH1 0x0 RETURN INVALID PUSH1 0x80 PUSH1 0x40 MSTORE CALLVALUE DUP1 ISZERO PUSH2 0x10 JUMPI PUSH1 0x0 DUP1 REVERT JUMPDEST POP PUSH1 0x4 CALLDATASIZE LT PUSH2 0x4C JUMPI PUSH1 0x0 CALLDATALOAD PUSH1 0xE0 SHR DUP1 PUSH4 0x4F2BE91F EQ PUSH2 0x51 JUMPI DUP1 PUSH4 0x6DEEBAE3 EQ PUSH2 0x5B JUMPI DUP1 PUSH4 0xB53B8D7A EQ PUSH2 0x65 JUMPI DUP1 PUSH4 0xF3593CD0 EQ PUSH2 0x6F JUMPI JUMPDEST PUSH1 0x0 DUP1 REVERT JUMPDEST PUSH2 0x59 PUSH2 0x79 JUMP JUMPDEST STOP JUMPDEST PUSH2 0x63 PUSH2 0x2EA JUMP JUMPDEST STOP JUMPDEST PUSH2 0x6D PUSH2 0x55A JUMP JUMPDEST STOP JUMPDEST PUSH2 0x77 PUSH2 0x7CB JUMP JUMPDEST STOP JUMPDEST PUSH20 0x0 PUSH4 0x39DF137F PUSH1 0x3 PUSH1 0x0 DUP1 SLOAD SWAP1 PUSH2 0x100 EXP SWAP1 DIV PUSH20 0xFFFFFFFFFFFFFFFFFFFFFFFFFFFFFFFFFFFFFFFF AND PUSH20 0xFFFFFFFFFFFFFFFFFFFFFFFFFFFFFFFFFFFFFFFF AND PUSH4 0x771602F7 PUSH1 0x1 PUSH1 0x2 PUSH1 0x40 MLOAD DUP4 PUSH4 0xFFFFFFFF AND PUSH1 0xE0 SHL DUP2 MSTORE PUSH1 0x4 ADD PUSH2 0xF2 SWAP3 SWAP2 SWAP1 PUSH2 0xBFF JUMP JUMPDEST PUSH1 0x20 PUSH1 0x40 MLOAD DUP1 DUP4 SUB DUP2 DUP7 DUP1 EXTCODESIZE ISZERO DUP1 ISZERO PUSH2 0x10A JUMPI PUSH1 0x0 DUP1 REVERT JUMPDEST POP GAS STATICCALL ISZERO DUP1 ISZERO PUSH2 0x11E JUMPI RETURNDATASIZE PUSH1 0x0 DUP1 RETURNDATACOPY RETURNDATASIZE PUSH1 0x0 REVERT JUMPDEST POP POP POP POP PUSH1 0x40 MLOAD RETURNDATASIZE PUSH1 0x1F NOT PUSH1 0x1F DUP3 ADD AND DUP3 ADD DUP1 PUSH1 0x40 MSTORE POP DUP2 ADD SWAP1 PUSH2 0x142 SWAP2 SWAP1 PUSH2 0xA8F JUMP JUMPDEST EQ PUSH1 0x40 MLOAD DUP3 PUSH4 0xFFFFFFFF AND PUSH1 0xE0 SHL DUP2 MSTORE PUSH1 0x4 ADD PUSH2 0x15F SWAP2 SWAP1 PUSH2 0xB7F JUMP JUMPDEST PUSH1 0x20 PUSH1 0x40 MLOAD DUP1 DUP4 SUB DUP2 DUP7 DUP1 EXTCODESIZE ISZERO DUP1 ISZERO PUSH2 0x177 JUMPI PUSH1 0x0 DUP1 REVERT JUMPDEST POP GAS DELEGATECALL ISZERO DUP1 ISZERO PUSH2 0x18B JUMPI RETURNDATASIZE PUSH1 0x0 DUP1 RETURNDATACOPY RETURNDATASIZE PUSH1 0x0 REVERT JUMPDEST POP POP POP POP PUSH1 0x40 MLOAD RETURNDATASIZE PUSH1 0x1F NOT PUSH1 0x1F DUP3 ADD AND DUP3 ADD DUP1 PUSH1 0x40 MSTORE POP DUP2 ADD SWAP1 PUSH2 0x1AF SWAP2 SWAP1 PUSH2 0xA66 JUMP JUMPDEST POP PUSH20 0x0 PUSH4 0x39DF137F PUSH2 0x12C PUSH1 0x0 DUP1 SLOAD SWAP1 PUSH2 0x100 EXP SWAP1 DIV PUSH20 0xFFFFFFFFFFFFFFFFFFFFFFFFFFFFFFFFFFFFFFFF AND PUSH20 0xFFFFFFFFFFFFFFFFFFFFFFFFFFFFFFFFFFFFFFFF AND PUSH4 0x771602F7 PUSH1 0x64 PUSH1 0xC8 PUSH1 0x40 MLOAD DUP4 PUSH4 0xFFFFFFFF AND PUSH1 0xE0 SHL DUP2 MSTORE PUSH1 0x4 ADD PUSH2 0x22A SWAP3 SWAP2 SWAP1 PUSH2 0xBAD JUMP JUMPDEST PUSH1 0x20 PUSH1 0x40 MLOAD DUP1 DUP4 SUB DUP2 DUP7 DUP1 EXTCODESIZE ISZERO DUP1 ISZERO PUSH2 0x242 JUMPI PUSH1 0x0 DUP1 REVERT JUMPDEST POP GAS STATICCALL ISZERO DUP1 ISZERO PUSH2 0x256 JUMPI RETURNDATASIZE PUSH1 0x0 DUP1 RETURNDATACOPY RETURNDATASIZE PUSH1 0x0 REVERT JUMPDEST POP POP POP POP PUSH1 0x40 MLOAD RETURNDATASIZE PUSH1 0x1F NOT PUSH1 0x1F DUP3 ADD AND DUP3 ADD DUP1 PUSH1 0x40 MSTORE POP DUP2 ADD SWAP1 PUSH2 0x27A SWAP2 SWAP1 PUSH2 0xA8F JUMP JUMPDEST EQ PUSH1 0x40 MLOAD DUP3 PUSH4 0xFFFFFFFF AND PUSH1 0xE0 SHL DUP2 MSTORE PUSH1 0x4 ADD PUSH2 0x297 SWAP2 SWAP1 PUSH2 0xB7F JUMP JUMPDEST PUSH1 0x20 PUSH1 0x40 MLOAD DUP1 DUP4 SUB DUP2 DUP7 DUP1 EXTCODESIZE ISZERO DUP1 ISZERO PUSH2 0x2AF JUMPI PUSH1 0x0 DUP1 REVERT JUMPDEST POP GAS DELEGATECALL ISZERO DUP1 ISZERO PUSH2 0x2C3 JUMPI RETURNDATASIZE PUSH1 0x0 DUP1 RETURNDATACOPY RETURNDATASIZE PUSH1 0x0 REVERT JUMPDEST POP POP POP POP PUSH1 0x40 MLOAD RETURNDATASIZE PUSH1 0x1F NOT PUSH1 0x1F DUP3 ADD AND DUP3 ADD DUP1 PUSH1 0x40 MSTORE POP DUP2 ADD SWAP1 PUSH2 0x2E7 SWAP2 SWAP1 PUSH2 0xA66 JUMP JUMPDEST POP JUMP JUMPDEST PUSH20 0x0 PUSH4 0x39DF137F PUSH1 0x1 PUSH1 0x0 DUP1 SLOAD SWAP1 PUSH2 0x100 EXP SWAP1 DIV PUSH20 0xFFFFFFFFFFFFFFFFFFFFFFFFFFFFFFFFFFFFFFFF AND PUSH20 0xFFFFFFFFFFFFFFFFFFFFFFFFFFFFFFFFFFFFFFFF AND PUSH4 0x3EF5E445 PUSH1 0x2 PUSH1 0x1 PUSH1 0x40 MLOAD DUP4 PUSH4 0xFFFFFFFF AND PUSH1 0xE0 SHL DUP2 MSTORE PUSH1 0x4 ADD PUSH2 0x363 SWAP3 SWAP2 SWAP1 PUSH2 0xC51 JUMP JUMPDEST PUSH1 0x20 PUSH1 0x40 MLOAD DUP1 DUP4 SUB DUP2 DUP7 DUP1 EXTCODESIZE ISZERO DUP1 ISZERO PUSH2 0x37B JUMPI PUSH1 0x0 DUP1 REVERT JUMPDEST POP GAS STATICCALL ISZERO DUP1 ISZERO PUSH2 0x38F JUMPI RETURNDATASIZE PUSH1 0x0 DUP1 RETURNDATACOPY RETURNDATASIZE PUSH1 0x0 REVERT JUMPDEST POP POP POP POP PUSH1 0x40 MLOAD RETURNDATASIZE PUSH1 0x1F NOT PUSH1 0x1F DUP3 ADD AND DUP3 ADD DUP1 PUSH1 0x40 MSTORE POP DUP2 ADD SWAP1 PUSH2 0x3B3 SWAP2 SWAP1 PUSH2 0xA8F JUMP JUMPDEST EQ PUSH1 0x40 MLOAD DUP3 PUSH4 0xFFFFFFFF AND PUSH1 0xE0 SHL DUP2 MSTORE PUSH1 0x4 ADD PUSH2 0x3D0 SWAP2 SWAP1 PUSH2 0xB7F JUMP JUMPDEST PUSH1 0x20 PUSH1 0x40 MLOAD DUP1 DUP4 SUB DUP2 DUP7 DUP1 EXTCODESIZE ISZERO DUP1 ISZERO PUSH2 0x3E8 JUMPI PUSH1 0x0 DUP1 REVERT JUMPDEST POP GAS DELEGATECALL ISZERO DUP1 ISZERO PUSH2 0x3FC JUMPI RETURNDATASIZE PUSH1 0x0 DUP1 RETURNDATACOPY RETURNDATASIZE PUSH1 0x0 REVERT JUMPDEST POP POP POP POP PUSH1 0x40 MLOAD RETURNDATASIZE PUSH1 0x1F NOT PUSH1 0x1F DUP3 ADD AND DUP3 ADD DUP1 PUSH1 0x40 MSTORE POP DUP2 ADD SWAP1 PUSH2 0x420 SWAP2 SWAP1 PUSH2 0xA66 JUMP JUMPDEST POP PUSH20 0x0 PUSH4 0x39DF137F PUSH1 0x96 PUSH1 0x0 DUP1 SLOAD SWAP1 PUSH2 0x100 EXP SWAP1 DIV PUSH20 0xFFFFFFFFFFFFFFFFFFFFFFFFFFFFFFFFFFFFFFFF AND PUSH20 0xFFFFFFFFFFFFFFFFFFFFFFFFFFFFFFFFFFFFFFFF AND PUSH4 0x3EF5E445 PUSH1 0xC8 PUSH1 0x32 PUSH1 0x40 MLOAD DUP4 PUSH4 0xFFFFFFFF AND PUSH1 0xE0 SHL DUP2 MSTORE PUSH1 0x4 ADD PUSH2 0x49A SWAP3 SWAP2 SWAP1 PUSH2 0xC28 JUMP JUMPDEST PUSH1 0x20 PUSH1 0x40 MLOAD DUP1 DUP4 SUB DUP2 DUP7 DUP1 EXTCODESIZE ISZERO DUP1 ISZERO PUSH2 0x4B2 JUMPI PUSH1 0x0 DUP1 REVERT JUMPDEST POP GAS STATICCALL ISZERO DUP1 ISZERO PUSH2 0x4C6 JUMPI RETURNDATASIZE PUSH1 0x0 DUP1 RETURNDATACOPY RETURNDATASIZE PUSH1 0x0 REVERT JUMPDEST POP POP POP POP PUSH1 0x40 MLOAD RETURNDATASIZE PUSH1 0x1F NOT PUSH1 0x1F DUP3 ADD AND DUP3 ADD DUP1 PUSH1 0x40 MSTORE POP DUP2 ADD SWAP1 PUSH2 0x4EA SWAP2 SWAP1 PUSH2 0xA8F JUMP JUMPDEST EQ PUSH1 0x40 MLOAD DUP3 PUSH4 0xFFFFFFFF AND PUSH1 0xE0 SHL DUP2 MSTORE PUSH1 0x4 ADD PUSH2 0x507 SWAP2 SWAP1 PUSH2 0xB7F JUMP JUMPDEST PUSH1 0x20 PUSH1 0x40 MLOAD DUP1 DUP4 SUB DUP2 DUP7 DUP1 EXTCODESIZE ISZERO DUP1 ISZERO PUSH2 0x51F JUMPI PUSH1 0x0 DUP1 REVERT JUMPDEST POP GAS DELEGATECALL ISZERO DUP1 ISZERO PUSH2 0x533 JUMPI RETURNDATASIZE PUSH1 0x0 DUP1 RETURNDATACOPY RETURNDATASIZE PUSH1 0x0 REVERT JUMPDEST POP POP POP POP PUSH1 0x40 MLOAD RETURNDATASIZE PUSH1 0x1F NOT PUSH1 0x1F DUP3 ADD AND DUP3 ADD DUP1 PUSH1 0x40 MSTORE POP DUP2 ADD SWAP1 PUSH2 0x557 SWAP2 SWAP1 PUSH2 0xA66 JUMP JUMPDEST POP JUMP JUMPDEST PUSH20 0x0 PUSH4 0x39DF137F PUSH1 0x2 PUSH1 0x0 DUP1 SLOAD SWAP1 PUSH2 0x100 EXP SWAP1 DIV PUSH20 0xFFFFFFFFFFFFFFFFFFFFFFFFFFFFFFFFFFFFFFFF AND PUSH20 0xFFFFFFFFFFFFFFFFFFFFFFFFFFFFFFFFFFFFFFFF AND PUSH4 0xF88E9FBF PUSH1 0xA PUSH1 0x5 PUSH1 0x40 MLOAD DUP4 PUSH4 0xFFFFFFFF AND PUSH1 0xE0 SHL DUP2 MSTORE PUSH1 0x4 ADD PUSH2 0x5D3 SWAP3 SWAP2 SWAP1 PUSH2 0xBD6 JUMP JUMPDEST PUSH1 0x20 PUSH1 0x40 MLOAD DUP1 DUP4 SUB DUP2 DUP7 DUP1 EXTCODESIZE ISZERO DUP1 ISZERO PUSH2 0x5EB JUMPI PUSH1 0x0 DUP1 REVERT JUMPDEST POP GAS STATICCALL ISZERO DUP1 ISZERO PUSH2 0x5FF JUMPI RETURNDATASIZE PUSH1 0x0 DUP1 RETURNDATACOPY RETURNDATASIZE PUSH1 0x0 REVERT JUMPDEST POP POP POP POP PUSH1 0x40 MLOAD RETURNDATASIZE PUSH1 0x1F NOT PUSH1 0x1F DUP3 ADD AND DUP3 ADD DUP1 PUSH1 0x40 MSTORE POP DUP2 ADD SWAP1 PUSH2 0x623 SWAP2 SWAP1 PUSH2 0xA8F JUMP JUMPDEST EQ PUSH1 0x40 MLOAD DUP3 PUSH4 0xFFFFFFFF AND PUSH1 0xE0 SHL DUP2 MSTORE PUSH1 0x4 ADD PUSH2 0x640 SWAP2 SWAP1 PUSH2 0xB7F JUMP JUMPDEST PUSH1 0x20 PUSH1 0x40 MLOAD DUP1 DUP4 SUB DUP2 DUP7 DUP1 EXTCODESIZE ISZERO DUP1 ISZERO PUSH2 0x658 JUMPI PUSH1 0x0 DUP1 REVERT JUMPDEST POP GAS DELEGATECALL ISZERO DUP1 ISZERO PUSH2 0x66C JUMPI RETURNDATASIZE PUSH1 0x0 DUP1 RETURNDATACOPY RETURNDATASIZE PUSH1 0x0 REVERT JUMPDEST POP POP POP POP PUSH1 0x40 MLOAD RETURNDATASIZE PUSH1 0x1F NOT PUSH1 0x1F DUP3 ADD AND DUP3 ADD DUP1 PUSH1 0x40 MSTORE POP DUP2 ADD SWAP1 PUSH2 0x690 SWAP2 SWAP1 PUSH2 0xA66 JUMP JUMPDEST POP PUSH20 0x0 PUSH4 0x39DF137F PUSH1 0x3 PUSH1 0x0 DUP1 SLOAD SWAP1 PUSH2 0x100 EXP SWAP1 DIV PUSH20 0xFFFFFFFFFFFFFFFFFFFFFFFFFFFFFFFFFFFFFFFF AND PUSH20 0xFFFFFFFFFFFFFFFFFFFFFFFFFFFFFFFFFFFFFFFF AND PUSH4 0xF88E9FBF PUSH2 0x12C PUSH1 0x64 PUSH1 0x40 MLOAD DUP4 PUSH4 0xFFFFFFFF AND PUSH1 0xE0 SHL DUP2 MSTORE PUSH1 0x4 ADD PUSH2 0x70B SWAP3 SWAP2 SWAP1 PUSH2 0xC7A JUMP JUMPDEST PUSH1 0x20 PUSH1 0x40 MLOAD DUP1 DUP4 SUB DUP2 DUP7 DUP1 EXTCODESIZE ISZERO DUP1 ISZERO PUSH2 0x723 JUMPI PUSH1 0x0 DUP1 REVERT JUMPDEST POP GAS STATICCALL ISZERO DUP1 ISZERO PUSH2 0x737 JUMPI RETURNDATASIZE PUSH1 0x0 DUP1 RETURNDATACOPY RETURNDATASIZE PUSH1 0x0 REVERT JUMPDEST POP POP POP POP PUSH1 0x40 MLOAD RETURNDATASIZE PUSH1 0x1F NOT PUSH1 0x1F DUP3 ADD AND DUP3 ADD DUP1 PUSH1 0x40 MSTORE POP DUP2 ADD SWAP1 PUSH2 0x75B SWAP2 SWAP1 PUSH2 0xA8F JUMP JUMPDEST EQ PUSH1 0x40 MLOAD DUP3 PUSH4 0xFFFFFFFF AND PUSH1 0xE0 SHL DUP2 MSTORE PUSH1 0x4 ADD PUSH2 0x778 SWAP2 SWAP1 PUSH2 0xB7F JUMP JUMPDEST PUSH1 0x20 PUSH1 0x40 MLOAD DUP1 DUP4 SUB DUP2 DUP7 DUP1 EXTCODESIZE ISZERO DUP1 ISZERO PUSH2 0x790 JUMPI PUSH1 0x0 DUP1 REVERT JUMPDEST POP GAS DELEGATECALL ISZERO DUP1 ISZERO PUSH2 0x7A4 JUMPI RETURNDATASIZE PUSH1 0x0 DUP1 RETURNDATACOPY RETURNDATASIZE PUSH1 0x0 REVERT JUMPDEST POP POP POP POP PUSH1 0x40 MLOAD RETURNDATASIZE PUSH1 0x1F NOT PUSH1 0x1F DUP3 ADD AND DUP3 ADD DUP1 PUSH1 0x40 MSTORE POP DUP2 ADD SWAP1 PUSH2 0x7C8 SWAP2 SWAP1 PUSH2 0xA66 JUMP JUMPDEST POP JUMP JUMPDEST PUSH20 0x0 PUSH4 0x39DF137F PUSH1 0x2 PUSH1 0x0 DUP1 SLOAD SWAP1 PUSH2 0x100 EXP SWAP1 DIV PUSH20 0xFFFFFFFFFFFFFFFFFFFFFFFFFFFFFFFFFFFFFFFF AND PUSH20 0xFFFFFFFFFFFFFFFFFFFFFFFFFFFFFFFFFFFFFFFF AND PUSH4 0x165C4A16 PUSH1 0x1 PUSH1 0x2 PUSH1 0x40 MLOAD DUP4 PUSH4 0xFFFFFFFF AND PUSH1 0xE0 SHL DUP2 MSTORE PUSH1 0x4 ADD PUSH2 0x844 SWAP3 SWAP2 SWAP1 PUSH2 0xBFF JUMP JUMPDEST PUSH1 0x20 PUSH1 0x40 MLOAD DUP1 DUP4 SUB DUP2 DUP7 DUP1 EXTCODESIZE ISZERO DUP1 ISZERO PUSH2 0x85C JUMPI PUSH1 0x0 DUP1 REVERT JUMPDEST POP GAS STATICCALL ISZERO DUP1 ISZERO PUSH2 0x870 JUMPI RETURNDATASIZE PUSH1 0x0 DUP1 RETURNDATACOPY RETURNDATASIZE PUSH1 0x0 REVERT JUMPDEST POP POP POP POP PUSH1 0x40 MLOAD RETURNDATASIZE PUSH1 0x1F NOT PUSH1 0x1F DUP3 ADD AND DUP3 ADD DUP1 PUSH1 0x40 MSTORE POP DUP2 ADD SWAP1 PUSH2 0x894 SWAP2 SWAP1 PUSH2 0xA8F JUMP JUMPDEST EQ PUSH1 0x40 MLOAD DUP3 PUSH4 0xFFFFFFFF AND PUSH1 0xE0 SHL DUP2 MSTORE PUSH1 0x4 ADD PUSH2 0x8B1 SWAP2 SWAP1 PUSH2 0xB7F JUMP JUMPDEST PUSH1 0x20 PUSH1 0x40 MLOAD DUP1 DUP4 SUB DUP2 DUP7 DUP1 EXTCODESIZE ISZERO DUP1 ISZERO PUSH2 0x8C9 JUMPI PUSH1 0x0 DUP1 REVERT JUMPDEST POP GAS DELEGATECALL ISZERO DUP1 ISZERO PUSH2 0x8DD JUMPI RETURNDATASIZE PUSH1 0x0 DUP1 RETURNDATACOPY RETURNDATASIZE PUSH1 0x0 REVERT JUMPDEST POP POP POP POP PUSH1 0x40 MLOAD RETURNDATASIZE PUSH1 0x1F NOT PUSH1 0x1F DUP3 ADD AND DUP3 ADD DUP1 PUSH1 0x40 MSTORE POP DUP2 ADD SWAP1 PUSH2 0x901 SWAP2 SWAP1 PUSH2 0xA66 JUMP JUMPDEST POP PUSH20 0x0 PUSH4 0x39DF137F PUSH2 0x4E20 PUSH1 0x0 DUP1 SLOAD SWAP1 PUSH2 0x100 EXP SWAP1 DIV PUSH20 0xFFFFFFFFFFFFFFFFFFFFFFFFFFFFFFFFFFFFFFFF AND PUSH20 0xFFFFFFFFFFFFFFFFFFFFFFFFFFFFFFFFFFFFFFFF AND PUSH4 0x165C4A16 PUSH1 0x64 PUSH1 0xC8 PUSH1 0x40 MLOAD DUP4 PUSH4 0xFFFFFFFF AND PUSH1 0xE0 SHL DUP2 MSTORE PUSH1 0x4 ADD PUSH2 0x97C SWAP3 SWAP2 SWAP1 PUSH2 0xBAD JUMP JUMPDEST PUSH1 0x20 PUSH1 0x40 MLOAD DUP1 DUP4 SUB DUP2 DUP7 DUP1 EXTCODESIZE ISZERO DUP1 ISZERO PUSH2 0x994 JUMPI PUSH1 0x0 DUP1 REVERT JUMPDEST POP GAS STATICCALL ISZERO DUP1 ISZERO PUSH2 0x9A8 JUMPI RETURNDATASIZE PUSH1 0x0 DUP1 RETURNDATACOPY RETURNDATASIZE PUSH1 0x0 REVERT JUMPDEST POP POP POP POP PUSH1 0x40 MLOAD RETURNDATASIZE PUSH1 0x1F NOT PUSH1 0x1F DUP3 ADD AND DUP3 ADD DUP1 PUSH1 0x40 MSTORE POP DUP2 ADD SWAP1 PUSH2 0x9CC SWAP2 SWAP1 PUSH2 0xA8F JUMP JUMPDEST EQ PUSH1 0x40 MLOAD DUP3 PUSH4 0xFFFFFFFF AND PUSH1 0xE0 SHL DUP2 MSTORE PUSH1 0x4 ADD PUSH2 0x9E9 SWAP2 SWAP1 PUSH2 0xB7F JUMP JUMPDEST PUSH1 0x20 PUSH1 0x40 MLOAD DUP1 DUP4 SUB DUP2 DUP7 DUP1 EXTCODESIZE ISZERO DUP1 ISZERO PUSH2 0xA01 JUMPI PUSH1 0x0 DUP1 REVERT JUMPDEST POP GAS DELEGATECALL ISZERO DUP1 ISZERO PUSH2 0xA15 JUMPI RETURNDATASIZE PUSH1 0x0 DUP1 RETURNDATACOPY RETURNDATASIZE PUSH1 0x0 REVERT JUMPDEST POP POP POP POP PUSH1 0x40 MLOAD RETURNDATASIZE PUSH1 0x1F NOT PUSH1 0x1F DUP3 ADD AND DUP3 ADD DUP1 PUSH1 0x40 MSTORE POP DUP2 ADD SWAP1 PUSH2 0xA39 SWAP2 SWAP1 PUSH2 0xA66 JUMP JUMPDEST POP JUMP JUMPDEST PUSH1 0x0 DUP2 MLOAD SWAP1 POP PUSH2 0xA4B DUP2 PUSH2 0xD5A JUMP JUMPDEST SWAP3 SWAP2 POP POP JUMP JUMPDEST PUSH1 0x0 DUP2 MLOAD SWAP1 POP PUSH2 0xA60 DUP2 PUSH2 0xD71 JUMP JUMPDEST SWAP3 SWAP2 POP POP JUMP JUMPDEST PUSH1 0x0 PUSH1 0x20 DUP3 DUP5 SUB SLT ISZERO PUSH2 0xA78 JUMPI PUSH1 0x0 DUP1 REVERT JUMPDEST PUSH1 0x0 PUSH2 0xA86 DUP5 DUP3 DUP6 ADD PUSH2 0xA3C JUMP JUMPDEST SWAP2 POP POP SWAP3 SWAP2 POP POP JUMP JUMPDEST PUSH1 0x0 PUSH1 0x20 DUP3 DUP5 SUB SLT ISZERO PUSH2 0xAA1 JUMPI PUSH1 0x0 DUP1 REVERT JUMPDEST PUSH1 0x0 PUSH2 0xAAF DUP5 DUP3 DUP6 ADD PUSH2 0xA51 JUMP JUMPDEST SWAP2 POP POP SWAP3 SWAP2 POP POP JUMP JUMPDEST PUSH2 0xAC1 DUP2 PUSH2 0xCB4 JUMP JUMPDEST DUP3 MSTORE POP POP JUMP JUMPDEST PUSH2 0xAD0 DUP2 PUSH2 0xCCA JUMP JUMPDEST DUP3 MSTORE POP POP JUMP JUMPDEST PUSH2 0xADF DUP2 PUSH2 0xCDC JUMP JUMPDEST DUP3 MSTORE POP POP JUMP JUMPDEST PUSH2 0xAEE DUP2 PUSH2 0xCEE JUMP JUMPDEST DUP3 MSTORE POP POP JUMP JUMPDEST PUSH2 0xAFD DUP2 PUSH2 0xD00 JUMP JUMPDEST DUP3 MSTORE POP POP JUMP JUMPDEST PUSH2 0xB0C DUP2 PUSH2 0xD12 JUMP JUMPDEST DUP3 MSTORE POP POP JUMP JUMPDEST PUSH2 0xB1B DUP2 PUSH2 0xD24 JUMP JUMPDEST DUP3 MSTORE POP POP JUMP JUMPDEST PUSH2 0xB2A DUP2 PUSH2 0xD36 JUMP JUMPDEST DUP3 MSTORE POP POP JUMP JUMPDEST PUSH2 0xB39 DUP2 PUSH2 0xD48 JUMP JUMPDEST DUP3 MSTORE POP POP JUMP JUMPDEST PUSH1 0x0 PUSH2 0xB4C PUSH1 0xE DUP4 PUSH2 0xCA3 JUMP JUMPDEST SWAP2 POP PUSH32 0x73686F756C642062652074727565000000000000000000000000000000000000 PUSH1 0x0 DUP4 ADD MSTORE PUSH1 0x20 DUP3 ADD SWAP1 POP SWAP2 SWAP1 POP JUMP JUMPDEST PUSH1 0x0 PUSH1 0x40 DUP3 ADD SWAP1 POP PUSH2 0xB94 PUSH1 0x0 DUP4 ADD DUP5 PUSH2 0xAB8 JUMP JUMPDEST DUP2 DUP2 SUB PUSH1 0x20 DUP4 ADD MSTORE PUSH2 0xBA5 DUP2 PUSH2 0xB3F JUMP JUMPDEST SWAP1 POP SWAP3 SWAP2 POP POP JUMP JUMPDEST PUSH1 0x0 PUSH1 0x40 DUP3 ADD SWAP1 POP PUSH2 0xBC2 PUSH1 0x0 DUP4 ADD DUP6 PUSH2 0xAC7 JUMP JUMPDEST PUSH2 0xBCF PUSH1 0x20 DUP4 ADD DUP5 PUSH2 0xAF4 JUMP JUMPDEST SWAP4 SWAP3 POP POP POP JUMP JUMPDEST PUSH1 0x0 PUSH1 0x40 DUP3 ADD SWAP1 POP PUSH2 0xBEB PUSH1 0x0 DUP4 ADD DUP6 PUSH2 0xAD6 JUMP JUMPDEST PUSH2 0xBF8 PUSH1 0x20 DUP4 ADD DUP5 PUSH2 0xB30 JUMP JUMPDEST SWAP4 SWAP3 POP POP POP JUMP JUMPDEST PUSH1 0x0 PUSH1 0x40 DUP3 ADD SWAP1 POP PUSH2 0xC14 PUSH1 0x0 DUP4 ADD DUP6 PUSH2 0xAE5 JUMP JUMPDEST PUSH2 0xC21 PUSH1 0x20 DUP4 ADD DUP5 PUSH2 0xB03 JUMP JUMPDEST SWAP4 SWAP3 POP POP POP JUMP JUMPDEST PUSH1 0x0 PUSH1 0x40 DUP3 ADD SWAP1 POP PUSH2 0xC3D PUSH1 0x0 DUP4 ADD DUP6 PUSH2 0xAF4 JUMP JUMPDEST PUSH2 0xC4A PUSH1 0x20 DUP4 ADD DUP5 PUSH2 0xB21 JUMP JUMPDEST SWAP4 SWAP3 POP POP POP JUMP JUMPDEST PUSH1 0x0 PUSH1 0x40 DUP3 ADD SWAP1 POP PUSH2 0xC66 PUSH1 0x0 DUP4 ADD DUP6 PUSH2 0xB03 JUMP JUMPDEST PUSH2 0xC73 PUSH1 0x20 DUP4 ADD DUP5 PUSH2 0xAE5 JUMP JUMPDEST SWAP4 SWAP3 POP POP POP JUMP JUMPDEST PUSH1 0x0 PUSH1 0x40 DUP3 ADD SWAP1 POP PUSH2 0xC8F PUSH1 0x0 DUP4 ADD DUP6 PUSH2 0xB12 JUMP JUMPDEST PUSH2 0xC9C PUSH1 0x20 DUP4 ADD DUP5 PUSH2 0xAC7 JUMP JUMPDEST SWAP4 SWAP3 POP POP POP JUMP JUMPDEST PUSH1 0x0 DUP3 DUP3 MSTORE PUSH1 0x20 DUP3 ADD SWAP1 POP SWAP3 SWAP2 POP POP JUMP JUMPDEST PUSH1 0x0 DUP2 ISZERO ISZERO SWAP1 POP SWAP2 SWAP1 POP JUMP JUMPDEST PUSH1 0x0 DUP2 SWAP1 POP SWAP2 SWAP1 POP JUMP JUMPDEST PUSH1 0x0 PUSH2 0xCD5 DUP3 PUSH2 0xCC0 JUMP JUMPDEST SWAP1 POP SWAP2 SWAP1 POP JUMP JUMPDEST PUSH1 0x0 PUSH2 0xCE7 DUP3 PUSH2 0xCC0 JUMP JUMPDEST SWAP1 POP SWAP2 SWAP1 POP JUMP JUMPDEST PUSH1 0x0 PUSH2 0xCF9 DUP3 PUSH2 0xCC0 JUMP JUMPDEST SWAP1 POP SWAP2 SWAP1 POP JUMP JUMPDEST PUSH1 0x0 PUSH2 0xD0B DUP3 PUSH2 0xCC0 JUMP JUMPDEST SWAP1 POP SWAP2 SWAP1 POP JUMP JUMPDEST PUSH1 0x0 PUSH2 0xD1D DUP3 PUSH2 0xCC0 JUMP JUMPDEST SWAP1 POP SWAP2 SWAP1 POP JUMP JUMPDEST PUSH1 0x0 PUSH2 0xD2F DUP3 PUSH2 0xCC0 JUMP JUMPDEST SWAP1 POP SWAP2 SWAP1 POP JUMP JUMPDEST PUSH1 0x0 PUSH2 0xD41 DUP3 PUSH2 0xCC0 JUMP JUMPDEST SWAP1 POP SWAP2 SWAP1 POP JUMP JUMPDEST PUSH1 0x0 PUSH2 0xD53 DUP3 PUSH2 0xCC0 JUMP JUMPDEST SWAP1 POP SWAP2 SWAP1 POP JUMP JUMPDEST PUSH2 0xD63 DUP2 PUSH2 0xCB4 JUMP JUMPDEST DUP2 EQ PUSH2 0xD6E JUMPI PUSH1 0x0 DUP1 REVERT JUMPDEST POP JUMP JUMPDEST PUSH2 0xD7A DUP2 PUSH2 0xCC0 JUMP JUMPDEST DUP2 EQ PUSH2 0xD85 JUMPI PUSH1 0x0 DUP1 REVERT JUMPDEST POP JUMP INVALID LOG2 PUSH5 0x6970667358 0x22 SLT KECCAK256 CODESIZE INVALID 0x24 0xBE 0xBE SWAP8 0xD7 0xD0 0xE9 PUSH25 0x5323561A63118BF5414581FE3BB22969DAC1195F4EAA64736F PUSH13 0x63430008000033608060405234 DUP1 ISZERO PUSH2 0x10 JUMPI PUSH1 0x0 DUP1 REVERT JUMPDEST POP PUSH2 0x3AE DUP1 PUSH2 0x20 PUSH1 0x0 CODECOPY PUSH1 0x0 RETURN INVALID PUSH1 0x80 PUSH1 0x40 MSTORE CALLVALUE DUP1 ISZERO PUSH2 0x10 JUMPI PUSH1 0x0 DUP1 REVERT JUMPDEST POP PUSH1 0x4 CALLDATASIZE LT PUSH2 0x4C JUMPI PUSH1 0x0 CALLDATALOAD PUSH1 0xE0 SHR DUP1 PUSH4 0x165C4A16 EQ PUSH2 0x51 JUMPI DUP1 PUSH4 0x3EF5E445 EQ PUSH2 0x81 JUMPI DUP1 PUSH4 0x771602F7 EQ PUSH2 0xB1 JUMPI DUP1 PUSH4 0xF88E9FBF EQ PUSH2 0xE1 JUMPI JUMPDEST PUSH1 0x0 DUP1 REVERT JUMPDEST PUSH2 0x6B PUSH1 0x4 DUP1 CALLDATASIZE SUB DUP2 ADD SWAP1 PUSH2 0x66 SWAP2 SWAP1 PUSH2 0x17E JUMP JUMPDEST PUSH2 0x111 JUMP JUMPDEST PUSH1 0x40 MLOAD PUSH2 0x78 SWAP2 SWAP1 PUSH2 0x1C9 JUMP JUMPDEST PUSH1 0x40 MLOAD DUP1 SWAP2 SUB SWAP1 RETURN JUMPDEST PUSH2 0x9B PUSH1 0x4 DUP1 CALLDATASIZE SUB DUP2 ADD SWAP1 PUSH2 0x96 SWAP2 SWAP1 PUSH2 0x17E JUMP JUMPDEST PUSH2 0x127 JUMP JUMPDEST PUSH1 0x40 MLOAD PUSH2 0xA8 SWAP2 SWAP1 PUSH2 0x1C9 JUMP JUMPDEST PUSH1 0x40 MLOAD DUP1 SWAP2 SUB SWAP1 RETURN JUMPDEST PUSH2 0xCB PUSH1 0x4 DUP1 CALLDATASIZE SUB DUP2 ADD SWAP1 PUSH2 0xC6 SWAP2 SWAP1 PUSH2 0x17E JUMP JUMPDEST PUSH2 0x13D JUMP JUMPDEST PUSH1 0x40 MLOAD PUSH2 0xD8 SWAP2 SWAP1 PUSH2 0x1C9 JUMP JUMPDEST PUSH1 0x40 MLOAD DUP1 SWAP2 SUB SWAP1 RETURN JUMPDEST PUSH2 0xFB PUSH1 0x4 DUP1 CALLDATASIZE SUB DUP2 ADD SWAP1 PUSH2 0xF6 SWAP2 SWAP1 PUSH2 0x17E JUMP JUMPDEST PUSH2 0x153 JUMP JUMPDEST PUSH1 0x40 MLOAD PUSH2 0x108 SWAP2 SWAP1 PUSH2 0x1C9 JUMP JUMPDEST PUSH1 0x40 MLOAD DUP1 SWAP2 SUB SWAP1 RETURN JUMPDEST PUSH1 0x0 DUP2 DUP4 PUSH2 0x11F SWAP2 SWAP1 PUSH2 0x26B JUMP JUMPDEST SWAP1 POP SWAP3 SWAP2 POP POP JUMP JUMPDEST PUSH1 0x0 DUP2 DUP4 PUSH2 0x135 SWAP2 SWAP1 PUSH2 0x2C5 JUMP JUMPDEST SWAP1 POP SWAP3 SWAP2 POP POP JUMP JUMPDEST PUSH1 0x0 DUP2 DUP4 PUSH2 0x14B SWAP2 SWAP1 PUSH2 0x1E4 JUMP JUMPDEST SWAP1 POP SWAP3 SWAP2 POP POP JUMP JUMPDEST PUSH1 0x0 DUP2 DUP4 PUSH2 0x161 SWAP2 SWAP1 PUSH2 0x23A JUMP JUMPDEST SWAP1 POP SWAP3 SWAP2 POP POP JUMP JUMPDEST PUSH1 0x0 DUP2 CALLDATALOAD SWAP1 POP PUSH2 0x178 DUP2 PUSH2 0x361 JUMP JUMPDEST SWAP3 SWAP2 POP POP JUMP JUMPDEST PUSH1 0x0 DUP1 PUSH1 0x40 DUP4 DUP6 SUB SLT ISZERO PUSH2 0x191 JUMPI PUSH1 0x0 DUP1 REVERT JUMPDEST PUSH1 0x0 PUSH2 0x19F DUP6 DUP3 DUP7 ADD PUSH2 0x169 JUMP JUMPDEST SWAP3 POP POP PUSH1 0x20 PUSH2 0x1B0 DUP6 DUP3 DUP7 ADD PUSH2 0x169 JUMP JUMPDEST SWAP2 POP POP SWAP3 POP SWAP3 SWAP1 POP JUMP JUMPDEST PUSH2 0x1C3 DUP2 PUSH2 0x2F9 JUMP JUMPDEST DUP3 MSTORE POP POP JUMP JUMPDEST PUSH1 0x0 PUSH1 0x20 DUP3 ADD SWAP1 POP PUSH2 0x1DE PUSH1 0x0 DUP4 ADD DUP5 PUSH2 0x1BA JUMP JUMPDEST SWAP3 SWAP2 POP POP JUMP JUMPDEST PUSH1 0x0 PUSH2 0x1EF DUP3 PUSH2 0x2F9 JUMP JUMPDEST SWAP2 POP PUSH2 0x1FA DUP4 PUSH2 0x2F9 JUMP JUMPDEST SWAP3 POP DUP3 PUSH32 0xFFFFFFFFFFFFFFFFFFFFFFFFFFFFFFFFFFFFFFFFFFFFFFFFFFFFFFFFFFFFFFFF SUB DUP3 GT ISZERO PUSH2 0x22F JUMPI PUSH2 0x22E PUSH2 0x303 JUMP JUMPDEST JUMPDEST DUP3 DUP3 ADD SWAP1 POP SWAP3 SWAP2 POP POP JUMP JUMPDEST PUSH1 0x0 PUSH2 0x245 DUP3 PUSH2 0x2F9 JUMP JUMPDEST SWAP2 POP PUSH2 0x250 DUP4 PUSH2 0x2F9 JUMP JUMPDEST SWAP3 POP DUP3 PUSH2 0x260 JUMPI PUSH2 0x25F PUSH2 0x332 JUMP JUMPDEST JUMPDEST DUP3 DUP3 DIV SWAP1 POP SWAP3 SWAP2 POP POP JUMP JUMPDEST PUSH1 0x0 PUSH2 0x276 DUP3 PUSH2 0x2F9 JUMP JUMPDEST SWAP2 POP PUSH2 0x281 DUP4 PUSH2 0x2F9 JUMP JUMPDEST SWAP3 POP DUP2 PUSH32 0xFFFFFFFFFFFFFFFFFFFFFFFFFFFFFFFFFFFFFFFFFFFFFFFFFFFFFFFFFFFFFFFF DIV DUP4 GT DUP3 ISZERO ISZERO AND ISZERO PUSH2 0x2BA JUMPI PUSH2 0x2B9 PUSH2 0x303 JUMP JUMPDEST JUMPDEST DUP3 DUP3 MUL SWAP1 POP SWAP3 SWAP2 POP POP JUMP JUMPDEST PUSH1 0x0 PUSH2 0x2D0 DUP3 PUSH2 0x2F9 JUMP JUMPDEST SWAP2 POP PUSH2 0x2DB DUP4 PUSH2 0x2F9 JUMP JUMPDEST SWAP3 POP DUP3 DUP3 LT ISZERO PUSH2 0x2EE JUMPI PUSH2 0x2ED PUSH2 0x303 JUMP JUMPDEST JUMPDEST DUP3 DUP3 SUB SWAP1 POP SWAP3 SWAP2 POP POP JUMP JUMPDEST PUSH1 0x0 DUP2 SWAP1 POP SWAP2 SWAP1 POP JUMP JUMPDEST PUSH32 0x4E487B7100000000000000000000000000000000000000000000000000000000 PUSH1 0x0 MSTORE PUSH1 0x11 PUSH1 0x4 MSTORE PUSH1 0x24 PUSH1 0x0 REVERT JUMPDEST PUSH32 0x4E487B7100000000000000000000000000000000000000000000000000000000 PUSH1 0x0 MSTORE PUSH1 0x12 PUSH1 0x4 MSTORE PUSH1 0x24 PUSH1 0x0 REVERT JUMPDEST PUSH2 0x36A DUP2 PUSH2 0x2F9 JUMP JUMPDEST DUP2 EQ PUSH2 0x375 JUMPI PUSH1 0x0 DUP1 REVERT JUMPDEST POP JUMP INVALID LOG2 PUSH5 0x6970667358 0x22 SLT KECCAK256 0xB4 0x5F RETURN SWAP6 0x49 PUSH4 0xF02CAC66 0x1F SWAP10 0xEE 0xD4 DUP12 0xCD PUSH20 0x89A7CA7B50F93524E0087A83BA491D64736F6C63 NUMBER STOP ADDMOD STOP STOP CALLER "
				},
				"gasEstimates": {
					"creation": {
						"codeDepositCost": "703600",
						"executionCost": "infinite",
						"totalCost": "infinite"
					},
					"external": {
						"add()": "infinite",
						"divide()": "infinite",
						"multiply()": "infinite",
						"subtract()": "infinite"
					}
				},
				"methodIdentifiers": {
					"add()": "4f2be91f",
					"divide()": "b53b8d7a",
					"multiply()": "f3593cd0",
					"subtract()": "6deebae3"
				}
			},
			"storageLayout": {
				"storage": [
					{
						"astId": 837,
						"contract": "tests/calculator_test.sol:testSuite",
						"label": "calculator",
						"offset": 0,
						"slot": "0",
						"type": "t_contract(Calculator)58"
					}
				],
				"types": {
					"t_contract(Calculator)58": {
						"encoding": "inplace",
						"label": "contract Calculator",
						"numberOfBytes": "20"
					}
				}
			},
			"userdoc": {
				"kind": "user",
				"methods": {},
				"version": 1
			}
		}
	}
}